{
	"contracts/Lab3_Ballot_FX17394.sol": {
		"Ballot_FX17394": {
			"abi": [
				{
					"inputs": [
						{
							"internalType": "bytes32[]",
							"name": "proposalNames",
							"type": "bytes32[]"
						}
					],
					"stateMutability": "nonpayable",
					"type": "constructor"
				},
				{
					"inputs": [
						{
							"internalType": "address",
							"name": "to",
							"type": "address"
						}
					],
					"name": "delegate",
					"outputs": [],
					"stateMutability": "nonpayable",
					"type": "function"
				},
				{
					"inputs": [
						{
							"internalType": "address",
							"name": "voter",
							"type": "address"
						}
					],
					"name": "giveRightToVote",
					"outputs": [],
					"stateMutability": "nonpayable",
					"type": "function"
				},
				{
					"inputs": [
						{
							"internalType": "uint256",
							"name": "proposal",
							"type": "uint256"
						}
					],
					"name": "vote",
					"outputs": [],
					"stateMutability": "nonpayable",
					"type": "function"
				},
				{
					"inputs": [],
					"name": "winnerName",
					"outputs": [
						{
							"internalType": "bytes32",
							"name": "",
							"type": "bytes32"
						}
					],
					"stateMutability": "view",
					"type": "function"
				},
				{
					"inputs": [],
					"name": "winningProposal",
					"outputs": [
						{
							"internalType": "uint256",
							"name": "winningProposal_",
							"type": "uint256"
						}
					],
					"stateMutability": "view",
					"type": "function"
				}
			],
			"devdoc": {
				"custom:dev-run-script": "./scripts/deploy_with_web3.ts",
				"details": "ContractDescription",
				"kind": "dev",
				"methods": {},
				"title": "ContractName",
				"version": 1
			},
			"evm": {
				"assembly": "    /* \"contracts/Lab3_Ballot_FX17394.sol\":202:5580  contract Ballot_FX17394{... */\n  mstore(0x40, 0x80)\n    /* \"contracts/Lab3_Ballot_FX17394.sol\":1496:2044  constructor (bytes32[] memory proposalNames){... */\n  callvalue\n  dup1\n  iszero\n  tag_1\n  jumpi\n  0x00\n  dup1\n  revert\ntag_1:\n  pop\n  mload(0x40)\n  sub(codesize, bytecodeSize)\n  dup1\n  bytecodeSize\n  dup4\n  codecopy\n  dup2\n  dup2\n  add\n  0x40\n  mstore\n  dup2\n  add\n  swap1\n  tag_2\n  swap2\n  swap1\n  tag_3\n  jump\t// in\ntag_2:\n    /* \"contracts/Lab3_Ballot_FX17394.sol\":1631:1641  msg.sender */\n  caller\n    /* \"contracts/Lab3_Ballot_FX17394.sol\":1617:1628  chairPerson */\n  0x00\n  dup1\n    /* \"contracts/Lab3_Ballot_FX17394.sol\":1617:1641  chairPerson = msg.sender */\n  0x0100\n  exp\n  dup2\n  sload\n  dup2\n  0xffffffffffffffffffffffffffffffffffffffff\n  mul\n  not\n  and\n  swap1\n  dup4\n  0xffffffffffffffffffffffffffffffffffffffff\n  and\n  mul\n  or\n  swap1\n  sstore\n  pop\n    /* \"contracts/Lab3_Ballot_FX17394.sol\":1745:1746  1 */\n  0x01\n    /* \"contracts/Lab3_Ballot_FX17394.sol\":1717:1723  voters */\n  dup1\n    /* \"contracts/Lab3_Ballot_FX17394.sol\":1717:1736  voters[chairPerson] */\n  0x00\n    /* \"contracts/Lab3_Ballot_FX17394.sol\":1724:1735  chairPerson */\n  dup1\n  0x00\n  swap1\n  sload\n  swap1\n  0x0100\n  exp\n  swap1\n  div\n  0xffffffffffffffffffffffffffffffffffffffff\n  and\n    /* \"contracts/Lab3_Ballot_FX17394.sol\":1717:1736  voters[chairPerson] */\n  0xffffffffffffffffffffffffffffffffffffffff\n  and\n  0xffffffffffffffffffffffffffffffffffffffff\n  and\n  dup2\n  mstore\n  0x20\n  add\n  swap1\n  dup2\n  mstore\n  0x20\n  add\n  0x00\n  keccak256\n    /* \"contracts/Lab3_Ballot_FX17394.sol\":1717:1743  voters[chairPerson].weight */\n  0x00\n  add\n    /* \"contracts/Lab3_Ballot_FX17394.sol\":1717:1746  voters[chairPerson].weight =1 */\n  dup2\n  swap1\n  sstore\n  pop\n    /* \"contracts/Lab3_Ballot_FX17394.sol\":1859:1865  uint i */\n  0x00\n    /* \"contracts/Lab3_Ballot_FX17394.sol\":1855:2037  for(uint i = 0; i<proposalNames.length; i++){... */\ntag_6:\n    /* \"contracts/Lab3_Ballot_FX17394.sol\":1873:1886  proposalNames */\n  dup2\n    /* \"contracts/Lab3_Ballot_FX17394.sol\":1873:1893  proposalNames.length */\n  mload\n    /* \"contracts/Lab3_Ballot_FX17394.sol\":1871:1872  i */\n  dup2\n    /* \"contracts/Lab3_Ballot_FX17394.sol\":1871:1893  i<proposalNames.length */\n  lt\n    /* \"contracts/Lab3_Ballot_FX17394.sol\":1855:2037  for(uint i = 0; i<proposalNames.length; i++){... */\n  iszero\n  tag_7\n  jumpi\n    /* \"contracts/Lab3_Ballot_FX17394.sol\":1914:1923  proposals */\n  0x02\n    /* \"contracts/Lab3_Ballot_FX17394.sol\":1929:2024  Proposal({... */\n  mload(0x40)\n  dup1\n  0x40\n  add\n  0x40\n  mstore\n  dup1\n    /* \"contracts/Lab3_Ballot_FX17394.sol\":1962:1975  proposalNames */\n  dup5\n    /* \"contracts/Lab3_Ballot_FX17394.sol\":1976:1977  i */\n  dup5\n    /* \"contracts/Lab3_Ballot_FX17394.sol\":1962:1978  proposalNames[i] */\n  dup2\n  mload\n  dup2\n  lt\n  tag_9\n  jumpi\n  tag_10\n  tag_11\n  jump\t// in\ntag_10:\ntag_9:\n  0x20\n  mul\n  0x20\n  add\n  add\n  mload\n    /* \"contracts/Lab3_Ballot_FX17394.sol\":1929:2024  Proposal({... */\n  dup2\n  mstore\n  0x20\n  add\n    /* \"contracts/Lab3_Ballot_FX17394.sol\":2007:2008  0 */\n  0x00\n    /* \"contracts/Lab3_Ballot_FX17394.sol\":1929:2024  Proposal({... */\n  dup2\n  mstore\n  pop\n    /* \"contracts/Lab3_Ballot_FX17394.sol\":1914:2025  proposals.push(Proposal({... */\n  swap1\n  dup1\n  0x01\n  dup2\n  sload\n  add\n  dup1\n  dup3\n  sstore\n  dup1\n  swap2\n  pop\n  pop\n  0x01\n  swap1\n  sub\n  swap1\n  0x00\n  mstore\n  keccak256(0x00, 0x20)\n  swap1\n  0x02\n  mul\n  add\n  0x00\n  swap1\n  swap2\n  swap1\n  swap2\n  swap1\n  swap2\n  pop\n  0x00\n  dup3\n  add\n  mload\n  dup2\n  0x00\n  add\n  sstore\n  0x20\n  dup3\n  add\n  mload\n  dup2\n  0x01\n  add\n  sstore\n  pop\n  pop\n    /* \"contracts/Lab3_Ballot_FX17394.sol\":1895:1898  i++ */\n  dup1\n  dup1\n  tag_13\n  swap1\n  tag_14\n  jump\t// in\ntag_13:\n  swap2\n  pop\n  pop\n    /* \"contracts/Lab3_Ballot_FX17394.sol\":1855:2037  for(uint i = 0; i<proposalNames.length; i++){... */\n  jump(tag_6)\ntag_7:\n  pop\n    /* \"contracts/Lab3_Ballot_FX17394.sol\":1496:2044  constructor (bytes32[] memory proposalNames){... */\n  pop\n    /* \"contracts/Lab3_Ballot_FX17394.sol\":202:5580  contract Ballot_FX17394{... */\n  jump(tag_15)\n    /* \"#utility.yul\":7:82   */\ntag_16:\n    /* \"#utility.yul\":40:46   */\n  0x00\n    /* \"#utility.yul\":73:75   */\n  0x40\n    /* \"#utility.yul\":67:76   */\n  mload\n    /* \"#utility.yul\":57:76   */\n  swap1\n  pop\n    /* \"#utility.yul\":7:82   */\n  swap1\n  jump\t// out\n    /* \"#utility.yul\":88:205   */\ntag_17:\n    /* \"#utility.yul\":197:198   */\n  0x00\n    /* \"#utility.yul\":194:195   */\n  dup1\n    /* \"#utility.yul\":187:199   */\n  revert\n    /* \"#utility.yul\":211:328   */\ntag_18:\n    /* \"#utility.yul\":320:321   */\n  0x00\n    /* \"#utility.yul\":317:318   */\n  dup1\n    /* \"#utility.yul\":310:322   */\n  revert\n    /* \"#utility.yul\":334:451   */\ntag_19:\n    /* \"#utility.yul\":443:444   */\n  0x00\n    /* \"#utility.yul\":440:441   */\n  dup1\n    /* \"#utility.yul\":433:445   */\n  revert\n    /* \"#utility.yul\":457:559   */\ntag_20:\n    /* \"#utility.yul\":498:504   */\n  0x00\n    /* \"#utility.yul\":549:551   */\n  0x1f\n    /* \"#utility.yul\":545:552   */\n  not\n    /* \"#utility.yul\":540:542   */\n  0x1f\n    /* \"#utility.yul\":533:538   */\n  dup4\n    /* \"#utility.yul\":529:543   */\n  add\n    /* \"#utility.yul\":525:553   */\n  and\n    /* \"#utility.yul\":515:553   */\n  swap1\n  pop\n    /* \"#utility.yul\":457:559   */\n  swap2\n  swap1\n  pop\n  jump\t// out\n    /* \"#utility.yul\":565:745   */\ntag_21:\n    /* \"#utility.yul\":613:690   */\n  0x4e487b7100000000000000000000000000000000000000000000000000000000\n    /* \"#utility.yul\":610:611   */\n  0x00\n    /* \"#utility.yul\":603:691   */\n  mstore\n    /* \"#utility.yul\":710:714   */\n  0x41\n    /* \"#utility.yul\":707:708   */\n  0x04\n    /* \"#utility.yul\":700:715   */\n  mstore\n    /* \"#utility.yul\":734:738   */\n  0x24\n    /* \"#utility.yul\":731:732   */\n  0x00\n    /* \"#utility.yul\":724:739   */\n  revert\n    /* \"#utility.yul\":751:1032   */\ntag_22:\n    /* \"#utility.yul\":834:861   */\n  tag_41\n    /* \"#utility.yul\":856:860   */\n  dup3\n    /* \"#utility.yul\":834:861   */\n  tag_20\n  jump\t// in\ntag_41:\n    /* \"#utility.yul\":826:832   */\n  dup2\n    /* \"#utility.yul\":822:862   */\n  add\n    /* \"#utility.yul\":964:970   */\n  dup2\n    /* \"#utility.yul\":952:962   */\n  dup2\n    /* \"#utility.yul\":949:971   */\n  lt\n    /* \"#utility.yul\":928:946   */\n  0xffffffffffffffff\n    /* \"#utility.yul\":916:926   */\n  dup3\n    /* \"#utility.yul\":913:947   */\n  gt\n    /* \"#utility.yul\":910:972   */\n  or\n    /* \"#utility.yul\":907:995   */\n  iszero\n  tag_42\n  jumpi\n    /* \"#utility.yul\":975:993   */\n  tag_43\n  tag_21\n  jump\t// in\ntag_43:\n    /* \"#utility.yul\":907:995   */\ntag_42:\n    /* \"#utility.yul\":1015:1025   */\n  dup1\n    /* \"#utility.yul\":1011:1013   */\n  0x40\n    /* \"#utility.yul\":1004:1026   */\n  mstore\n    /* \"#utility.yul\":794:1032   */\n  pop\n    /* \"#utility.yul\":751:1032   */\n  pop\n  pop\n  jump\t// out\n    /* \"#utility.yul\":1038:1167   */\ntag_23:\n    /* \"#utility.yul\":1072:1078   */\n  0x00\n    /* \"#utility.yul\":1099:1119   */\n  tag_45\n  tag_16\n  jump\t// in\ntag_45:\n    /* \"#utility.yul\":1089:1119   */\n  swap1\n  pop\n    /* \"#utility.yul\":1128:1161   */\n  tag_46\n    /* \"#utility.yul\":1156:1160   */\n  dup3\n    /* \"#utility.yul\":1148:1154   */\n  dup3\n    /* \"#utility.yul\":1128:1161   */\n  tag_22\n  jump\t// in\ntag_46:\n    /* \"#utility.yul\":1038:1167   */\n  swap2\n  swap1\n  pop\n  jump\t// out\n    /* \"#utility.yul\":1173:1484   */\ntag_24:\n    /* \"#utility.yul\":1250:1254   */\n  0x00\n    /* \"#utility.yul\":1340:1358   */\n  0xffffffffffffffff\n    /* \"#utility.yul\":1332:1338   */\n  dup3\n    /* \"#utility.yul\":1329:1359   */\n  gt\n    /* \"#utility.yul\":1326:1382   */\n  iszero\n  tag_48\n  jumpi\n    /* \"#utility.yul\":1362:1380   */\n  tag_49\n  tag_21\n  jump\t// in\ntag_49:\n    /* \"#utility.yul\":1326:1382   */\ntag_48:\n    /* \"#utility.yul\":1412:1416   */\n  0x20\n    /* \"#utility.yul\":1404:1410   */\n  dup3\n    /* \"#utility.yul\":1400:1417   */\n  mul\n    /* \"#utility.yul\":1392:1417   */\n  swap1\n  pop\n    /* \"#utility.yul\":1472:1476   */\n  0x20\n    /* \"#utility.yul\":1466:1470   */\n  dup2\n    /* \"#utility.yul\":1462:1477   */\n  add\n    /* \"#utility.yul\":1454:1477   */\n  swap1\n  pop\n    /* \"#utility.yul\":1173:1484   */\n  swap2\n  swap1\n  pop\n  jump\t// out\n    /* \"#utility.yul\":1490:1607   */\ntag_25:\n    /* \"#utility.yul\":1599:1600   */\n  0x00\n    /* \"#utility.yul\":1596:1597   */\n  dup1\n    /* \"#utility.yul\":1589:1601   */\n  revert\n    /* \"#utility.yul\":1613:1690   */\ntag_26:\n    /* \"#utility.yul\":1650:1657   */\n  0x00\n    /* \"#utility.yul\":1679:1684   */\n  dup2\n    /* \"#utility.yul\":1668:1684   */\n  swap1\n  pop\n    /* \"#utility.yul\":1613:1690   */\n  swap2\n  swap1\n  pop\n  jump\t// out\n    /* \"#utility.yul\":1696:1818   */\ntag_27:\n    /* \"#utility.yul\":1769:1793   */\n  tag_53\n    /* \"#utility.yul\":1787:1792   */\n  dup2\n    /* \"#utility.yul\":1769:1793   */\n  tag_26\n  jump\t// in\ntag_53:\n    /* \"#utility.yul\":1762:1767   */\n  dup2\n    /* \"#utility.yul\":1759:1794   */\n  eq\n    /* \"#utility.yul\":1749:1812   */\n  tag_54\n  jumpi\n    /* \"#utility.yul\":1808:1809   */\n  0x00\n    /* \"#utility.yul\":1805:1806   */\n  dup1\n    /* \"#utility.yul\":1798:1810   */\n  revert\n    /* \"#utility.yul\":1749:1812   */\ntag_54:\n    /* \"#utility.yul\":1696:1818   */\n  pop\n  jump\t// out\n    /* \"#utility.yul\":1824:1967   */\ntag_28:\n    /* \"#utility.yul\":1881:1886   */\n  0x00\n    /* \"#utility.yul\":1912:1918   */\n  dup2\n    /* \"#utility.yul\":1906:1919   */\n  mload\n    /* \"#utility.yul\":1897:1919   */\n  swap1\n  pop\n    /* \"#utility.yul\":1928:1961   */\n  tag_56\n    /* \"#utility.yul\":1955:1960   */\n  dup2\n    /* \"#utility.yul\":1928:1961   */\n  tag_27\n  jump\t// in\ntag_56:\n    /* \"#utility.yul\":1824:1967   */\n  swap3\n  swap2\n  pop\n  pop\n  jump\t// out\n    /* \"#utility.yul\":1990:2722   */\ntag_29:\n    /* \"#utility.yul\":2097:2102   */\n  0x00\n    /* \"#utility.yul\":2122:2203   */\n  tag_58\n    /* \"#utility.yul\":2138:2202   */\n  tag_59\n    /* \"#utility.yul\":2195:2201   */\n  dup5\n    /* \"#utility.yul\":2138:2202   */\n  tag_24\n  jump\t// in\ntag_59:\n    /* \"#utility.yul\":2122:2203   */\n  tag_23\n  jump\t// in\ntag_58:\n    /* \"#utility.yul\":2113:2203   */\n  swap1\n  pop\n    /* \"#utility.yul\":2223:2228   */\n  dup1\n    /* \"#utility.yul\":2252:2258   */\n  dup4\n    /* \"#utility.yul\":2245:2250   */\n  dup3\n    /* \"#utility.yul\":2238:2259   */\n  mstore\n    /* \"#utility.yul\":2286:2290   */\n  0x20\n    /* \"#utility.yul\":2279:2284   */\n  dup3\n    /* \"#utility.yul\":2275:2291   */\n  add\n    /* \"#utility.yul\":2268:2291   */\n  swap1\n  pop\n    /* \"#utility.yul\":2339:2343   */\n  0x20\n    /* \"#utility.yul\":2331:2337   */\n  dup5\n    /* \"#utility.yul\":2327:2344   */\n  mul\n    /* \"#utility.yul\":2319:2325   */\n  dup4\n    /* \"#utility.yul\":2315:2345   */\n  add\n    /* \"#utility.yul\":2368:2371   */\n  dup6\n    /* \"#utility.yul\":2360:2366   */\n  dup2\n    /* \"#utility.yul\":2357:2372   */\n  gt\n    /* \"#utility.yul\":2354:2476   */\n  iszero\n  tag_60\n  jumpi\n    /* \"#utility.yul\":2387:2466   */\n  tag_61\n  tag_25\n  jump\t// in\ntag_61:\n    /* \"#utility.yul\":2354:2476   */\ntag_60:\n    /* \"#utility.yul\":2502:2508   */\n  dup4\n    /* \"#utility.yul\":2485:2716   */\ntag_62:\n    /* \"#utility.yul\":2519:2525   */\n  dup2\n    /* \"#utility.yul\":2514:2517   */\n  dup2\n    /* \"#utility.yul\":2511:2526   */\n  lt\n    /* \"#utility.yul\":2485:2716   */\n  iszero\n  tag_64\n  jumpi\n    /* \"#utility.yul\":2594:2597   */\n  dup1\n    /* \"#utility.yul\":2623:2671   */\n  tag_65\n    /* \"#utility.yul\":2667:2670   */\n  dup9\n    /* \"#utility.yul\":2655:2665   */\n  dup3\n    /* \"#utility.yul\":2623:2671   */\n  tag_28\n  jump\t// in\ntag_65:\n    /* \"#utility.yul\":2618:2621   */\n  dup5\n    /* \"#utility.yul\":2611:2672   */\n  mstore\n    /* \"#utility.yul\":2701:2705   */\n  0x20\n    /* \"#utility.yul\":2696:2699   */\n  dup5\n    /* \"#utility.yul\":2692:2706   */\n  add\n    /* \"#utility.yul\":2685:2706   */\n  swap4\n  pop\n    /* \"#utility.yul\":2561:2716   */\n  pop\n    /* \"#utility.yul\":2545:2549   */\n  0x20\n    /* \"#utility.yul\":2540:2543   */\n  dup2\n    /* \"#utility.yul\":2536:2550   */\n  add\n    /* \"#utility.yul\":2529:2550   */\n  swap1\n  pop\n    /* \"#utility.yul\":2485:2716   */\n  jump(tag_62)\ntag_64:\n    /* \"#utility.yul\":2489:2510   */\n  pop\n    /* \"#utility.yul\":2103:2722   */\n  pop\n  pop\n    /* \"#utility.yul\":1990:2722   */\n  swap4\n  swap3\n  pop\n  pop\n  pop\n  jump\t// out\n    /* \"#utility.yul\":2745:3130   */\ntag_30:\n    /* \"#utility.yul\":2827:2832   */\n  0x00\n    /* \"#utility.yul\":2876:2879   */\n  dup3\n    /* \"#utility.yul\":2869:2873   */\n  0x1f\n    /* \"#utility.yul\":2861:2867   */\n  dup4\n    /* \"#utility.yul\":2857:2874   */\n  add\n    /* \"#utility.yul\":2853:2880   */\n  slt\n    /* \"#utility.yul\":2843:2965   */\n  tag_67\n  jumpi\n    /* \"#utility.yul\":2884:2963   */\n  tag_68\n  tag_19\n  jump\t// in\ntag_68:\n    /* \"#utility.yul\":2843:2965   */\ntag_67:\n    /* \"#utility.yul\":2994:3000   */\n  dup2\n    /* \"#utility.yul\":2988:3001   */\n  mload\n    /* \"#utility.yul\":3019:3124   */\n  tag_69\n    /* \"#utility.yul\":3120:3123   */\n  dup5\n    /* \"#utility.yul\":3112:3118   */\n  dup3\n    /* \"#utility.yul\":3105:3109   */\n  0x20\n    /* \"#utility.yul\":3097:3103   */\n  dup7\n    /* \"#utility.yul\":3093:3110   */\n  add\n    /* \"#utility.yul\":3019:3124   */\n  tag_29\n  jump\t// in\ntag_69:\n    /* \"#utility.yul\":3010:3124   */\n  swap2\n  pop\n    /* \"#utility.yul\":2833:3130   */\n  pop\n    /* \"#utility.yul\":2745:3130   */\n  swap3\n  swap2\n  pop\n  pop\n  jump\t// out\n    /* \"#utility.yul\":3136:3690   */\ntag_3:\n    /* \"#utility.yul\":3231:3237   */\n  0x00\n    /* \"#utility.yul\":3280:3282   */\n  0x20\n    /* \"#utility.yul\":3268:3277   */\n  dup3\n    /* \"#utility.yul\":3259:3266   */\n  dup5\n    /* \"#utility.yul\":3255:3278   */\n  sub\n    /* \"#utility.yul\":3251:3283   */\n  slt\n    /* \"#utility.yul\":3248:3367   */\n  iszero\n  tag_71\n  jumpi\n    /* \"#utility.yul\":3286:3365   */\n  tag_72\n  tag_17\n  jump\t// in\ntag_72:\n    /* \"#utility.yul\":3248:3367   */\ntag_71:\n    /* \"#utility.yul\":3427:3428   */\n  0x00\n    /* \"#utility.yul\":3416:3425   */\n  dup3\n    /* \"#utility.yul\":3412:3429   */\n  add\n    /* \"#utility.yul\":3406:3430   */\n  mload\n    /* \"#utility.yul\":3457:3475   */\n  0xffffffffffffffff\n    /* \"#utility.yul\":3449:3455   */\n  dup2\n    /* \"#utility.yul\":3446:3476   */\n  gt\n    /* \"#utility.yul\":3443:3560   */\n  iszero\n  tag_73\n  jumpi\n    /* \"#utility.yul\":3479:3558   */\n  tag_74\n  tag_18\n  jump\t// in\ntag_74:\n    /* \"#utility.yul\":3443:3560   */\ntag_73:\n    /* \"#utility.yul\":3584:3673   */\n  tag_75\n    /* \"#utility.yul\":3665:3672   */\n  dup5\n    /* \"#utility.yul\":3656:3662   */\n  dup3\n    /* \"#utility.yul\":3645:3654   */\n  dup6\n    /* \"#utility.yul\":3641:3663   */\n  add\n    /* \"#utility.yul\":3584:3673   */\n  tag_30\n  jump\t// in\ntag_75:\n    /* \"#utility.yul\":3574:3673   */\n  swap2\n  pop\n    /* \"#utility.yul\":3377:3683   */\n  pop\n    /* \"#utility.yul\":3136:3690   */\n  swap3\n  swap2\n  pop\n  pop\n  jump\t// out\n    /* \"#utility.yul\":3696:3876   */\ntag_11:\n    /* \"#utility.yul\":3744:3821   */\n  0x4e487b7100000000000000000000000000000000000000000000000000000000\n    /* \"#utility.yul\":3741:3742   */\n  0x00\n    /* \"#utility.yul\":3734:3822   */\n  mstore\n    /* \"#utility.yul\":3841:3845   */\n  0x32\n    /* \"#utility.yul\":3838:3839   */\n  0x04\n    /* \"#utility.yul\":3831:3846   */\n  mstore\n    /* \"#utility.yul\":3865:3869   */\n  0x24\n    /* \"#utility.yul\":3862:3863   */\n  0x00\n    /* \"#utility.yul\":3855:3870   */\n  revert\n    /* \"#utility.yul\":3882:4062   */\ntag_31:\n    /* \"#utility.yul\":3930:4007   */\n  0x4e487b7100000000000000000000000000000000000000000000000000000000\n    /* \"#utility.yul\":3927:3928   */\n  0x00\n    /* \"#utility.yul\":3920:4008   */\n  mstore\n    /* \"#utility.yul\":4027:4031   */\n  0x11\n    /* \"#utility.yul\":4024:4025   */\n  0x04\n    /* \"#utility.yul\":4017:4032   */\n  mstore\n    /* \"#utility.yul\":4051:4055   */\n  0x24\n    /* \"#utility.yul\":4048:4049   */\n  0x00\n    /* \"#utility.yul\":4041:4056   */\n  revert\n    /* \"#utility.yul\":4068:4145   */\ntag_32:\n    /* \"#utility.yul\":4105:4112   */\n  0x00\n    /* \"#utility.yul\":4134:4139   */\n  dup2\n    /* \"#utility.yul\":4123:4139   */\n  swap1\n  pop\n    /* \"#utility.yul\":4068:4145   */\n  swap2\n  swap1\n  pop\n  jump\t// out\n    /* \"#utility.yul\":4151:4384   */\ntag_14:\n    /* \"#utility.yul\":4190:4193   */\n  0x00\n    /* \"#utility.yul\":4213:4237   */\n  tag_80\n    /* \"#utility.yul\":4231:4236   */\n  dup3\n    /* \"#utility.yul\":4213:4237   */\n  tag_32\n  jump\t// in\ntag_80:\n    /* \"#utility.yul\":4204:4237   */\n  swap2\n  pop\n    /* \"#utility.yul\":4259:4325   */\n  0xffffffffffffffffffffffffffffffffffffffffffffffffffffffffffffffff\n    /* \"#utility.yul\":4252:4257   */\n  dup3\n    /* \"#utility.yul\":4249:4326   */\n  sub\n    /* \"#utility.yul\":4246:4349   */\n  tag_81\n  jumpi\n    /* \"#utility.yul\":4329:4347   */\n  tag_82\n  tag_31\n  jump\t// in\ntag_82:\n    /* \"#utility.yul\":4246:4349   */\ntag_81:\n    /* \"#utility.yul\":4376:4377   */\n  0x01\n    /* \"#utility.yul\":4369:4374   */\n  dup3\n    /* \"#utility.yul\":4365:4378   */\n  add\n    /* \"#utility.yul\":4358:4378   */\n  swap1\n  pop\n    /* \"#utility.yul\":4151:4384   */\n  swap2\n  swap1\n  pop\n  jump\t// out\n    /* \"contracts/Lab3_Ballot_FX17394.sol\":202:5580  contract Ballot_FX17394{... */\ntag_15:\n  dataSize(sub_0)\n  dup1\n  dataOffset(sub_0)\n  0x00\n  codecopy\n  0x00\n  return\nstop\n\nsub_0: assembly {\n        /* \"contracts/Lab3_Ballot_FX17394.sol\":202:5580  contract Ballot_FX17394{... */\n      mstore(0x40, 0x80)\n      callvalue\n      dup1\n      iszero\n      tag_1\n      jumpi\n      0x00\n      dup1\n      revert\n    tag_1:\n      pop\n      jumpi(tag_2, lt(calldatasize, 0x04))\n      shr(0xe0, calldataload(0x00))\n      dup1\n      0x0121b93f\n      eq\n      tag_3\n      jumpi\n      dup1\n      0x5c19a95c\n      eq\n      tag_4\n      jumpi\n      dup1\n      0x609ff1bd\n      eq\n      tag_5\n      jumpi\n      dup1\n      0x9e7b8d61\n      eq\n      tag_6\n      jumpi\n      dup1\n      0xe2ba53f0\n      eq\n      tag_7\n      jumpi\n    tag_2:\n      0x00\n      dup1\n      revert\n        /* \"contracts/Lab3_Ballot_FX17394.sol\":4448:5022  function vote(uint proposal) public{... */\n    tag_3:\n      tag_8\n      0x04\n      dup1\n      calldatasize\n      sub\n      dup2\n      add\n      swap1\n      tag_9\n      swap2\n      swap1\n      tag_10\n      jump\t// in\n    tag_9:\n      tag_11\n      jump\t// in\n    tag_8:\n      stop\n        /* \"contracts/Lab3_Ballot_FX17394.sol\":2975:4403  function delegate(address to) public{... */\n    tag_4:\n      tag_12\n      0x04\n      dup1\n      calldatasize\n      sub\n      dup2\n      add\n      swap1\n      tag_13\n      swap2\n      swap1\n      tag_14\n      jump\t// in\n    tag_13:\n      tag_15\n      jump\t// in\n    tag_12:\n      stop\n        /* \"contracts/Lab3_Ballot_FX17394.sol\":5069:5396  function winningProposal() public view returns (uint winningProposal_){        ... */\n    tag_5:\n      tag_16\n      tag_17\n      jump\t// in\n    tag_16:\n      mload(0x40)\n      tag_18\n      swap2\n      swap1\n      tag_19\n      jump\t// in\n    tag_18:\n      mload(0x40)\n      dup1\n      swap2\n      sub\n      swap1\n      return\n        /* \"contracts/Lab3_Ballot_FX17394.sol\":2213:2917  function giveRightToVote(address voter) public{... */\n    tag_6:\n      tag_20\n      0x04\n      dup1\n      calldatasize\n      sub\n      dup2\n      add\n      swap1\n      tag_21\n      swap2\n      swap1\n      tag_14\n      jump\t// in\n    tag_21:\n      tag_22\n      jump\t// in\n    tag_20:\n      stop\n        /* \"contracts/Lab3_Ballot_FX17394.sol\":5467:5577  function winnerName() public view returns (bytes32){... */\n    tag_7:\n      tag_23\n      tag_24\n      jump\t// in\n    tag_23:\n      mload(0x40)\n      tag_25\n      swap2\n      swap1\n      tag_26\n      jump\t// in\n    tag_25:\n      mload(0x40)\n      dup1\n      swap2\n      sub\n      swap1\n      return\n        /* \"contracts/Lab3_Ballot_FX17394.sol\":4448:5022  function vote(uint proposal) public{... */\n    tag_11:\n        /* \"contracts/Lab3_Ballot_FX17394.sol\":4494:4513  Voter storage voter */\n      0x00\n        /* \"contracts/Lab3_Ballot_FX17394.sol\":4516:4522  voters */\n      0x01\n        /* \"contracts/Lab3_Ballot_FX17394.sol\":4516:4534  voters[msg.sender] */\n      0x00\n        /* \"contracts/Lab3_Ballot_FX17394.sol\":4523:4533  msg.sender */\n      caller\n        /* \"contracts/Lab3_Ballot_FX17394.sol\":4516:4534  voters[msg.sender] */\n      0xffffffffffffffffffffffffffffffffffffffff\n      and\n      0xffffffffffffffffffffffffffffffffffffffff\n      and\n      dup2\n      mstore\n      0x20\n      add\n      swap1\n      dup2\n      mstore\n      0x20\n      add\n      0x00\n      keccak256\n        /* \"contracts/Lab3_Ballot_FX17394.sol\":4494:4534  Voter storage voter = voters[msg.sender] */\n      swap1\n      pop\n        /* \"contracts/Lab3_Ballot_FX17394.sol\":4658:4659  0 */\n      0x00\n        /* \"contracts/Lab3_Ballot_FX17394.sol\":4643:4648  voter */\n      dup2\n        /* \"contracts/Lab3_Ballot_FX17394.sol\":4643:4655  voter.weight */\n      0x00\n      add\n      sload\n        /* \"contracts/Lab3_Ballot_FX17394.sol\":4643:4659  voter.weight !=0 */\n      sub\n        /* \"contracts/Lab3_Ballot_FX17394.sol\":4635:4685  require(voter.weight !=0 , \"Has no right to vote\") */\n      tag_28\n      jumpi\n      mload(0x40)\n      0x08c379a000000000000000000000000000000000000000000000000000000000\n      dup2\n      mstore\n      0x04\n      add\n      tag_29\n      swap1\n      tag_30\n      jump\t// in\n    tag_29:\n      mload(0x40)\n      dup1\n      swap2\n      sub\n      swap1\n      revert\n    tag_28:\n        /* \"contracts/Lab3_Ballot_FX17394.sol\":4766:4771  false */\n      0x00\n        /* \"contracts/Lab3_Ballot_FX17394.sol\":4753:4771  voter.voted==false */\n      iszero\n      iszero\n        /* \"contracts/Lab3_Ballot_FX17394.sol\":4753:4758  voter */\n      dup2\n        /* \"contracts/Lab3_Ballot_FX17394.sol\":4753:4764  voter.voted */\n      0x01\n      add\n      0x00\n      swap1\n      sload\n      swap1\n      0x0100\n      exp\n      swap1\n      div\n      0xff\n      and\n        /* \"contracts/Lab3_Ballot_FX17394.sol\":4753:4771  voter.voted==false */\n      iszero\n      iszero\n      eq\n        /* \"contracts/Lab3_Ballot_FX17394.sol\":4745:4794  require(voter.voted==false, \"You already voted.\") */\n      tag_31\n      jumpi\n      mload(0x40)\n      0x08c379a000000000000000000000000000000000000000000000000000000000\n      dup2\n      mstore\n      0x04\n      add\n      tag_32\n      swap1\n      tag_33\n      jump\t// in\n    tag_32:\n      mload(0x40)\n      dup1\n      swap2\n      sub\n      swap1\n      revert\n    tag_31:\n        /* \"contracts/Lab3_Ballot_FX17394.sol\":4877:4881  true */\n      0x01\n        /* \"contracts/Lab3_Ballot_FX17394.sol\":4863:4868  voter */\n      dup2\n        /* \"contracts/Lab3_Ballot_FX17394.sol\":4863:4874  voter.voted */\n      0x01\n      add\n      0x00\n        /* \"contracts/Lab3_Ballot_FX17394.sol\":4863:4881  voter.voted = true */\n      0x0100\n      exp\n      dup2\n      sload\n      dup2\n      0xff\n      mul\n      not\n      and\n      swap1\n      dup4\n      iszero\n      iszero\n      mul\n      or\n      swap1\n      sstore\n      pop\n        /* \"contracts/Lab3_Ballot_FX17394.sol\":4905:4913  proposal */\n      dup2\n        /* \"contracts/Lab3_Ballot_FX17394.sol\":4892:4897  voter */\n      dup2\n        /* \"contracts/Lab3_Ballot_FX17394.sol\":4892:4902  voter.vote */\n      0x02\n      add\n        /* \"contracts/Lab3_Ballot_FX17394.sol\":4892:4913  voter.vote = proposal */\n      dup2\n      swap1\n      sstore\n      pop\n        /* \"contracts/Lab3_Ballot_FX17394.sol\":5002:5007  voter */\n      dup1\n        /* \"contracts/Lab3_Ballot_FX17394.sol\":5002:5014  voter.weight */\n      0x00\n      add\n      sload\n        /* \"contracts/Lab3_Ballot_FX17394.sol\":4969:4978  proposals */\n      0x02\n        /* \"contracts/Lab3_Ballot_FX17394.sol\":4979:4987  proposal */\n      dup4\n        /* \"contracts/Lab3_Ballot_FX17394.sol\":4969:4988  proposals[proposal] */\n      dup2\n      sload\n      dup2\n      lt\n      tag_34\n      jumpi\n      tag_35\n      tag_36\n      jump\t// in\n    tag_35:\n    tag_34:\n      swap1\n      0x00\n      mstore\n      keccak256(0x00, 0x20)\n      swap1\n      0x02\n      mul\n      add\n        /* \"contracts/Lab3_Ballot_FX17394.sol\":4969:4998  proposals[proposal].voteCount */\n      0x01\n      add\n      0x00\n        /* \"contracts/Lab3_Ballot_FX17394.sol\":4969:5014  proposals[proposal].voteCount += voter.weight */\n      dup3\n      dup3\n      sload\n      tag_38\n      swap2\n      swap1\n      tag_39\n      jump\t// in\n    tag_38:\n      swap3\n      pop\n      pop\n      dup2\n      swap1\n      sstore\n      pop\n        /* \"contracts/Lab3_Ballot_FX17394.sol\":4483:5022  {... */\n      pop\n        /* \"contracts/Lab3_Ballot_FX17394.sol\":4448:5022  function vote(uint proposal) public{... */\n      pop\n      jump\t// out\n        /* \"contracts/Lab3_Ballot_FX17394.sol\":2975:4403  function delegate(address to) public{... */\n    tag_15:\n        /* \"contracts/Lab3_Ballot_FX17394.sol\":3090:3110  Voter storage sender */\n      0x00\n        /* \"contracts/Lab3_Ballot_FX17394.sol\":3113:3119  voters */\n      0x01\n        /* \"contracts/Lab3_Ballot_FX17394.sol\":3113:3131  voters[msg.sender] */\n      0x00\n        /* \"contracts/Lab3_Ballot_FX17394.sol\":3120:3130  msg.sender */\n      caller\n        /* \"contracts/Lab3_Ballot_FX17394.sol\":3113:3131  voters[msg.sender] */\n      0xffffffffffffffffffffffffffffffffffffffff\n      and\n      0xffffffffffffffffffffffffffffffffffffffff\n      and\n      dup2\n      mstore\n      0x20\n      add\n      swap1\n      dup2\n      mstore\n      0x20\n      add\n      0x00\n      keccak256\n        /* \"contracts/Lab3_Ballot_FX17394.sol\":3090:3131  Voter storage sender = voters[msg.sender] */\n      swap1\n      pop\n        /* \"contracts/Lab3_Ballot_FX17394.sol\":3223:3228  false */\n      0x00\n        /* \"contracts/Lab3_Ballot_FX17394.sol\":3209:3228  sender.voted==false */\n      iszero\n      iszero\n        /* \"contracts/Lab3_Ballot_FX17394.sol\":3209:3215  sender */\n      dup2\n        /* \"contracts/Lab3_Ballot_FX17394.sol\":3209:3221  sender.voted */\n      0x01\n      add\n      0x00\n      swap1\n      sload\n      swap1\n      0x0100\n      exp\n      swap1\n      div\n      0xff\n      and\n        /* \"contracts/Lab3_Ballot_FX17394.sol\":3209:3228  sender.voted==false */\n      iszero\n      iszero\n      eq\n        /* \"contracts/Lab3_Ballot_FX17394.sol\":3201:3251  require(sender.voted==false, \"You already voted.\") */\n      tag_41\n      jumpi\n      mload(0x40)\n      0x08c379a000000000000000000000000000000000000000000000000000000000\n      dup2\n      mstore\n      0x04\n      add\n      tag_42\n      swap1\n      tag_33\n      jump\t// in\n    tag_42:\n      mload(0x40)\n      dup1\n      swap2\n      sub\n      swap1\n      revert\n    tag_41:\n        /* \"contracts/Lab3_Ballot_FX17394.sol\":3350:3360  msg.sender */\n      caller\n        /* \"contracts/Lab3_Ballot_FX17394.sol\":3344:3360  to != msg.sender */\n      0xffffffffffffffffffffffffffffffffffffffff\n      and\n        /* \"contracts/Lab3_Ballot_FX17394.sol\":3344:3346  to */\n      dup3\n        /* \"contracts/Lab3_Ballot_FX17394.sol\":3344:3360  to != msg.sender */\n      0xffffffffffffffffffffffffffffffffffffffff\n      and\n      sub\n        /* \"contracts/Lab3_Ballot_FX17394.sol\":3336:3395  require(to != msg.sender,\"Self-delegate is not disalowed.\") */\n      tag_43\n      jumpi\n      mload(0x40)\n      0x08c379a000000000000000000000000000000000000000000000000000000000\n      dup2\n      mstore\n      0x04\n      add\n      tag_44\n      swap1\n      tag_45\n      jump\t// in\n    tag_44:\n      mload(0x40)\n      dup1\n      swap2\n      sub\n      swap1\n      revert\n    tag_43:\n        /* \"contracts/Lab3_Ballot_FX17394.sol\":3529:3697  while(voters[to].delegate != address(0)){... */\n    tag_46:\n        /* \"contracts/Lab3_Ballot_FX17394.sol\":3566:3567  0 */\n      0x00\n        /* \"contracts/Lab3_Ballot_FX17394.sol\":3535:3568  voters[to].delegate != address(0) */\n      0xffffffffffffffffffffffffffffffffffffffff\n      and\n        /* \"contracts/Lab3_Ballot_FX17394.sol\":3535:3541  voters */\n      0x01\n        /* \"contracts/Lab3_Ballot_FX17394.sol\":3535:3545  voters[to] */\n      0x00\n        /* \"contracts/Lab3_Ballot_FX17394.sol\":3542:3544  to */\n      dup5\n        /* \"contracts/Lab3_Ballot_FX17394.sol\":3535:3545  voters[to] */\n      0xffffffffffffffffffffffffffffffffffffffff\n      and\n      0xffffffffffffffffffffffffffffffffffffffff\n      and\n      dup2\n      mstore\n      0x20\n      add\n      swap1\n      dup2\n      mstore\n      0x20\n      add\n      0x00\n      keccak256\n        /* \"contracts/Lab3_Ballot_FX17394.sol\":3535:3554  voters[to].delegate */\n      0x01\n      add\n      0x01\n      swap1\n      sload\n      swap1\n      0x0100\n      exp\n      swap1\n      div\n      0xffffffffffffffffffffffffffffffffffffffff\n      and\n        /* \"contracts/Lab3_Ballot_FX17394.sol\":3535:3568  voters[to].delegate != address(0) */\n      0xffffffffffffffffffffffffffffffffffffffff\n      and\n      eq\n        /* \"contracts/Lab3_Ballot_FX17394.sol\":3529:3697  while(voters[to].delegate != address(0)){... */\n      tag_47\n      jumpi\n        /* \"contracts/Lab3_Ballot_FX17394.sol\":3589:3595  voters */\n      0x01\n        /* \"contracts/Lab3_Ballot_FX17394.sol\":3589:3599  voters[to] */\n      0x00\n        /* \"contracts/Lab3_Ballot_FX17394.sol\":3596:3598  to */\n      dup4\n        /* \"contracts/Lab3_Ballot_FX17394.sol\":3589:3599  voters[to] */\n      0xffffffffffffffffffffffffffffffffffffffff\n      and\n      0xffffffffffffffffffffffffffffffffffffffff\n      and\n      dup2\n      mstore\n      0x20\n      add\n      swap1\n      dup2\n      mstore\n      0x20\n      add\n      0x00\n      keccak256\n        /* \"contracts/Lab3_Ballot_FX17394.sol\":3589:3608  voters[to].delegate */\n      0x01\n      add\n      0x01\n      swap1\n      sload\n      swap1\n      0x0100\n      exp\n      swap1\n      div\n      0xffffffffffffffffffffffffffffffffffffffff\n      and\n        /* \"contracts/Lab3_Ballot_FX17394.sol\":3584:3608  to = voters[to].delegate */\n      swap2\n      pop\n        /* \"contracts/Lab3_Ballot_FX17394.sol\":3636:3646  msg.sender */\n      caller\n        /* \"contracts/Lab3_Ballot_FX17394.sol\":3631:3646  to !=msg.sender */\n      0xffffffffffffffffffffffffffffffffffffffff\n      and\n        /* \"contracts/Lab3_Ballot_FX17394.sol\":3631:3633  to */\n      dup3\n        /* \"contracts/Lab3_Ballot_FX17394.sol\":3631:3646  to !=msg.sender */\n      0xffffffffffffffffffffffffffffffffffffffff\n      and\n      sub\n        /* \"contracts/Lab3_Ballot_FX17394.sol\":3623:3685  require(to !=msg.sender, \"You are delegated from order voter\") */\n      tag_48\n      jumpi\n      mload(0x40)\n      0x08c379a000000000000000000000000000000000000000000000000000000000\n      dup2\n      mstore\n      0x04\n      add\n      tag_49\n      swap1\n      tag_50\n      jump\t// in\n    tag_49:\n      mload(0x40)\n      dup1\n      swap2\n      sub\n      swap1\n      revert\n    tag_48:\n        /* \"contracts/Lab3_Ballot_FX17394.sol\":3529:3697  while(voters[to].delegate != address(0)){... */\n      jump(tag_46)\n    tag_47:\n        /* \"contracts/Lab3_Ballot_FX17394.sol\":3786:3790  true */\n      0x01\n        /* \"contracts/Lab3_Ballot_FX17394.sol\":3773:3779  sender */\n      dup2\n        /* \"contracts/Lab3_Ballot_FX17394.sol\":3773:3785  sender.voted */\n      0x01\n      add\n      0x00\n        /* \"contracts/Lab3_Ballot_FX17394.sol\":3773:3790  sender.voted=true */\n      0x0100\n      exp\n      dup2\n      sload\n      dup2\n      0xff\n      mul\n      not\n      and\n      swap1\n      dup4\n      iszero\n      iszero\n      mul\n      or\n      swap1\n      sstore\n      pop\n        /* \"contracts/Lab3_Ballot_FX17394.sol\":3817:3819  to */\n      dup2\n        /* \"contracts/Lab3_Ballot_FX17394.sol\":3801:3807  sender */\n      dup2\n        /* \"contracts/Lab3_Ballot_FX17394.sol\":3801:3816  sender.delegate */\n      0x01\n      add\n      0x01\n        /* \"contracts/Lab3_Ballot_FX17394.sol\":3801:3819  sender.delegate=to */\n      0x0100\n      exp\n      dup2\n      sload\n      dup2\n      0xffffffffffffffffffffffffffffffffffffffff\n      mul\n      not\n      and\n      swap1\n      dup4\n      0xffffffffffffffffffffffffffffffffffffffff\n      and\n      mul\n      or\n      swap1\n      sstore\n      pop\n        /* \"contracts/Lab3_Ballot_FX17394.sol\":3904:3928  Voter storage delegated_ */\n      0x00\n        /* \"contracts/Lab3_Ballot_FX17394.sol\":3931:3937  voters */\n      0x01\n        /* \"contracts/Lab3_Ballot_FX17394.sol\":3931:3941  voters[to] */\n      0x00\n        /* \"contracts/Lab3_Ballot_FX17394.sol\":3938:3940  to */\n      dup5\n        /* \"contracts/Lab3_Ballot_FX17394.sol\":3931:3941  voters[to] */\n      0xffffffffffffffffffffffffffffffffffffffff\n      and\n      0xffffffffffffffffffffffffffffffffffffffff\n      and\n      dup2\n      mstore\n      0x20\n      add\n      swap1\n      dup2\n      mstore\n      0x20\n      add\n      0x00\n      keccak256\n        /* \"contracts/Lab3_Ballot_FX17394.sol\":3904:3941  Voter storage delegated_ = voters[to] */\n      swap1\n      pop\n        /* \"contracts/Lab3_Ballot_FX17394.sol\":3975:3979  true */\n      0x01\n        /* \"contracts/Lab3_Ballot_FX17394.sol\":3955:3979  delegated_.voted == true */\n      iszero\n      iszero\n        /* \"contracts/Lab3_Ballot_FX17394.sol\":3955:3965  delegated_ */\n      dup2\n        /* \"contracts/Lab3_Ballot_FX17394.sol\":3955:3971  delegated_.voted */\n      0x01\n      add\n      0x00\n      swap1\n      sload\n      swap1\n      0x0100\n      exp\n      swap1\n      div\n      0xff\n      and\n        /* \"contracts/Lab3_Ballot_FX17394.sol\":3955:3979  delegated_.voted == true */\n      iszero\n      iszero\n      sub\n        /* \"contracts/Lab3_Ballot_FX17394.sol\":3952:4396  if(delegated_.voted == true){ // Nếu người được ủy quyền đã vote... */\n      tag_51\n      jumpi\n        /* \"contracts/Lab3_Ballot_FX17394.sol\":4183:4189  sender */\n      dup2\n        /* \"contracts/Lab3_Ballot_FX17394.sol\":4183:4196  sender.weight */\n      0x00\n      add\n      sload\n        /* \"contracts/Lab3_Ballot_FX17394.sol\":4143:4152  proposals */\n      0x02\n        /* \"contracts/Lab3_Ballot_FX17394.sol\":4153:4163  delegated_ */\n      dup3\n        /* \"contracts/Lab3_Ballot_FX17394.sol\":4153:4168  delegated_.vote */\n      0x02\n      add\n      sload\n        /* \"contracts/Lab3_Ballot_FX17394.sol\":4143:4169  proposals[delegated_.vote] */\n      dup2\n      sload\n      dup2\n      lt\n      tag_52\n      jumpi\n      tag_53\n      tag_36\n      jump\t// in\n    tag_53:\n    tag_52:\n      swap1\n      0x00\n      mstore\n      keccak256(0x00, 0x20)\n      swap1\n      0x02\n      mul\n      add\n        /* \"contracts/Lab3_Ballot_FX17394.sol\":4143:4179  proposals[delegated_.vote].voteCount */\n      0x01\n      add\n      0x00\n        /* \"contracts/Lab3_Ballot_FX17394.sol\":4143:4196  proposals[delegated_.vote].voteCount += sender.weight */\n      dup3\n      dup3\n      sload\n      tag_55\n      swap2\n      swap1\n      tag_39\n      jump\t// in\n    tag_55:\n      swap3\n      pop\n      pop\n      dup2\n      swap1\n      sstore\n      pop\n        /* \"contracts/Lab3_Ballot_FX17394.sol\":3952:4396  if(delegated_.voted == true){ // Nếu người được ủy quyền đã vote... */\n      jump(tag_56)\n    tag_51:\n        /* \"contracts/Lab3_Ballot_FX17394.sol\":4371:4377  sender */\n      dup2\n        /* \"contracts/Lab3_Ballot_FX17394.sol\":4371:4384  sender.weight */\n      0x00\n      add\n      sload\n        /* \"contracts/Lab3_Ballot_FX17394.sol\":4350:4360  delegated_ */\n      dup2\n        /* \"contracts/Lab3_Ballot_FX17394.sol\":4350:4367  delegated_.weight */\n      0x00\n      add\n      0x00\n        /* \"contracts/Lab3_Ballot_FX17394.sol\":4350:4384  delegated_.weight += sender.weight */\n      dup3\n      dup3\n      sload\n      tag_57\n      swap2\n      swap1\n      tag_39\n      jump\t// in\n    tag_57:\n      swap3\n      pop\n      pop\n      dup2\n      swap1\n      sstore\n      pop\n        /* \"contracts/Lab3_Ballot_FX17394.sol\":3952:4396  if(delegated_.voted == true){ // Nếu người được ủy quyền đã vote... */\n    tag_56:\n        /* \"contracts/Lab3_Ballot_FX17394.sol\":3011:4403  {... */\n      pop\n      pop\n        /* \"contracts/Lab3_Ballot_FX17394.sol\":2975:4403  function delegate(address to) public{... */\n      pop\n      jump\t// out\n        /* \"contracts/Lab3_Ballot_FX17394.sol\":5069:5396  function winningProposal() public view returns (uint winningProposal_){        ... */\n    tag_17:\n        /* \"contracts/Lab3_Ballot_FX17394.sol\":5117:5138  uint winningProposal_ */\n      0x00\n        /* \"contracts/Lab3_Ballot_FX17394.sol\":5158:5170  uint voteMax */\n      dup1\n        /* \"contracts/Lab3_Ballot_FX17394.sol\":5173:5174  0 */\n      0x00\n        /* \"contracts/Lab3_Ballot_FX17394.sol\":5158:5174  uint voteMax = 0 */\n      swap1\n      pop\n        /* \"contracts/Lab3_Ballot_FX17394.sol\":5189:5195  uint i */\n      0x00\n        /* \"contracts/Lab3_Ballot_FX17394.sol\":5185:5389  for(uint i=0; i<proposals.length; i++){... */\n    tag_59:\n        /* \"contracts/Lab3_Ballot_FX17394.sol\":5201:5210  proposals */\n      0x02\n        /* \"contracts/Lab3_Ballot_FX17394.sol\":5201:5217  proposals.length */\n      dup1\n      sload\n      swap1\n      pop\n        /* \"contracts/Lab3_Ballot_FX17394.sol\":5199:5200  i */\n      dup2\n        /* \"contracts/Lab3_Ballot_FX17394.sol\":5199:5217  i<proposals.length */\n      lt\n        /* \"contracts/Lab3_Ballot_FX17394.sol\":5185:5389  for(uint i=0; i<proposals.length; i++){... */\n      iszero\n      tag_60\n      jumpi\n        /* \"contracts/Lab3_Ballot_FX17394.sol\":5264:5271  voteMax */\n      dup2\n        /* \"contracts/Lab3_Ballot_FX17394.sol\":5241:5250  proposals */\n      0x02\n        /* \"contracts/Lab3_Ballot_FX17394.sol\":5251:5252  i */\n      dup3\n        /* \"contracts/Lab3_Ballot_FX17394.sol\":5241:5253  proposals[i] */\n      dup2\n      sload\n      dup2\n      lt\n      tag_62\n      jumpi\n      tag_63\n      tag_36\n      jump\t// in\n    tag_63:\n    tag_62:\n      swap1\n      0x00\n      mstore\n      keccak256(0x00, 0x20)\n      swap1\n      0x02\n      mul\n      add\n        /* \"contracts/Lab3_Ballot_FX17394.sol\":5241:5263  proposals[i].voteCount */\n      0x01\n      add\n      sload\n        /* \"contracts/Lab3_Ballot_FX17394.sol\":5241:5271  proposals[i].voteCount>voteMax */\n      gt\n        /* \"contracts/Lab3_Ballot_FX17394.sol\":5238:5378  if(proposals[i].voteCount>voteMax){... */\n      iszero\n      tag_65\n      jumpi\n        /* \"contracts/Lab3_Ballot_FX17394.sol\":5301:5310  proposals */\n      0x02\n        /* \"contracts/Lab3_Ballot_FX17394.sol\":5311:5312  i */\n      dup2\n        /* \"contracts/Lab3_Ballot_FX17394.sol\":5301:5313  proposals[i] */\n      dup2\n      sload\n      dup2\n      lt\n      tag_66\n      jumpi\n      tag_67\n      tag_36\n      jump\t// in\n    tag_67:\n    tag_66:\n      swap1\n      0x00\n      mstore\n      keccak256(0x00, 0x20)\n      swap1\n      0x02\n      mul\n      add\n        /* \"contracts/Lab3_Ballot_FX17394.sol\":5301:5323  proposals[i].voteCount */\n      0x01\n      add\n      sload\n        /* \"contracts/Lab3_Ballot_FX17394.sol\":5291:5323  voteMax = proposals[i].voteCount */\n      swap2\n      pop\n        /* \"contracts/Lab3_Ballot_FX17394.sol\":5361:5362  i */\n      dup1\n        /* \"contracts/Lab3_Ballot_FX17394.sol\":5342:5362  winningProposal_ = i */\n      swap3\n      pop\n        /* \"contracts/Lab3_Ballot_FX17394.sol\":5238:5378  if(proposals[i].voteCount>voteMax){... */\n    tag_65:\n        /* \"contracts/Lab3_Ballot_FX17394.sol\":5219:5222  i++ */\n      dup1\n      dup1\n      tag_69\n      swap1\n      tag_70\n      jump\t// in\n    tag_69:\n      swap2\n      pop\n      pop\n        /* \"contracts/Lab3_Ballot_FX17394.sol\":5185:5389  for(uint i=0; i<proposals.length; i++){... */\n      jump(tag_59)\n    tag_60:\n      pop\n        /* \"contracts/Lab3_Ballot_FX17394.sol\":5139:5396  {        ... */\n      pop\n        /* \"contracts/Lab3_Ballot_FX17394.sol\":5069:5396  function winningProposal() public view returns (uint winningProposal_){        ... */\n      swap1\n      jump\t// out\n        /* \"contracts/Lab3_Ballot_FX17394.sol\":2213:2917  function giveRightToVote(address voter) public{... */\n    tag_22:\n        /* \"contracts/Lab3_Ballot_FX17394.sol\":2461:2472  chairPerson */\n      0x00\n      dup1\n      sload\n      swap1\n      0x0100\n      exp\n      swap1\n      div\n      0xffffffffffffffffffffffffffffffffffffffff\n      and\n        /* \"contracts/Lab3_Ballot_FX17394.sol\":2447:2472  msg.sender == chairPerson */\n      0xffffffffffffffffffffffffffffffffffffffff\n      and\n        /* \"contracts/Lab3_Ballot_FX17394.sol\":2447:2457  msg.sender */\n      caller\n        /* \"contracts/Lab3_Ballot_FX17394.sol\":2447:2472  msg.sender == chairPerson */\n      0xffffffffffffffffffffffffffffffffffffffff\n      and\n      eq\n        /* \"contracts/Lab3_Ballot_FX17394.sol\":2439:2517  require(msg.sender == chairPerson, \"Only chairPerson can give right to vote.\") */\n      tag_72\n      jumpi\n      mload(0x40)\n      0x08c379a000000000000000000000000000000000000000000000000000000000\n      dup2\n      mstore\n      0x04\n      add\n      tag_73\n      swap1\n      tag_74\n      jump\t// in\n    tag_73:\n      mload(0x40)\n      dup1\n      swap2\n      sub\n      swap1\n      revert\n    tag_72:\n        /* \"contracts/Lab3_Ballot_FX17394.sol\":2612:2617  false */\n      0x00\n        /* \"contracts/Lab3_Ballot_FX17394.sol\":2589:2617  voters[voter].voted == false */\n      iszero\n      iszero\n        /* \"contracts/Lab3_Ballot_FX17394.sol\":2589:2595  voters */\n      0x01\n        /* \"contracts/Lab3_Ballot_FX17394.sol\":2589:2602  voters[voter] */\n      0x00\n        /* \"contracts/Lab3_Ballot_FX17394.sol\":2596:2601  voter */\n      dup4\n        /* \"contracts/Lab3_Ballot_FX17394.sol\":2589:2602  voters[voter] */\n      0xffffffffffffffffffffffffffffffffffffffff\n      and\n      0xffffffffffffffffffffffffffffffffffffffff\n      and\n      dup2\n      mstore\n      0x20\n      add\n      swap1\n      dup2\n      mstore\n      0x20\n      add\n      0x00\n      keccak256\n        /* \"contracts/Lab3_Ballot_FX17394.sol\":2589:2608  voters[voter].voted */\n      0x01\n      add\n      0x00\n      swap1\n      sload\n      swap1\n      0x0100\n      exp\n      swap1\n      div\n      0xff\n      and\n        /* \"contracts/Lab3_Ballot_FX17394.sol\":2589:2617  voters[voter].voted == false */\n      iszero\n      iszero\n      eq\n        /* \"contracts/Lab3_Ballot_FX17394.sol\":2581:2648  require(voters[voter].voted == false,\"The voter is already voted.\") */\n      tag_75\n      jumpi\n      mload(0x40)\n      0x08c379a000000000000000000000000000000000000000000000000000000000\n      dup2\n      mstore\n      0x04\n      add\n      tag_76\n      swap1\n      tag_77\n      jump\t// in\n    tag_76:\n      mload(0x40)\n      dup1\n      swap2\n      sub\n      swap1\n      revert\n    tag_75:\n        /* \"contracts/Lab3_Ballot_FX17394.sol\":2763:2764  0 */\n      0x00\n        /* \"contracts/Lab3_Ballot_FX17394.sol\":2739:2745  voters */\n      0x01\n        /* \"contracts/Lab3_Ballot_FX17394.sol\":2739:2752  voters[voter] */\n      0x00\n        /* \"contracts/Lab3_Ballot_FX17394.sol\":2746:2751  voter */\n      dup4\n        /* \"contracts/Lab3_Ballot_FX17394.sol\":2739:2752  voters[voter] */\n      0xffffffffffffffffffffffffffffffffffffffff\n      and\n      0xffffffffffffffffffffffffffffffffffffffff\n      and\n      dup2\n      mstore\n      0x20\n      add\n      swap1\n      dup2\n      mstore\n      0x20\n      add\n      0x00\n      keccak256\n        /* \"contracts/Lab3_Ballot_FX17394.sol\":2739:2759  voters[voter].weight */\n      0x00\n      add\n      sload\n        /* \"contracts/Lab3_Ballot_FX17394.sol\":2739:2764  voters[voter].weight == 0 */\n      eq\n        /* \"contracts/Lab3_Ballot_FX17394.sol\":2731:2765  require(voters[voter].weight == 0) */\n      tag_78\n      jumpi\n      0x00\n      dup1\n      revert\n    tag_78:\n        /* \"contracts/Lab3_Ballot_FX17394.sol\":2841:2842  1 */\n      0x01\n        /* \"contracts/Lab3_Ballot_FX17394.sol\":2820:2826  voters */\n      dup1\n        /* \"contracts/Lab3_Ballot_FX17394.sol\":2820:2833  voters[voter] */\n      0x00\n        /* \"contracts/Lab3_Ballot_FX17394.sol\":2827:2832  voter */\n      dup4\n        /* \"contracts/Lab3_Ballot_FX17394.sol\":2820:2833  voters[voter] */\n      0xffffffffffffffffffffffffffffffffffffffff\n      and\n      0xffffffffffffffffffffffffffffffffffffffff\n      and\n      dup2\n      mstore\n      0x20\n      add\n      swap1\n      dup2\n      mstore\n      0x20\n      add\n      0x00\n      keccak256\n        /* \"contracts/Lab3_Ballot_FX17394.sol\":2820:2840  voters[voter].weight */\n      0x00\n      add\n        /* \"contracts/Lab3_Ballot_FX17394.sol\":2820:2842  voters[voter].weight=1 */\n      dup2\n      swap1\n      sstore\n      pop\n        /* \"contracts/Lab3_Ballot_FX17394.sol\":2872:2873  0 */\n      0x00\n        /* \"contracts/Lab3_Ballot_FX17394.sol\":2853:2859  voters */\n      0x01\n        /* \"contracts/Lab3_Ballot_FX17394.sol\":2853:2866  voters[voter] */\n      0x00\n        /* \"contracts/Lab3_Ballot_FX17394.sol\":2860:2865  voter */\n      dup4\n        /* \"contracts/Lab3_Ballot_FX17394.sol\":2853:2866  voters[voter] */\n      0xffffffffffffffffffffffffffffffffffffffff\n      and\n      0xffffffffffffffffffffffffffffffffffffffff\n      and\n      dup2\n      mstore\n      0x20\n      add\n      swap1\n      dup2\n      mstore\n      0x20\n      add\n      0x00\n      keccak256\n        /* \"contracts/Lab3_Ballot_FX17394.sol\":2853:2871  voters[voter].vote */\n      0x02\n      add\n        /* \"contracts/Lab3_Ballot_FX17394.sol\":2853:2873  voters[voter].vote=0 */\n      dup2\n      swap1\n      sstore\n      pop\n        /* \"contracts/Lab3_Ballot_FX17394.sol\":2904:2909  false */\n      0x00\n        /* \"contracts/Lab3_Ballot_FX17394.sol\":2884:2890  voters */\n      0x01\n        /* \"contracts/Lab3_Ballot_FX17394.sol\":2884:2897  voters[voter] */\n      0x00\n        /* \"contracts/Lab3_Ballot_FX17394.sol\":2891:2896  voter */\n      dup4\n        /* \"contracts/Lab3_Ballot_FX17394.sol\":2884:2897  voters[voter] */\n      0xffffffffffffffffffffffffffffffffffffffff\n      and\n      0xffffffffffffffffffffffffffffffffffffffff\n      and\n      dup2\n      mstore\n      0x20\n      add\n      swap1\n      dup2\n      mstore\n      0x20\n      add\n      0x00\n      keccak256\n        /* \"contracts/Lab3_Ballot_FX17394.sol\":2884:2903  voters[voter].voted */\n      0x01\n      add\n      0x00\n        /* \"contracts/Lab3_Ballot_FX17394.sol\":2884:2909  voters[voter].voted=false */\n      0x0100\n      exp\n      dup2\n      sload\n      dup2\n      0xff\n      mul\n      not\n      and\n      swap1\n      dup4\n      iszero\n      iszero\n      mul\n      or\n      swap1\n      sstore\n      pop\n        /* \"contracts/Lab3_Ballot_FX17394.sol\":2213:2917  function giveRightToVote(address voter) public{... */\n      pop\n      jump\t// out\n        /* \"contracts/Lab3_Ballot_FX17394.sol\":5467:5577  function winnerName() public view returns (bytes32){... */\n    tag_24:\n        /* \"contracts/Lab3_Ballot_FX17394.sol\":5510:5517  bytes32 */\n      0x00\n        /* \"contracts/Lab3_Ballot_FX17394.sol\":5536:5545  proposals */\n      0x02\n        /* \"contracts/Lab3_Ballot_FX17394.sol\":5546:5563  winningProposal() */\n      tag_80\n        /* \"contracts/Lab3_Ballot_FX17394.sol\":5546:5561  winningProposal */\n      tag_17\n        /* \"contracts/Lab3_Ballot_FX17394.sol\":5546:5563  winningProposal() */\n      jump\t// in\n    tag_80:\n        /* \"contracts/Lab3_Ballot_FX17394.sol\":5536:5564  proposals[winningProposal()] */\n      dup2\n      sload\n      dup2\n      lt\n      tag_81\n      jumpi\n      tag_82\n      tag_36\n      jump\t// in\n    tag_82:\n    tag_81:\n      swap1\n      0x00\n      mstore\n      keccak256(0x00, 0x20)\n      swap1\n      0x02\n      mul\n      add\n        /* \"contracts/Lab3_Ballot_FX17394.sol\":5536:5569  proposals[winningProposal()].name */\n      0x00\n      add\n      sload\n        /* \"contracts/Lab3_Ballot_FX17394.sol\":5529:5569  return proposals[winningProposal()].name */\n      swap1\n      pop\n        /* \"contracts/Lab3_Ballot_FX17394.sol\":5467:5577  function winnerName() public view returns (bytes32){... */\n      swap1\n      jump\t// out\n        /* \"#utility.yul\":88:205   */\n    tag_85:\n        /* \"#utility.yul\":197:198   */\n      0x00\n        /* \"#utility.yul\":194:195   */\n      dup1\n        /* \"#utility.yul\":187:199   */\n      revert\n        /* \"#utility.yul\":334:411   */\n    tag_87:\n        /* \"#utility.yul\":371:378   */\n      0x00\n        /* \"#utility.yul\":400:405   */\n      dup2\n        /* \"#utility.yul\":389:405   */\n      swap1\n      pop\n        /* \"#utility.yul\":334:411   */\n      swap2\n      swap1\n      pop\n      jump\t// out\n        /* \"#utility.yul\":417:539   */\n    tag_88:\n        /* \"#utility.yul\":490:514   */\n      tag_117\n        /* \"#utility.yul\":508:513   */\n      dup2\n        /* \"#utility.yul\":490:514   */\n      tag_87\n      jump\t// in\n    tag_117:\n        /* \"#utility.yul\":483:488   */\n      dup2\n        /* \"#utility.yul\":480:515   */\n      eq\n        /* \"#utility.yul\":470:533   */\n      tag_118\n      jumpi\n        /* \"#utility.yul\":529:530   */\n      0x00\n        /* \"#utility.yul\":526:527   */\n      dup1\n        /* \"#utility.yul\":519:531   */\n      revert\n        /* \"#utility.yul\":470:533   */\n    tag_118:\n        /* \"#utility.yul\":417:539   */\n      pop\n      jump\t// out\n        /* \"#utility.yul\":545:684   */\n    tag_89:\n        /* \"#utility.yul\":591:596   */\n      0x00\n        /* \"#utility.yul\":629:635   */\n      dup2\n        /* \"#utility.yul\":616:636   */\n      calldataload\n        /* \"#utility.yul\":607:636   */\n      swap1\n      pop\n        /* \"#utility.yul\":645:678   */\n      tag_120\n        /* \"#utility.yul\":672:677   */\n      dup2\n        /* \"#utility.yul\":645:678   */\n      tag_88\n      jump\t// in\n    tag_120:\n        /* \"#utility.yul\":545:684   */\n      swap3\n      swap2\n      pop\n      pop\n      jump\t// out\n        /* \"#utility.yul\":690:1019   */\n    tag_10:\n        /* \"#utility.yul\":749:755   */\n      0x00\n        /* \"#utility.yul\":798:800   */\n      0x20\n        /* \"#utility.yul\":786:795   */\n      dup3\n        /* \"#utility.yul\":777:784   */\n      dup5\n        /* \"#utility.yul\":773:796   */\n      sub\n        /* \"#utility.yul\":769:801   */\n      slt\n        /* \"#utility.yul\":766:885   */\n      iszero\n      tag_122\n      jumpi\n        /* \"#utility.yul\":804:883   */\n      tag_123\n      tag_85\n      jump\t// in\n    tag_123:\n        /* \"#utility.yul\":766:885   */\n    tag_122:\n        /* \"#utility.yul\":924:925   */\n      0x00\n        /* \"#utility.yul\":949:1002   */\n      tag_124\n        /* \"#utility.yul\":994:1001   */\n      dup5\n        /* \"#utility.yul\":985:991   */\n      dup3\n        /* \"#utility.yul\":974:983   */\n      dup6\n        /* \"#utility.yul\":970:992   */\n      add\n        /* \"#utility.yul\":949:1002   */\n      tag_89\n      jump\t// in\n    tag_124:\n        /* \"#utility.yul\":939:1002   */\n      swap2\n      pop\n        /* \"#utility.yul\":895:1012   */\n      pop\n        /* \"#utility.yul\":690:1019   */\n      swap3\n      swap2\n      pop\n      pop\n      jump\t// out\n        /* \"#utility.yul\":1025:1151   */\n    tag_90:\n        /* \"#utility.yul\":1062:1069   */\n      0x00\n        /* \"#utility.yul\":1102:1144   */\n      0xffffffffffffffffffffffffffffffffffffffff\n        /* \"#utility.yul\":1095:1100   */\n      dup3\n        /* \"#utility.yul\":1091:1145   */\n      and\n        /* \"#utility.yul\":1080:1145   */\n      swap1\n      pop\n        /* \"#utility.yul\":1025:1151   */\n      swap2\n      swap1\n      pop\n      jump\t// out\n        /* \"#utility.yul\":1157:1253   */\n    tag_91:\n        /* \"#utility.yul\":1194:1201   */\n      0x00\n        /* \"#utility.yul\":1223:1247   */\n      tag_127\n        /* \"#utility.yul\":1241:1246   */\n      dup3\n        /* \"#utility.yul\":1223:1247   */\n      tag_90\n      jump\t// in\n    tag_127:\n        /* \"#utility.yul\":1212:1247   */\n      swap1\n      pop\n        /* \"#utility.yul\":1157:1253   */\n      swap2\n      swap1\n      pop\n      jump\t// out\n        /* \"#utility.yul\":1259:1381   */\n    tag_92:\n        /* \"#utility.yul\":1332:1356   */\n      tag_129\n        /* \"#utility.yul\":1350:1355   */\n      dup2\n        /* \"#utility.yul\":1332:1356   */\n      tag_91\n      jump\t// in\n    tag_129:\n        /* \"#utility.yul\":1325:1330   */\n      dup2\n        /* \"#utility.yul\":1322:1357   */\n      eq\n        /* \"#utility.yul\":1312:1375   */\n      tag_130\n      jumpi\n        /* \"#utility.yul\":1371:1372   */\n      0x00\n        /* \"#utility.yul\":1368:1369   */\n      dup1\n        /* \"#utility.yul\":1361:1373   */\n      revert\n        /* \"#utility.yul\":1312:1375   */\n    tag_130:\n        /* \"#utility.yul\":1259:1381   */\n      pop\n      jump\t// out\n        /* \"#utility.yul\":1387:1526   */\n    tag_93:\n        /* \"#utility.yul\":1433:1438   */\n      0x00\n        /* \"#utility.yul\":1471:1477   */\n      dup2\n        /* \"#utility.yul\":1458:1478   */\n      calldataload\n        /* \"#utility.yul\":1449:1478   */\n      swap1\n      pop\n        /* \"#utility.yul\":1487:1520   */\n      tag_132\n        /* \"#utility.yul\":1514:1519   */\n      dup2\n        /* \"#utility.yul\":1487:1520   */\n      tag_92\n      jump\t// in\n    tag_132:\n        /* \"#utility.yul\":1387:1526   */\n      swap3\n      swap2\n      pop\n      pop\n      jump\t// out\n        /* \"#utility.yul\":1532:1861   */\n    tag_14:\n        /* \"#utility.yul\":1591:1597   */\n      0x00\n        /* \"#utility.yul\":1640:1642   */\n      0x20\n        /* \"#utility.yul\":1628:1637   */\n      dup3\n        /* \"#utility.yul\":1619:1626   */\n      dup5\n        /* \"#utility.yul\":1615:1638   */\n      sub\n        /* \"#utility.yul\":1611:1643   */\n      slt\n        /* \"#utility.yul\":1608:1727   */\n      iszero\n      tag_134\n      jumpi\n        /* \"#utility.yul\":1646:1725   */\n      tag_135\n      tag_85\n      jump\t// in\n    tag_135:\n        /* \"#utility.yul\":1608:1727   */\n    tag_134:\n        /* \"#utility.yul\":1766:1767   */\n      0x00\n        /* \"#utility.yul\":1791:1844   */\n      tag_136\n        /* \"#utility.yul\":1836:1843   */\n      dup5\n        /* \"#utility.yul\":1827:1833   */\n      dup3\n        /* \"#utility.yul\":1816:1825   */\n      dup6\n        /* \"#utility.yul\":1812:1834   */\n      add\n        /* \"#utility.yul\":1791:1844   */\n      tag_93\n      jump\t// in\n    tag_136:\n        /* \"#utility.yul\":1781:1844   */\n      swap2\n      pop\n        /* \"#utility.yul\":1737:1854   */\n      pop\n        /* \"#utility.yul\":1532:1861   */\n      swap3\n      swap2\n      pop\n      pop\n      jump\t// out\n        /* \"#utility.yul\":1867:1985   */\n    tag_94:\n        /* \"#utility.yul\":1954:1978   */\n      tag_138\n        /* \"#utility.yul\":1972:1977   */\n      dup2\n        /* \"#utility.yul\":1954:1978   */\n      tag_87\n      jump\t// in\n    tag_138:\n        /* \"#utility.yul\":1949:1952   */\n      dup3\n        /* \"#utility.yul\":1942:1979   */\n      mstore\n        /* \"#utility.yul\":1867:1985   */\n      pop\n      pop\n      jump\t// out\n        /* \"#utility.yul\":1991:2213   */\n    tag_19:\n        /* \"#utility.yul\":2084:2088   */\n      0x00\n        /* \"#utility.yul\":2122:2124   */\n      0x20\n        /* \"#utility.yul\":2111:2120   */\n      dup3\n        /* \"#utility.yul\":2107:2125   */\n      add\n        /* \"#utility.yul\":2099:2125   */\n      swap1\n      pop\n        /* \"#utility.yul\":2135:2206   */\n      tag_140\n        /* \"#utility.yul\":2203:2204   */\n      0x00\n        /* \"#utility.yul\":2192:2201   */\n      dup4\n        /* \"#utility.yul\":2188:2205   */\n      add\n        /* \"#utility.yul\":2179:2185   */\n      dup5\n        /* \"#utility.yul\":2135:2206   */\n      tag_94\n      jump\t// in\n    tag_140:\n        /* \"#utility.yul\":1991:2213   */\n      swap3\n      swap2\n      pop\n      pop\n      jump\t// out\n        /* \"#utility.yul\":2219:2296   */\n    tag_95:\n        /* \"#utility.yul\":2256:2263   */\n      0x00\n        /* \"#utility.yul\":2285:2290   */\n      dup2\n        /* \"#utility.yul\":2274:2290   */\n      swap1\n      pop\n        /* \"#utility.yul\":2219:2296   */\n      swap2\n      swap1\n      pop\n      jump\t// out\n        /* \"#utility.yul\":2302:2420   */\n    tag_96:\n        /* \"#utility.yul\":2389:2413   */\n      tag_143\n        /* \"#utility.yul\":2407:2412   */\n      dup2\n        /* \"#utility.yul\":2389:2413   */\n      tag_95\n      jump\t// in\n    tag_143:\n        /* \"#utility.yul\":2384:2387   */\n      dup3\n        /* \"#utility.yul\":2377:2414   */\n      mstore\n        /* \"#utility.yul\":2302:2420   */\n      pop\n      pop\n      jump\t// out\n        /* \"#utility.yul\":2426:2648   */\n    tag_26:\n        /* \"#utility.yul\":2519:2523   */\n      0x00\n        /* \"#utility.yul\":2557:2559   */\n      0x20\n        /* \"#utility.yul\":2546:2555   */\n      dup3\n        /* \"#utility.yul\":2542:2560   */\n      add\n        /* \"#utility.yul\":2534:2560   */\n      swap1\n      pop\n        /* \"#utility.yul\":2570:2641   */\n      tag_145\n        /* \"#utility.yul\":2638:2639   */\n      0x00\n        /* \"#utility.yul\":2627:2636   */\n      dup4\n        /* \"#utility.yul\":2623:2640   */\n      add\n        /* \"#utility.yul\":2614:2620   */\n      dup5\n        /* \"#utility.yul\":2570:2641   */\n      tag_96\n      jump\t// in\n    tag_145:\n        /* \"#utility.yul\":2426:2648   */\n      swap3\n      swap2\n      pop\n      pop\n      jump\t// out\n        /* \"#utility.yul\":2654:2823   */\n    tag_97:\n        /* \"#utility.yul\":2738:2749   */\n      0x00\n        /* \"#utility.yul\":2772:2778   */\n      dup3\n        /* \"#utility.yul\":2767:2770   */\n      dup3\n        /* \"#utility.yul\":2760:2779   */\n      mstore\n        /* \"#utility.yul\":2812:2816   */\n      0x20\n        /* \"#utility.yul\":2807:2810   */\n      dup3\n        /* \"#utility.yul\":2803:2817   */\n      add\n        /* \"#utility.yul\":2788:2817   */\n      swap1\n      pop\n        /* \"#utility.yul\":2654:2823   */\n      swap3\n      swap2\n      pop\n      pop\n      jump\t// out\n        /* \"#utility.yul\":2829:2999   */\n    tag_98:\n        /* \"#utility.yul\":2969:2991   */\n      0x486173206e6f20726967687420746f20766f7465000000000000000000000000\n        /* \"#utility.yul\":2965:2966   */\n      0x00\n        /* \"#utility.yul\":2957:2963   */\n      dup3\n        /* \"#utility.yul\":2953:2967   */\n      add\n        /* \"#utility.yul\":2946:2992   */\n      mstore\n        /* \"#utility.yul\":2829:2999   */\n      pop\n      jump\t// out\n        /* \"#utility.yul\":3005:3371   */\n    tag_99:\n        /* \"#utility.yul\":3147:3150   */\n      0x00\n        /* \"#utility.yul\":3168:3235   */\n      tag_149\n        /* \"#utility.yul\":3232:3234   */\n      0x14\n        /* \"#utility.yul\":3227:3230   */\n      dup4\n        /* \"#utility.yul\":3168:3235   */\n      tag_97\n      jump\t// in\n    tag_149:\n        /* \"#utility.yul\":3161:3235   */\n      swap2\n      pop\n        /* \"#utility.yul\":3244:3337   */\n      tag_150\n        /* \"#utility.yul\":3333:3336   */\n      dup3\n        /* \"#utility.yul\":3244:3337   */\n      tag_98\n      jump\t// in\n    tag_150:\n        /* \"#utility.yul\":3362:3364   */\n      0x20\n        /* \"#utility.yul\":3357:3360   */\n      dup3\n        /* \"#utility.yul\":3353:3365   */\n      add\n        /* \"#utility.yul\":3346:3365   */\n      swap1\n      pop\n        /* \"#utility.yul\":3005:3371   */\n      swap2\n      swap1\n      pop\n      jump\t// out\n        /* \"#utility.yul\":3377:3796   */\n    tag_30:\n        /* \"#utility.yul\":3543:3547   */\n      0x00\n        /* \"#utility.yul\":3581:3583   */\n      0x20\n        /* \"#utility.yul\":3570:3579   */\n      dup3\n        /* \"#utility.yul\":3566:3584   */\n      add\n        /* \"#utility.yul\":3558:3584   */\n      swap1\n      pop\n        /* \"#utility.yul\":3630:3639   */\n      dup2\n        /* \"#utility.yul\":3624:3628   */\n      dup2\n        /* \"#utility.yul\":3620:3640   */\n      sub\n        /* \"#utility.yul\":3616:3617   */\n      0x00\n        /* \"#utility.yul\":3605:3614   */\n      dup4\n        /* \"#utility.yul\":3601:3618   */\n      add\n        /* \"#utility.yul\":3594:3641   */\n      mstore\n        /* \"#utility.yul\":3658:3789   */\n      tag_152\n        /* \"#utility.yul\":3784:3788   */\n      dup2\n        /* \"#utility.yul\":3658:3789   */\n      tag_99\n      jump\t// in\n    tag_152:\n        /* \"#utility.yul\":3650:3789   */\n      swap1\n      pop\n        /* \"#utility.yul\":3377:3796   */\n      swap2\n      swap1\n      pop\n      jump\t// out\n        /* \"#utility.yul\":3802:3970   */\n    tag_100:\n        /* \"#utility.yul\":3942:3962   */\n      0x596f7520616c726561647920766f7465642e0000000000000000000000000000\n        /* \"#utility.yul\":3938:3939   */\n      0x00\n        /* \"#utility.yul\":3930:3936   */\n      dup3\n        /* \"#utility.yul\":3926:3940   */\n      add\n        /* \"#utility.yul\":3919:3963   */\n      mstore\n        /* \"#utility.yul\":3802:3970   */\n      pop\n      jump\t// out\n        /* \"#utility.yul\":3976:4342   */\n    tag_101:\n        /* \"#utility.yul\":4118:4121   */\n      0x00\n        /* \"#utility.yul\":4139:4206   */\n      tag_155\n        /* \"#utility.yul\":4203:4205   */\n      0x12\n        /* \"#utility.yul\":4198:4201   */\n      dup4\n        /* \"#utility.yul\":4139:4206   */\n      tag_97\n      jump\t// in\n    tag_155:\n        /* \"#utility.yul\":4132:4206   */\n      swap2\n      pop\n        /* \"#utility.yul\":4215:4308   */\n      tag_156\n        /* \"#utility.yul\":4304:4307   */\n      dup3\n        /* \"#utility.yul\":4215:4308   */\n      tag_100\n      jump\t// in\n    tag_156:\n        /* \"#utility.yul\":4333:4335   */\n      0x20\n        /* \"#utility.yul\":4328:4331   */\n      dup3\n        /* \"#utility.yul\":4324:4336   */\n      add\n        /* \"#utility.yul\":4317:4336   */\n      swap1\n      pop\n        /* \"#utility.yul\":3976:4342   */\n      swap2\n      swap1\n      pop\n      jump\t// out\n        /* \"#utility.yul\":4348:4767   */\n    tag_33:\n        /* \"#utility.yul\":4514:4518   */\n      0x00\n        /* \"#utility.yul\":4552:4554   */\n      0x20\n        /* \"#utility.yul\":4541:4550   */\n      dup3\n        /* \"#utility.yul\":4537:4555   */\n      add\n        /* \"#utility.yul\":4529:4555   */\n      swap1\n      pop\n        /* \"#utility.yul\":4601:4610   */\n      dup2\n        /* \"#utility.yul\":4595:4599   */\n      dup2\n        /* \"#utility.yul\":4591:4611   */\n      sub\n        /* \"#utility.yul\":4587:4588   */\n      0x00\n        /* \"#utility.yul\":4576:4585   */\n      dup4\n        /* \"#utility.yul\":4572:4589   */\n      add\n        /* \"#utility.yul\":4565:4612   */\n      mstore\n        /* \"#utility.yul\":4629:4760   */\n      tag_158\n        /* \"#utility.yul\":4755:4759   */\n      dup2\n        /* \"#utility.yul\":4629:4760   */\n      tag_101\n      jump\t// in\n    tag_158:\n        /* \"#utility.yul\":4621:4760   */\n      swap1\n      pop\n        /* \"#utility.yul\":4348:4767   */\n      swap2\n      swap1\n      pop\n      jump\t// out\n        /* \"#utility.yul\":4773:4953   */\n    tag_36:\n        /* \"#utility.yul\":4821:4898   */\n      0x4e487b7100000000000000000000000000000000000000000000000000000000\n        /* \"#utility.yul\":4818:4819   */\n      0x00\n        /* \"#utility.yul\":4811:4899   */\n      mstore\n        /* \"#utility.yul\":4918:4922   */\n      0x32\n        /* \"#utility.yul\":4915:4916   */\n      0x04\n        /* \"#utility.yul\":4908:4923   */\n      mstore\n        /* \"#utility.yul\":4942:4946   */\n      0x24\n        /* \"#utility.yul\":4939:4940   */\n      0x00\n        /* \"#utility.yul\":4932:4947   */\n      revert\n        /* \"#utility.yul\":4959:5139   */\n    tag_102:\n        /* \"#utility.yul\":5007:5084   */\n      0x4e487b7100000000000000000000000000000000000000000000000000000000\n        /* \"#utility.yul\":5004:5005   */\n      0x00\n        /* \"#utility.yul\":4997:5085   */\n      mstore\n        /* \"#utility.yul\":5104:5108   */\n      0x11\n        /* \"#utility.yul\":5101:5102   */\n      0x04\n        /* \"#utility.yul\":5094:5109   */\n      mstore\n        /* \"#utility.yul\":5128:5132   */\n      0x24\n        /* \"#utility.yul\":5125:5126   */\n      0x00\n        /* \"#utility.yul\":5118:5133   */\n      revert\n        /* \"#utility.yul\":5145:5336   */\n    tag_39:\n        /* \"#utility.yul\":5185:5188   */\n      0x00\n        /* \"#utility.yul\":5204:5224   */\n      tag_162\n        /* \"#utility.yul\":5222:5223   */\n      dup3\n        /* \"#utility.yul\":5204:5224   */\n      tag_87\n      jump\t// in\n    tag_162:\n        /* \"#utility.yul\":5199:5224   */\n      swap2\n      pop\n        /* \"#utility.yul\":5238:5258   */\n      tag_163\n        /* \"#utility.yul\":5256:5257   */\n      dup4\n        /* \"#utility.yul\":5238:5258   */\n      tag_87\n      jump\t// in\n    tag_163:\n        /* \"#utility.yul\":5233:5258   */\n      swap3\n      pop\n        /* \"#utility.yul\":5281:5282   */\n      dup3\n        /* \"#utility.yul\":5278:5279   */\n      dup3\n        /* \"#utility.yul\":5274:5283   */\n      add\n        /* \"#utility.yul\":5267:5283   */\n      swap1\n      pop\n        /* \"#utility.yul\":5302:5305   */\n      dup1\n        /* \"#utility.yul\":5299:5300   */\n      dup3\n        /* \"#utility.yul\":5296:5306   */\n      gt\n        /* \"#utility.yul\":5293:5329   */\n      iszero\n      tag_164\n      jumpi\n        /* \"#utility.yul\":5309:5327   */\n      tag_165\n      tag_102\n      jump\t// in\n    tag_165:\n        /* \"#utility.yul\":5293:5329   */\n    tag_164:\n        /* \"#utility.yul\":5145:5336   */\n      swap3\n      swap2\n      pop\n      pop\n      jump\t// out\n        /* \"#utility.yul\":5342:5523   */\n    tag_103:\n        /* \"#utility.yul\":5482:5515   */\n      0x53656c662d64656c6567617465206973206e6f7420646973616c6f7765642e00\n        /* \"#utility.yul\":5478:5479   */\n      0x00\n        /* \"#utility.yul\":5470:5476   */\n      dup3\n        /* \"#utility.yul\":5466:5480   */\n      add\n        /* \"#utility.yul\":5459:5516   */\n      mstore\n        /* \"#utility.yul\":5342:5523   */\n      pop\n      jump\t// out\n        /* \"#utility.yul\":5529:5895   */\n    tag_104:\n        /* \"#utility.yul\":5671:5674   */\n      0x00\n        /* \"#utility.yul\":5692:5759   */\n      tag_168\n        /* \"#utility.yul\":5756:5758   */\n      0x1f\n        /* \"#utility.yul\":5751:5754   */\n      dup4\n        /* \"#utility.yul\":5692:5759   */\n      tag_97\n      jump\t// in\n    tag_168:\n        /* \"#utility.yul\":5685:5759   */\n      swap2\n      pop\n        /* \"#utility.yul\":5768:5861   */\n      tag_169\n        /* \"#utility.yul\":5857:5860   */\n      dup3\n        /* \"#utility.yul\":5768:5861   */\n      tag_103\n      jump\t// in\n    tag_169:\n        /* \"#utility.yul\":5886:5888   */\n      0x20\n        /* \"#utility.yul\":5881:5884   */\n      dup3\n        /* \"#utility.yul\":5877:5889   */\n      add\n        /* \"#utility.yul\":5870:5889   */\n      swap1\n      pop\n        /* \"#utility.yul\":5529:5895   */\n      swap2\n      swap1\n      pop\n      jump\t// out\n        /* \"#utility.yul\":5901:6320   */\n    tag_45:\n        /* \"#utility.yul\":6067:6071   */\n      0x00\n        /* \"#utility.yul\":6105:6107   */\n      0x20\n        /* \"#utility.yul\":6094:6103   */\n      dup3\n        /* \"#utility.yul\":6090:6108   */\n      add\n        /* \"#utility.yul\":6082:6108   */\n      swap1\n      pop\n        /* \"#utility.yul\":6154:6163   */\n      dup2\n        /* \"#utility.yul\":6148:6152   */\n      dup2\n        /* \"#utility.yul\":6144:6164   */\n      sub\n        /* \"#utility.yul\":6140:6141   */\n      0x00\n        /* \"#utility.yul\":6129:6138   */\n      dup4\n        /* \"#utility.yul\":6125:6142   */\n      add\n        /* \"#utility.yul\":6118:6165   */\n      mstore\n        /* \"#utility.yul\":6182:6313   */\n      tag_171\n        /* \"#utility.yul\":6308:6312   */\n      dup2\n        /* \"#utility.yul\":6182:6313   */\n      tag_104\n      jump\t// in\n    tag_171:\n        /* \"#utility.yul\":6174:6313   */\n      swap1\n      pop\n        /* \"#utility.yul\":5901:6320   */\n      swap2\n      swap1\n      pop\n      jump\t// out\n        /* \"#utility.yul\":6326:6547   */\n    tag_105:\n        /* \"#utility.yul\":6466:6500   */\n      0x596f75206172652064656c6567617465642066726f6d206f7264657220766f74\n        /* \"#utility.yul\":6462:6463   */\n      0x00\n        /* \"#utility.yul\":6454:6460   */\n      dup3\n        /* \"#utility.yul\":6450:6464   */\n      add\n        /* \"#utility.yul\":6443:6501   */\n      mstore\n        /* \"#utility.yul\":6535:6539   */\n      0x6572000000000000000000000000000000000000000000000000000000000000\n        /* \"#utility.yul\":6530:6532   */\n      0x20\n        /* \"#utility.yul\":6522:6528   */\n      dup3\n        /* \"#utility.yul\":6518:6533   */\n      add\n        /* \"#utility.yul\":6511:6540   */\n      mstore\n        /* \"#utility.yul\":6326:6547   */\n      pop\n      jump\t// out\n        /* \"#utility.yul\":6553:6919   */\n    tag_106:\n        /* \"#utility.yul\":6695:6698   */\n      0x00\n        /* \"#utility.yul\":6716:6783   */\n      tag_174\n        /* \"#utility.yul\":6780:6782   */\n      0x22\n        /* \"#utility.yul\":6775:6778   */\n      dup4\n        /* \"#utility.yul\":6716:6783   */\n      tag_97\n      jump\t// in\n    tag_174:\n        /* \"#utility.yul\":6709:6783   */\n      swap2\n      pop\n        /* \"#utility.yul\":6792:6885   */\n      tag_175\n        /* \"#utility.yul\":6881:6884   */\n      dup3\n        /* \"#utility.yul\":6792:6885   */\n      tag_105\n      jump\t// in\n    tag_175:\n        /* \"#utility.yul\":6910:6912   */\n      0x40\n        /* \"#utility.yul\":6905:6908   */\n      dup3\n        /* \"#utility.yul\":6901:6913   */\n      add\n        /* \"#utility.yul\":6894:6913   */\n      swap1\n      pop\n        /* \"#utility.yul\":6553:6919   */\n      swap2\n      swap1\n      pop\n      jump\t// out\n        /* \"#utility.yul\":6925:7344   */\n    tag_50:\n        /* \"#utility.yul\":7091:7095   */\n      0x00\n        /* \"#utility.yul\":7129:7131   */\n      0x20\n        /* \"#utility.yul\":7118:7127   */\n      dup3\n        /* \"#utility.yul\":7114:7132   */\n      add\n        /* \"#utility.yul\":7106:7132   */\n      swap1\n      pop\n        /* \"#utility.yul\":7178:7187   */\n      dup2\n        /* \"#utility.yul\":7172:7176   */\n      dup2\n        /* \"#utility.yul\":7168:7188   */\n      sub\n        /* \"#utility.yul\":7164:7165   */\n      0x00\n        /* \"#utility.yul\":7153:7162   */\n      dup4\n        /* \"#utility.yul\":7149:7166   */\n      add\n        /* \"#utility.yul\":7142:7189   */\n      mstore\n        /* \"#utility.yul\":7206:7337   */\n      tag_177\n        /* \"#utility.yul\":7332:7336   */\n      dup2\n        /* \"#utility.yul\":7206:7337   */\n      tag_106\n      jump\t// in\n    tag_177:\n        /* \"#utility.yul\":7198:7337   */\n      swap1\n      pop\n        /* \"#utility.yul\":6925:7344   */\n      swap2\n      swap1\n      pop\n      jump\t// out\n        /* \"#utility.yul\":7350:7583   */\n    tag_70:\n        /* \"#utility.yul\":7389:7392   */\n      0x00\n        /* \"#utility.yul\":7412:7436   */\n      tag_179\n        /* \"#utility.yul\":7430:7435   */\n      dup3\n        /* \"#utility.yul\":7412:7436   */\n      tag_87\n      jump\t// in\n    tag_179:\n        /* \"#utility.yul\":7403:7436   */\n      swap2\n      pop\n        /* \"#utility.yul\":7458:7524   */\n      0xffffffffffffffffffffffffffffffffffffffffffffffffffffffffffffffff\n        /* \"#utility.yul\":7451:7456   */\n      dup3\n        /* \"#utility.yul\":7448:7525   */\n      sub\n        /* \"#utility.yul\":7445:7548   */\n      tag_180\n      jumpi\n        /* \"#utility.yul\":7528:7546   */\n      tag_181\n      tag_102\n      jump\t// in\n    tag_181:\n        /* \"#utility.yul\":7445:7548   */\n    tag_180:\n        /* \"#utility.yul\":7575:7576   */\n      0x01\n        /* \"#utility.yul\":7568:7573   */\n      dup3\n        /* \"#utility.yul\":7564:7577   */\n      add\n        /* \"#utility.yul\":7557:7577   */\n      swap1\n      pop\n        /* \"#utility.yul\":7350:7583   */\n      swap2\n      swap1\n      pop\n      jump\t// out\n        /* \"#utility.yul\":7589:7816   */\n    tag_107:\n        /* \"#utility.yul\":7729:7763   */\n      0x4f6e6c79206368616972506572736f6e2063616e206769766520726967687420\n        /* \"#utility.yul\":7725:7726   */\n      0x00\n        /* \"#utility.yul\":7717:7723   */\n      dup3\n        /* \"#utility.yul\":7713:7727   */\n      add\n        /* \"#utility.yul\":7706:7764   */\n      mstore\n        /* \"#utility.yul\":7798:7808   */\n      0x746f20766f74652e000000000000000000000000000000000000000000000000\n        /* \"#utility.yul\":7793:7795   */\n      0x20\n        /* \"#utility.yul\":7785:7791   */\n      dup3\n        /* \"#utility.yul\":7781:7796   */\n      add\n        /* \"#utility.yul\":7774:7809   */\n      mstore\n        /* \"#utility.yul\":7589:7816   */\n      pop\n      jump\t// out\n        /* \"#utility.yul\":7822:8188   */\n    tag_108:\n        /* \"#utility.yul\":7964:7967   */\n      0x00\n        /* \"#utility.yul\":7985:8052   */\n      tag_184\n        /* \"#utility.yul\":8049:8051   */\n      0x28\n        /* \"#utility.yul\":8044:8047   */\n      dup4\n        /* \"#utility.yul\":7985:8052   */\n      tag_97\n      jump\t// in\n    tag_184:\n        /* \"#utility.yul\":7978:8052   */\n      swap2\n      pop\n        /* \"#utility.yul\":8061:8154   */\n      tag_185\n        /* \"#utility.yul\":8150:8153   */\n      dup3\n        /* \"#utility.yul\":8061:8154   */\n      tag_107\n      jump\t// in\n    tag_185:\n        /* \"#utility.yul\":8179:8181   */\n      0x40\n        /* \"#utility.yul\":8174:8177   */\n      dup3\n        /* \"#utility.yul\":8170:8182   */\n      add\n        /* \"#utility.yul\":8163:8182   */\n      swap1\n      pop\n        /* \"#utility.yul\":7822:8188   */\n      swap2\n      swap1\n      pop\n      jump\t// out\n        /* \"#utility.yul\":8194:8613   */\n    tag_74:\n        /* \"#utility.yul\":8360:8364   */\n      0x00\n        /* \"#utility.yul\":8398:8400   */\n      0x20\n        /* \"#utility.yul\":8387:8396   */\n      dup3\n        /* \"#utility.yul\":8383:8401   */\n      add\n        /* \"#utility.yul\":8375:8401   */\n      swap1\n      pop\n        /* \"#utility.yul\":8447:8456   */\n      dup2\n        /* \"#utility.yul\":8441:8445   */\n      dup2\n        /* \"#utility.yul\":8437:8457   */\n      sub\n        /* \"#utility.yul\":8433:8434   */\n      0x00\n        /* \"#utility.yul\":8422:8431   */\n      dup4\n        /* \"#utility.yul\":8418:8435   */\n      add\n        /* \"#utility.yul\":8411:8458   */\n      mstore\n        /* \"#utility.yul\":8475:8606   */\n      tag_187\n        /* \"#utility.yul\":8601:8605   */\n      dup2\n        /* \"#utility.yul\":8475:8606   */\n      tag_108\n      jump\t// in\n    tag_187:\n        /* \"#utility.yul\":8467:8606   */\n      swap1\n      pop\n        /* \"#utility.yul\":8194:8613   */\n      swap2\n      swap1\n      pop\n      jump\t// out\n        /* \"#utility.yul\":8619:8796   */\n    tag_109:\n        /* \"#utility.yul\":8759:8788   */\n      0x54686520766f74657220697320616c726561647920766f7465642e0000000000\n        /* \"#utility.yul\":8755:8756   */\n      0x00\n        /* \"#utility.yul\":8747:8753   */\n      dup3\n        /* \"#utility.yul\":8743:8757   */\n      add\n        /* \"#utility.yul\":8736:8789   */\n      mstore\n        /* \"#utility.yul\":8619:8796   */\n      pop\n      jump\t// out\n        /* \"#utility.yul\":8802:9168   */\n    tag_110:\n        /* \"#utility.yul\":8944:8947   */\n      0x00\n        /* \"#utility.yul\":8965:9032   */\n      tag_190\n        /* \"#utility.yul\":9029:9031   */\n      0x1b\n        /* \"#utility.yul\":9024:9027   */\n      dup4\n        /* \"#utility.yul\":8965:9032   */\n      tag_97\n      jump\t// in\n    tag_190:\n        /* \"#utility.yul\":8958:9032   */\n      swap2\n      pop\n        /* \"#utility.yul\":9041:9134   */\n      tag_191\n        /* \"#utility.yul\":9130:9133   */\n      dup3\n        /* \"#utility.yul\":9041:9134   */\n      tag_109\n      jump\t// in\n    tag_191:\n        /* \"#utility.yul\":9159:9161   */\n      0x20\n        /* \"#utility.yul\":9154:9157   */\n      dup3\n        /* \"#utility.yul\":9150:9162   */\n      add\n        /* \"#utility.yul\":9143:9162   */\n      swap1\n      pop\n        /* \"#utility.yul\":8802:9168   */\n      swap2\n      swap1\n      pop\n      jump\t// out\n        /* \"#utility.yul\":9174:9593   */\n    tag_77:\n        /* \"#utility.yul\":9340:9344   */\n      0x00\n        /* \"#utility.yul\":9378:9380   */\n      0x20\n        /* \"#utility.yul\":9367:9376   */\n      dup3\n        /* \"#utility.yul\":9363:9381   */\n      add\n        /* \"#utility.yul\":9355:9381   */\n      swap1\n      pop\n        /* \"#utility.yul\":9427:9436   */\n      dup2\n        /* \"#utility.yul\":9421:9425   */\n      dup2\n        /* \"#utility.yul\":9417:9437   */\n      sub\n        /* \"#utility.yul\":9413:9414   */\n      0x00\n        /* \"#utility.yul\":9402:9411   */\n      dup4\n        /* \"#utility.yul\":9398:9415   */\n      add\n        /* \"#utility.yul\":9391:9438   */\n      mstore\n        /* \"#utility.yul\":9455:9586   */\n      tag_193\n        /* \"#utility.yul\":9581:9585   */\n      dup2\n        /* \"#utility.yul\":9455:9586   */\n      tag_110\n      jump\t// in\n    tag_193:\n        /* \"#utility.yul\":9447:9586   */\n      swap1\n      pop\n        /* \"#utility.yul\":9174:9593   */\n      swap2\n      swap1\n      pop\n      jump\t// out\n\n    auxdata: 0xa2646970667358221220b331a9fdfe2107e5f68a76c636cb6fa7bd0b1b008eadabf721b7481e28be267564736f6c63430008110033\n}\n",
				"bytecode": {
					"linkReferences": {},
					"object": "60806040523480156200001157600080fd5b506040516200129838038062001298833981810160405281019062000037919062000342565b336000806101000a81548173ffffffffffffffffffffffffffffffffffffffff021916908373ffffffffffffffffffffffffffffffffffffffff16021790555060018060008060009054906101000a900473ffffffffffffffffffffffffffffffffffffffff1673ffffffffffffffffffffffffffffffffffffffff1673ffffffffffffffffffffffffffffffffffffffff1681526020019081526020016000206000018190555060005b81518110156200017657600260405180604001604052808484815181106200010f576200010e62000393565b5b60200260200101518152602001600081525090806001815401808255809150506001900390600052602060002090600202016000909190919091506000820151816000015560208201518160010155505080806200016d90620003fb565b915050620000e2565b505062000448565b6000604051905090565b600080fd5b600080fd5b600080fd5b6000601f19601f8301169050919050565b7f4e487b7100000000000000000000000000000000000000000000000000000000600052604160045260246000fd5b620001e28262000197565b810181811067ffffffffffffffff82111715620002045762000203620001a8565b5b80604052505050565b6000620002196200017e565b9050620002278282620001d7565b919050565b600067ffffffffffffffff8211156200024a5762000249620001a8565b5b602082029050602081019050919050565b600080fd5b6000819050919050565b620002758162000260565b81146200028157600080fd5b50565b60008151905062000295816200026a565b92915050565b6000620002b2620002ac846200022c565b6200020d565b90508083825260208201905060208402830185811115620002d857620002d76200025b565b5b835b81811015620003055780620002f0888262000284565b845260208401935050602081019050620002da565b5050509392505050565b600082601f83011262000327576200032662000192565b5b8151620003398482602086016200029b565b91505092915050565b6000602082840312156200035b576200035a62000188565b5b600082015167ffffffffffffffff8111156200037c576200037b6200018d565b5b6200038a848285016200030f565b91505092915050565b7f4e487b7100000000000000000000000000000000000000000000000000000000600052603260045260246000fd5b7f4e487b7100000000000000000000000000000000000000000000000000000000600052601160045260246000fd5b6000819050919050565b60006200040882620003f1565b91507fffffffffffffffffffffffffffffffffffffffffffffffffffffffffffffffff82036200043d576200043c620003c2565b5b600182019050919050565b610e4080620004586000396000f3fe608060405234801561001057600080fd5b50600436106100575760003560e01c80630121b93f1461005c5780635c19a95c14610078578063609ff1bd146100945780639e7b8d61146100b2578063e2ba53f0146100ce575b600080fd5b61007660048036038101906100719190610935565b6100ec565b005b610092600480360381019061008d91906109c0565b610238565b005b61009c6105de565b6040516100a991906109fc565b60405180910390f35b6100cc60048036038101906100c791906109c0565b610666565b005b6100d66108c6565b6040516100e39190610a30565b60405180910390f35b6000600160003373ffffffffffffffffffffffffffffffffffffffff1673ffffffffffffffffffffffffffffffffffffffff16815260200190815260200160002090506000816000015403610176576040517f08c379a000000000000000000000000000000000000000000000000000000000815260040161016d90610aa8565b60405180910390fd5b600015158160010160009054906101000a900460ff161515146101ce576040517f08c379a00000000000000000000000000000000000000000000000000000000081526004016101c590610b14565b60405180910390fd5b60018160010160006101000a81548160ff02191690831515021790555081816002018190555080600001546002838154811061020d5761020c610b34565b5b9060005260206000209060020201600101600082825461022d9190610b92565b925050819055505050565b6000600160003373ffffffffffffffffffffffffffffffffffffffff1673ffffffffffffffffffffffffffffffffffffffff1681526020019081526020016000209050600015158160010160009054906101000a900460ff161515146102d3576040517f08c379a00000000000000000000000000000000000000000000000000000000081526004016102ca90610b14565b60405180910390fd5b3373ffffffffffffffffffffffffffffffffffffffff168273ffffffffffffffffffffffffffffffffffffffff1603610341576040517f08c379a000000000000000000000000000000000000000000000000000000000815260040161033890610c12565b60405180910390fd5b5b600073ffffffffffffffffffffffffffffffffffffffff16600160008473ffffffffffffffffffffffffffffffffffffffff1673ffffffffffffffffffffffffffffffffffffffff16815260200190815260200160002060010160019054906101000a900473ffffffffffffffffffffffffffffffffffffffff1673ffffffffffffffffffffffffffffffffffffffff16146104b057600160008373ffffffffffffffffffffffffffffffffffffffff1673ffffffffffffffffffffffffffffffffffffffff16815260200190815260200160002060010160019054906101000a900473ffffffffffffffffffffffffffffffffffffffff1691503373ffffffffffffffffffffffffffffffffffffffff168273ffffffffffffffffffffffffffffffffffffffff16036104ab576040517f08c379a00000000000000000000000000000000000000000000000000000000081526004016104a290610ca4565b60405180910390fd5b610342565b60018160010160006101000a81548160ff021916908315150217905550818160010160016101000a81548173ffffffffffffffffffffffffffffffffffffffff021916908373ffffffffffffffffffffffffffffffffffffffff1602179055506000600160008473ffffffffffffffffffffffffffffffffffffffff1673ffffffffffffffffffffffffffffffffffffffff1681526020019081526020016000209050600115158160010160009054906101000a900460ff161515036105b9578160000154600282600201548154811061058d5761058c610b34565b5b906000526020600020906002020160010160008282546105ad9190610b92565b925050819055506105d9565b81600001548160000160008282546105d19190610b92565b925050819055505b505050565b6000806000905060005b60028054905081101561066157816002828154811061060a57610609610b34565b5b906000526020600020906002020160010154111561064e576002818154811061063657610635610b34565b5b90600052602060002090600202016001015491508092505b808061065990610cc4565b9150506105e8565b505090565b60008054906101000a900473ffffffffffffffffffffffffffffffffffffffff1673ffffffffffffffffffffffffffffffffffffffff163373ffffffffffffffffffffffffffffffffffffffff16146106f4576040517f08c379a00000000000000000000000000000000000000000000000000000000081526004016106eb90610d7e565b60405180910390fd5b60001515600160008373ffffffffffffffffffffffffffffffffffffffff1673ffffffffffffffffffffffffffffffffffffffff16815260200190815260200160002060010160009054906101000a900460ff1615151461078a576040517f08c379a000000000000000000000000000000000000000000000000000000000815260040161078190610dea565b60405180910390fd5b6000600160008373ffffffffffffffffffffffffffffffffffffffff1673ffffffffffffffffffffffffffffffffffffffff16815260200190815260200160002060000154146107d957600080fd5b60018060008373ffffffffffffffffffffffffffffffffffffffff1673ffffffffffffffffffffffffffffffffffffffff168152602001908152602001600020600001819055506000600160008373ffffffffffffffffffffffffffffffffffffffff1673ffffffffffffffffffffffffffffffffffffffff168152602001908152602001600020600201819055506000600160008373ffffffffffffffffffffffffffffffffffffffff1673ffffffffffffffffffffffffffffffffffffffff16815260200190815260200160002060010160006101000a81548160ff02191690831515021790555050565b600060026108d26105de565b815481106108e3576108e2610b34565b5b906000526020600020906002020160000154905090565b600080fd5b6000819050919050565b610912816108ff565b811461091d57600080fd5b50565b60008135905061092f81610909565b92915050565b60006020828403121561094b5761094a6108fa565b5b600061095984828501610920565b91505092915050565b600073ffffffffffffffffffffffffffffffffffffffff82169050919050565b600061098d82610962565b9050919050565b61099d81610982565b81146109a857600080fd5b50565b6000813590506109ba81610994565b92915050565b6000602082840312156109d6576109d56108fa565b5b60006109e4848285016109ab565b91505092915050565b6109f6816108ff565b82525050565b6000602082019050610a1160008301846109ed565b92915050565b6000819050919050565b610a2a81610a17565b82525050565b6000602082019050610a456000830184610a21565b92915050565b600082825260208201905092915050565b7f486173206e6f20726967687420746f20766f7465000000000000000000000000600082015250565b6000610a92601483610a4b565b9150610a9d82610a5c565b602082019050919050565b60006020820190508181036000830152610ac181610a85565b9050919050565b7f596f7520616c726561647920766f7465642e0000000000000000000000000000600082015250565b6000610afe601283610a4b565b9150610b0982610ac8565b602082019050919050565b60006020820190508181036000830152610b2d81610af1565b9050919050565b7f4e487b7100000000000000000000000000000000000000000000000000000000600052603260045260246000fd5b7f4e487b7100000000000000000000000000000000000000000000000000000000600052601160045260246000fd5b6000610b9d826108ff565b9150610ba8836108ff565b9250828201905080821115610bc057610bbf610b63565b5b92915050565b7f53656c662d64656c6567617465206973206e6f7420646973616c6f7765642e00600082015250565b6000610bfc601f83610a4b565b9150610c0782610bc6565b602082019050919050565b60006020820190508181036000830152610c2b81610bef565b9050919050565b7f596f75206172652064656c6567617465642066726f6d206f7264657220766f7460008201527f6572000000000000000000000000000000000000000000000000000000000000602082015250565b6000610c8e602283610a4b565b9150610c9982610c32565b604082019050919050565b60006020820190508181036000830152610cbd81610c81565b9050919050565b6000610ccf826108ff565b91507fffffffffffffffffffffffffffffffffffffffffffffffffffffffffffffffff8203610d0157610d00610b63565b5b600182019050919050565b7f4f6e6c79206368616972506572736f6e2063616e20676976652072696768742060008201527f746f20766f74652e000000000000000000000000000000000000000000000000602082015250565b6000610d68602883610a4b565b9150610d7382610d0c565b604082019050919050565b60006020820190508181036000830152610d9781610d5b565b9050919050565b7f54686520766f74657220697320616c726561647920766f7465642e0000000000600082015250565b6000610dd4601b83610a4b565b9150610ddf82610d9e565b602082019050919050565b60006020820190508181036000830152610e0381610dc7565b905091905056fea2646970667358221220b331a9fdfe2107e5f68a76c636cb6fa7bd0b1b008eadabf721b7481e28be267564736f6c63430008110033",
					"opcodes": "PUSH1 0x80 PUSH1 0x40 MSTORE CALLVALUE DUP1 ISZERO PUSH3 0x11 JUMPI PUSH1 0x0 DUP1 REVERT JUMPDEST POP PUSH1 0x40 MLOAD PUSH3 0x1298 CODESIZE SUB DUP1 PUSH3 0x1298 DUP4 CODECOPY DUP2 DUP2 ADD PUSH1 0x40 MSTORE DUP2 ADD SWAP1 PUSH3 0x37 SWAP2 SWAP1 PUSH3 0x342 JUMP JUMPDEST CALLER PUSH1 0x0 DUP1 PUSH2 0x100 EXP DUP2 SLOAD DUP2 PUSH20 0xFFFFFFFFFFFFFFFFFFFFFFFFFFFFFFFFFFFFFFFF MUL NOT AND SWAP1 DUP4 PUSH20 0xFFFFFFFFFFFFFFFFFFFFFFFFFFFFFFFFFFFFFFFF AND MUL OR SWAP1 SSTORE POP PUSH1 0x1 DUP1 PUSH1 0x0 DUP1 PUSH1 0x0 SWAP1 SLOAD SWAP1 PUSH2 0x100 EXP SWAP1 DIV PUSH20 0xFFFFFFFFFFFFFFFFFFFFFFFFFFFFFFFFFFFFFFFF AND PUSH20 0xFFFFFFFFFFFFFFFFFFFFFFFFFFFFFFFFFFFFFFFF AND PUSH20 0xFFFFFFFFFFFFFFFFFFFFFFFFFFFFFFFFFFFFFFFF AND DUP2 MSTORE PUSH1 0x20 ADD SWAP1 DUP2 MSTORE PUSH1 0x20 ADD PUSH1 0x0 KECCAK256 PUSH1 0x0 ADD DUP2 SWAP1 SSTORE POP PUSH1 0x0 JUMPDEST DUP2 MLOAD DUP2 LT ISZERO PUSH3 0x176 JUMPI PUSH1 0x2 PUSH1 0x40 MLOAD DUP1 PUSH1 0x40 ADD PUSH1 0x40 MSTORE DUP1 DUP5 DUP5 DUP2 MLOAD DUP2 LT PUSH3 0x10F JUMPI PUSH3 0x10E PUSH3 0x393 JUMP JUMPDEST JUMPDEST PUSH1 0x20 MUL PUSH1 0x20 ADD ADD MLOAD DUP2 MSTORE PUSH1 0x20 ADD PUSH1 0x0 DUP2 MSTORE POP SWAP1 DUP1 PUSH1 0x1 DUP2 SLOAD ADD DUP1 DUP3 SSTORE DUP1 SWAP2 POP POP PUSH1 0x1 SWAP1 SUB SWAP1 PUSH1 0x0 MSTORE PUSH1 0x20 PUSH1 0x0 KECCAK256 SWAP1 PUSH1 0x2 MUL ADD PUSH1 0x0 SWAP1 SWAP2 SWAP1 SWAP2 SWAP1 SWAP2 POP PUSH1 0x0 DUP3 ADD MLOAD DUP2 PUSH1 0x0 ADD SSTORE PUSH1 0x20 DUP3 ADD MLOAD DUP2 PUSH1 0x1 ADD SSTORE POP POP DUP1 DUP1 PUSH3 0x16D SWAP1 PUSH3 0x3FB JUMP JUMPDEST SWAP2 POP POP PUSH3 0xE2 JUMP JUMPDEST POP POP PUSH3 0x448 JUMP JUMPDEST PUSH1 0x0 PUSH1 0x40 MLOAD SWAP1 POP SWAP1 JUMP JUMPDEST PUSH1 0x0 DUP1 REVERT JUMPDEST PUSH1 0x0 DUP1 REVERT JUMPDEST PUSH1 0x0 DUP1 REVERT JUMPDEST PUSH1 0x0 PUSH1 0x1F NOT PUSH1 0x1F DUP4 ADD AND SWAP1 POP SWAP2 SWAP1 POP JUMP JUMPDEST PUSH32 0x4E487B7100000000000000000000000000000000000000000000000000000000 PUSH1 0x0 MSTORE PUSH1 0x41 PUSH1 0x4 MSTORE PUSH1 0x24 PUSH1 0x0 REVERT JUMPDEST PUSH3 0x1E2 DUP3 PUSH3 0x197 JUMP JUMPDEST DUP2 ADD DUP2 DUP2 LT PUSH8 0xFFFFFFFFFFFFFFFF DUP3 GT OR ISZERO PUSH3 0x204 JUMPI PUSH3 0x203 PUSH3 0x1A8 JUMP JUMPDEST JUMPDEST DUP1 PUSH1 0x40 MSTORE POP POP POP JUMP JUMPDEST PUSH1 0x0 PUSH3 0x219 PUSH3 0x17E JUMP JUMPDEST SWAP1 POP PUSH3 0x227 DUP3 DUP3 PUSH3 0x1D7 JUMP JUMPDEST SWAP2 SWAP1 POP JUMP JUMPDEST PUSH1 0x0 PUSH8 0xFFFFFFFFFFFFFFFF DUP3 GT ISZERO PUSH3 0x24A JUMPI PUSH3 0x249 PUSH3 0x1A8 JUMP JUMPDEST JUMPDEST PUSH1 0x20 DUP3 MUL SWAP1 POP PUSH1 0x20 DUP2 ADD SWAP1 POP SWAP2 SWAP1 POP JUMP JUMPDEST PUSH1 0x0 DUP1 REVERT JUMPDEST PUSH1 0x0 DUP2 SWAP1 POP SWAP2 SWAP1 POP JUMP JUMPDEST PUSH3 0x275 DUP2 PUSH3 0x260 JUMP JUMPDEST DUP2 EQ PUSH3 0x281 JUMPI PUSH1 0x0 DUP1 REVERT JUMPDEST POP JUMP JUMPDEST PUSH1 0x0 DUP2 MLOAD SWAP1 POP PUSH3 0x295 DUP2 PUSH3 0x26A JUMP JUMPDEST SWAP3 SWAP2 POP POP JUMP JUMPDEST PUSH1 0x0 PUSH3 0x2B2 PUSH3 0x2AC DUP5 PUSH3 0x22C JUMP JUMPDEST PUSH3 0x20D JUMP JUMPDEST SWAP1 POP DUP1 DUP4 DUP3 MSTORE PUSH1 0x20 DUP3 ADD SWAP1 POP PUSH1 0x20 DUP5 MUL DUP4 ADD DUP6 DUP2 GT ISZERO PUSH3 0x2D8 JUMPI PUSH3 0x2D7 PUSH3 0x25B JUMP JUMPDEST JUMPDEST DUP4 JUMPDEST DUP2 DUP2 LT ISZERO PUSH3 0x305 JUMPI DUP1 PUSH3 0x2F0 DUP9 DUP3 PUSH3 0x284 JUMP JUMPDEST DUP5 MSTORE PUSH1 0x20 DUP5 ADD SWAP4 POP POP PUSH1 0x20 DUP2 ADD SWAP1 POP PUSH3 0x2DA JUMP JUMPDEST POP POP POP SWAP4 SWAP3 POP POP POP JUMP JUMPDEST PUSH1 0x0 DUP3 PUSH1 0x1F DUP4 ADD SLT PUSH3 0x327 JUMPI PUSH3 0x326 PUSH3 0x192 JUMP JUMPDEST JUMPDEST DUP2 MLOAD PUSH3 0x339 DUP5 DUP3 PUSH1 0x20 DUP7 ADD PUSH3 0x29B JUMP JUMPDEST SWAP2 POP POP SWAP3 SWAP2 POP POP JUMP JUMPDEST PUSH1 0x0 PUSH1 0x20 DUP3 DUP5 SUB SLT ISZERO PUSH3 0x35B JUMPI PUSH3 0x35A PUSH3 0x188 JUMP JUMPDEST JUMPDEST PUSH1 0x0 DUP3 ADD MLOAD PUSH8 0xFFFFFFFFFFFFFFFF DUP2 GT ISZERO PUSH3 0x37C JUMPI PUSH3 0x37B PUSH3 0x18D JUMP JUMPDEST JUMPDEST PUSH3 0x38A DUP5 DUP3 DUP6 ADD PUSH3 0x30F JUMP JUMPDEST SWAP2 POP POP SWAP3 SWAP2 POP POP JUMP JUMPDEST PUSH32 0x4E487B7100000000000000000000000000000000000000000000000000000000 PUSH1 0x0 MSTORE PUSH1 0x32 PUSH1 0x4 MSTORE PUSH1 0x24 PUSH1 0x0 REVERT JUMPDEST PUSH32 0x4E487B7100000000000000000000000000000000000000000000000000000000 PUSH1 0x0 MSTORE PUSH1 0x11 PUSH1 0x4 MSTORE PUSH1 0x24 PUSH1 0x0 REVERT JUMPDEST PUSH1 0x0 DUP2 SWAP1 POP SWAP2 SWAP1 POP JUMP JUMPDEST PUSH1 0x0 PUSH3 0x408 DUP3 PUSH3 0x3F1 JUMP JUMPDEST SWAP2 POP PUSH32 0xFFFFFFFFFFFFFFFFFFFFFFFFFFFFFFFFFFFFFFFFFFFFFFFFFFFFFFFFFFFFFFFF DUP3 SUB PUSH3 0x43D JUMPI PUSH3 0x43C PUSH3 0x3C2 JUMP JUMPDEST JUMPDEST PUSH1 0x1 DUP3 ADD SWAP1 POP SWAP2 SWAP1 POP JUMP JUMPDEST PUSH2 0xE40 DUP1 PUSH3 0x458 PUSH1 0x0 CODECOPY PUSH1 0x0 RETURN INVALID PUSH1 0x80 PUSH1 0x40 MSTORE CALLVALUE DUP1 ISZERO PUSH2 0x10 JUMPI PUSH1 0x0 DUP1 REVERT JUMPDEST POP PUSH1 0x4 CALLDATASIZE LT PUSH2 0x57 JUMPI PUSH1 0x0 CALLDATALOAD PUSH1 0xE0 SHR DUP1 PUSH4 0x121B93F EQ PUSH2 0x5C JUMPI DUP1 PUSH4 0x5C19A95C EQ PUSH2 0x78 JUMPI DUP1 PUSH4 0x609FF1BD EQ PUSH2 0x94 JUMPI DUP1 PUSH4 0x9E7B8D61 EQ PUSH2 0xB2 JUMPI DUP1 PUSH4 0xE2BA53F0 EQ PUSH2 0xCE JUMPI JUMPDEST PUSH1 0x0 DUP1 REVERT JUMPDEST PUSH2 0x76 PUSH1 0x4 DUP1 CALLDATASIZE SUB DUP2 ADD SWAP1 PUSH2 0x71 SWAP2 SWAP1 PUSH2 0x935 JUMP JUMPDEST PUSH2 0xEC JUMP JUMPDEST STOP JUMPDEST PUSH2 0x92 PUSH1 0x4 DUP1 CALLDATASIZE SUB DUP2 ADD SWAP1 PUSH2 0x8D SWAP2 SWAP1 PUSH2 0x9C0 JUMP JUMPDEST PUSH2 0x238 JUMP JUMPDEST STOP JUMPDEST PUSH2 0x9C PUSH2 0x5DE JUMP JUMPDEST PUSH1 0x40 MLOAD PUSH2 0xA9 SWAP2 SWAP1 PUSH2 0x9FC JUMP JUMPDEST PUSH1 0x40 MLOAD DUP1 SWAP2 SUB SWAP1 RETURN JUMPDEST PUSH2 0xCC PUSH1 0x4 DUP1 CALLDATASIZE SUB DUP2 ADD SWAP1 PUSH2 0xC7 SWAP2 SWAP1 PUSH2 0x9C0 JUMP JUMPDEST PUSH2 0x666 JUMP JUMPDEST STOP JUMPDEST PUSH2 0xD6 PUSH2 0x8C6 JUMP JUMPDEST PUSH1 0x40 MLOAD PUSH2 0xE3 SWAP2 SWAP1 PUSH2 0xA30 JUMP JUMPDEST PUSH1 0x40 MLOAD DUP1 SWAP2 SUB SWAP1 RETURN JUMPDEST PUSH1 0x0 PUSH1 0x1 PUSH1 0x0 CALLER PUSH20 0xFFFFFFFFFFFFFFFFFFFFFFFFFFFFFFFFFFFFFFFF AND PUSH20 0xFFFFFFFFFFFFFFFFFFFFFFFFFFFFFFFFFFFFFFFF AND DUP2 MSTORE PUSH1 0x20 ADD SWAP1 DUP2 MSTORE PUSH1 0x20 ADD PUSH1 0x0 KECCAK256 SWAP1 POP PUSH1 0x0 DUP2 PUSH1 0x0 ADD SLOAD SUB PUSH2 0x176 JUMPI PUSH1 0x40 MLOAD PUSH32 0x8C379A000000000000000000000000000000000000000000000000000000000 DUP2 MSTORE PUSH1 0x4 ADD PUSH2 0x16D SWAP1 PUSH2 0xAA8 JUMP JUMPDEST PUSH1 0x40 MLOAD DUP1 SWAP2 SUB SWAP1 REVERT JUMPDEST PUSH1 0x0 ISZERO ISZERO DUP2 PUSH1 0x1 ADD PUSH1 0x0 SWAP1 SLOAD SWAP1 PUSH2 0x100 EXP SWAP1 DIV PUSH1 0xFF AND ISZERO ISZERO EQ PUSH2 0x1CE JUMPI PUSH1 0x40 MLOAD PUSH32 0x8C379A000000000000000000000000000000000000000000000000000000000 DUP2 MSTORE PUSH1 0x4 ADD PUSH2 0x1C5 SWAP1 PUSH2 0xB14 JUMP JUMPDEST PUSH1 0x40 MLOAD DUP1 SWAP2 SUB SWAP1 REVERT JUMPDEST PUSH1 0x1 DUP2 PUSH1 0x1 ADD PUSH1 0x0 PUSH2 0x100 EXP DUP2 SLOAD DUP2 PUSH1 0xFF MUL NOT AND SWAP1 DUP4 ISZERO ISZERO MUL OR SWAP1 SSTORE POP DUP2 DUP2 PUSH1 0x2 ADD DUP2 SWAP1 SSTORE POP DUP1 PUSH1 0x0 ADD SLOAD PUSH1 0x2 DUP4 DUP2 SLOAD DUP2 LT PUSH2 0x20D JUMPI PUSH2 0x20C PUSH2 0xB34 JUMP JUMPDEST JUMPDEST SWAP1 PUSH1 0x0 MSTORE PUSH1 0x20 PUSH1 0x0 KECCAK256 SWAP1 PUSH1 0x2 MUL ADD PUSH1 0x1 ADD PUSH1 0x0 DUP3 DUP3 SLOAD PUSH2 0x22D SWAP2 SWAP1 PUSH2 0xB92 JUMP JUMPDEST SWAP3 POP POP DUP2 SWAP1 SSTORE POP POP POP JUMP JUMPDEST PUSH1 0x0 PUSH1 0x1 PUSH1 0x0 CALLER PUSH20 0xFFFFFFFFFFFFFFFFFFFFFFFFFFFFFFFFFFFFFFFF AND PUSH20 0xFFFFFFFFFFFFFFFFFFFFFFFFFFFFFFFFFFFFFFFF AND DUP2 MSTORE PUSH1 0x20 ADD SWAP1 DUP2 MSTORE PUSH1 0x20 ADD PUSH1 0x0 KECCAK256 SWAP1 POP PUSH1 0x0 ISZERO ISZERO DUP2 PUSH1 0x1 ADD PUSH1 0x0 SWAP1 SLOAD SWAP1 PUSH2 0x100 EXP SWAP1 DIV PUSH1 0xFF AND ISZERO ISZERO EQ PUSH2 0x2D3 JUMPI PUSH1 0x40 MLOAD PUSH32 0x8C379A000000000000000000000000000000000000000000000000000000000 DUP2 MSTORE PUSH1 0x4 ADD PUSH2 0x2CA SWAP1 PUSH2 0xB14 JUMP JUMPDEST PUSH1 0x40 MLOAD DUP1 SWAP2 SUB SWAP1 REVERT JUMPDEST CALLER PUSH20 0xFFFFFFFFFFFFFFFFFFFFFFFFFFFFFFFFFFFFFFFF AND DUP3 PUSH20 0xFFFFFFFFFFFFFFFFFFFFFFFFFFFFFFFFFFFFFFFF AND SUB PUSH2 0x341 JUMPI PUSH1 0x40 MLOAD PUSH32 0x8C379A000000000000000000000000000000000000000000000000000000000 DUP2 MSTORE PUSH1 0x4 ADD PUSH2 0x338 SWAP1 PUSH2 0xC12 JUMP JUMPDEST PUSH1 0x40 MLOAD DUP1 SWAP2 SUB SWAP1 REVERT JUMPDEST JUMPDEST PUSH1 0x0 PUSH20 0xFFFFFFFFFFFFFFFFFFFFFFFFFFFFFFFFFFFFFFFF AND PUSH1 0x1 PUSH1 0x0 DUP5 PUSH20 0xFFFFFFFFFFFFFFFFFFFFFFFFFFFFFFFFFFFFFFFF AND PUSH20 0xFFFFFFFFFFFFFFFFFFFFFFFFFFFFFFFFFFFFFFFF AND DUP2 MSTORE PUSH1 0x20 ADD SWAP1 DUP2 MSTORE PUSH1 0x20 ADD PUSH1 0x0 KECCAK256 PUSH1 0x1 ADD PUSH1 0x1 SWAP1 SLOAD SWAP1 PUSH2 0x100 EXP SWAP1 DIV PUSH20 0xFFFFFFFFFFFFFFFFFFFFFFFFFFFFFFFFFFFFFFFF AND PUSH20 0xFFFFFFFFFFFFFFFFFFFFFFFFFFFFFFFFFFFFFFFF AND EQ PUSH2 0x4B0 JUMPI PUSH1 0x1 PUSH1 0x0 DUP4 PUSH20 0xFFFFFFFFFFFFFFFFFFFFFFFFFFFFFFFFFFFFFFFF AND PUSH20 0xFFFFFFFFFFFFFFFFFFFFFFFFFFFFFFFFFFFFFFFF AND DUP2 MSTORE PUSH1 0x20 ADD SWAP1 DUP2 MSTORE PUSH1 0x20 ADD PUSH1 0x0 KECCAK256 PUSH1 0x1 ADD PUSH1 0x1 SWAP1 SLOAD SWAP1 PUSH2 0x100 EXP SWAP1 DIV PUSH20 0xFFFFFFFFFFFFFFFFFFFFFFFFFFFFFFFFFFFFFFFF AND SWAP2 POP CALLER PUSH20 0xFFFFFFFFFFFFFFFFFFFFFFFFFFFFFFFFFFFFFFFF AND DUP3 PUSH20 0xFFFFFFFFFFFFFFFFFFFFFFFFFFFFFFFFFFFFFFFF AND SUB PUSH2 0x4AB JUMPI PUSH1 0x40 MLOAD PUSH32 0x8C379A000000000000000000000000000000000000000000000000000000000 DUP2 MSTORE PUSH1 0x4 ADD PUSH2 0x4A2 SWAP1 PUSH2 0xCA4 JUMP JUMPDEST PUSH1 0x40 MLOAD DUP1 SWAP2 SUB SWAP1 REVERT JUMPDEST PUSH2 0x342 JUMP JUMPDEST PUSH1 0x1 DUP2 PUSH1 0x1 ADD PUSH1 0x0 PUSH2 0x100 EXP DUP2 SLOAD DUP2 PUSH1 0xFF MUL NOT AND SWAP1 DUP4 ISZERO ISZERO MUL OR SWAP1 SSTORE POP DUP2 DUP2 PUSH1 0x1 ADD PUSH1 0x1 PUSH2 0x100 EXP DUP2 SLOAD DUP2 PUSH20 0xFFFFFFFFFFFFFFFFFFFFFFFFFFFFFFFFFFFFFFFF MUL NOT AND SWAP1 DUP4 PUSH20 0xFFFFFFFFFFFFFFFFFFFFFFFFFFFFFFFFFFFFFFFF AND MUL OR SWAP1 SSTORE POP PUSH1 0x0 PUSH1 0x1 PUSH1 0x0 DUP5 PUSH20 0xFFFFFFFFFFFFFFFFFFFFFFFFFFFFFFFFFFFFFFFF AND PUSH20 0xFFFFFFFFFFFFFFFFFFFFFFFFFFFFFFFFFFFFFFFF AND DUP2 MSTORE PUSH1 0x20 ADD SWAP1 DUP2 MSTORE PUSH1 0x20 ADD PUSH1 0x0 KECCAK256 SWAP1 POP PUSH1 0x1 ISZERO ISZERO DUP2 PUSH1 0x1 ADD PUSH1 0x0 SWAP1 SLOAD SWAP1 PUSH2 0x100 EXP SWAP1 DIV PUSH1 0xFF AND ISZERO ISZERO SUB PUSH2 0x5B9 JUMPI DUP2 PUSH1 0x0 ADD SLOAD PUSH1 0x2 DUP3 PUSH1 0x2 ADD SLOAD DUP2 SLOAD DUP2 LT PUSH2 0x58D JUMPI PUSH2 0x58C PUSH2 0xB34 JUMP JUMPDEST JUMPDEST SWAP1 PUSH1 0x0 MSTORE PUSH1 0x20 PUSH1 0x0 KECCAK256 SWAP1 PUSH1 0x2 MUL ADD PUSH1 0x1 ADD PUSH1 0x0 DUP3 DUP3 SLOAD PUSH2 0x5AD SWAP2 SWAP1 PUSH2 0xB92 JUMP JUMPDEST SWAP3 POP POP DUP2 SWAP1 SSTORE POP PUSH2 0x5D9 JUMP JUMPDEST DUP2 PUSH1 0x0 ADD SLOAD DUP2 PUSH1 0x0 ADD PUSH1 0x0 DUP3 DUP3 SLOAD PUSH2 0x5D1 SWAP2 SWAP1 PUSH2 0xB92 JUMP JUMPDEST SWAP3 POP POP DUP2 SWAP1 SSTORE POP JUMPDEST POP POP POP JUMP JUMPDEST PUSH1 0x0 DUP1 PUSH1 0x0 SWAP1 POP PUSH1 0x0 JUMPDEST PUSH1 0x2 DUP1 SLOAD SWAP1 POP DUP2 LT ISZERO PUSH2 0x661 JUMPI DUP2 PUSH1 0x2 DUP3 DUP2 SLOAD DUP2 LT PUSH2 0x60A JUMPI PUSH2 0x609 PUSH2 0xB34 JUMP JUMPDEST JUMPDEST SWAP1 PUSH1 0x0 MSTORE PUSH1 0x20 PUSH1 0x0 KECCAK256 SWAP1 PUSH1 0x2 MUL ADD PUSH1 0x1 ADD SLOAD GT ISZERO PUSH2 0x64E JUMPI PUSH1 0x2 DUP2 DUP2 SLOAD DUP2 LT PUSH2 0x636 JUMPI PUSH2 0x635 PUSH2 0xB34 JUMP JUMPDEST JUMPDEST SWAP1 PUSH1 0x0 MSTORE PUSH1 0x20 PUSH1 0x0 KECCAK256 SWAP1 PUSH1 0x2 MUL ADD PUSH1 0x1 ADD SLOAD SWAP2 POP DUP1 SWAP3 POP JUMPDEST DUP1 DUP1 PUSH2 0x659 SWAP1 PUSH2 0xCC4 JUMP JUMPDEST SWAP2 POP POP PUSH2 0x5E8 JUMP JUMPDEST POP POP SWAP1 JUMP JUMPDEST PUSH1 0x0 DUP1 SLOAD SWAP1 PUSH2 0x100 EXP SWAP1 DIV PUSH20 0xFFFFFFFFFFFFFFFFFFFFFFFFFFFFFFFFFFFFFFFF AND PUSH20 0xFFFFFFFFFFFFFFFFFFFFFFFFFFFFFFFFFFFFFFFF AND CALLER PUSH20 0xFFFFFFFFFFFFFFFFFFFFFFFFFFFFFFFFFFFFFFFF AND EQ PUSH2 0x6F4 JUMPI PUSH1 0x40 MLOAD PUSH32 0x8C379A000000000000000000000000000000000000000000000000000000000 DUP2 MSTORE PUSH1 0x4 ADD PUSH2 0x6EB SWAP1 PUSH2 0xD7E JUMP JUMPDEST PUSH1 0x40 MLOAD DUP1 SWAP2 SUB SWAP1 REVERT JUMPDEST PUSH1 0x0 ISZERO ISZERO PUSH1 0x1 PUSH1 0x0 DUP4 PUSH20 0xFFFFFFFFFFFFFFFFFFFFFFFFFFFFFFFFFFFFFFFF AND PUSH20 0xFFFFFFFFFFFFFFFFFFFFFFFFFFFFFFFFFFFFFFFF AND DUP2 MSTORE PUSH1 0x20 ADD SWAP1 DUP2 MSTORE PUSH1 0x20 ADD PUSH1 0x0 KECCAK256 PUSH1 0x1 ADD PUSH1 0x0 SWAP1 SLOAD SWAP1 PUSH2 0x100 EXP SWAP1 DIV PUSH1 0xFF AND ISZERO ISZERO EQ PUSH2 0x78A JUMPI PUSH1 0x40 MLOAD PUSH32 0x8C379A000000000000000000000000000000000000000000000000000000000 DUP2 MSTORE PUSH1 0x4 ADD PUSH2 0x781 SWAP1 PUSH2 0xDEA JUMP JUMPDEST PUSH1 0x40 MLOAD DUP1 SWAP2 SUB SWAP1 REVERT JUMPDEST PUSH1 0x0 PUSH1 0x1 PUSH1 0x0 DUP4 PUSH20 0xFFFFFFFFFFFFFFFFFFFFFFFFFFFFFFFFFFFFFFFF AND PUSH20 0xFFFFFFFFFFFFFFFFFFFFFFFFFFFFFFFFFFFFFFFF AND DUP2 MSTORE PUSH1 0x20 ADD SWAP1 DUP2 MSTORE PUSH1 0x20 ADD PUSH1 0x0 KECCAK256 PUSH1 0x0 ADD SLOAD EQ PUSH2 0x7D9 JUMPI PUSH1 0x0 DUP1 REVERT JUMPDEST PUSH1 0x1 DUP1 PUSH1 0x0 DUP4 PUSH20 0xFFFFFFFFFFFFFFFFFFFFFFFFFFFFFFFFFFFFFFFF AND PUSH20 0xFFFFFFFFFFFFFFFFFFFFFFFFFFFFFFFFFFFFFFFF AND DUP2 MSTORE PUSH1 0x20 ADD SWAP1 DUP2 MSTORE PUSH1 0x20 ADD PUSH1 0x0 KECCAK256 PUSH1 0x0 ADD DUP2 SWAP1 SSTORE POP PUSH1 0x0 PUSH1 0x1 PUSH1 0x0 DUP4 PUSH20 0xFFFFFFFFFFFFFFFFFFFFFFFFFFFFFFFFFFFFFFFF AND PUSH20 0xFFFFFFFFFFFFFFFFFFFFFFFFFFFFFFFFFFFFFFFF AND DUP2 MSTORE PUSH1 0x20 ADD SWAP1 DUP2 MSTORE PUSH1 0x20 ADD PUSH1 0x0 KECCAK256 PUSH1 0x2 ADD DUP2 SWAP1 SSTORE POP PUSH1 0x0 PUSH1 0x1 PUSH1 0x0 DUP4 PUSH20 0xFFFFFFFFFFFFFFFFFFFFFFFFFFFFFFFFFFFFFFFF AND PUSH20 0xFFFFFFFFFFFFFFFFFFFFFFFFFFFFFFFFFFFFFFFF AND DUP2 MSTORE PUSH1 0x20 ADD SWAP1 DUP2 MSTORE PUSH1 0x20 ADD PUSH1 0x0 KECCAK256 PUSH1 0x1 ADD PUSH1 0x0 PUSH2 0x100 EXP DUP2 SLOAD DUP2 PUSH1 0xFF MUL NOT AND SWAP1 DUP4 ISZERO ISZERO MUL OR SWAP1 SSTORE POP POP JUMP JUMPDEST PUSH1 0x0 PUSH1 0x2 PUSH2 0x8D2 PUSH2 0x5DE JUMP JUMPDEST DUP2 SLOAD DUP2 LT PUSH2 0x8E3 JUMPI PUSH2 0x8E2 PUSH2 0xB34 JUMP JUMPDEST JUMPDEST SWAP1 PUSH1 0x0 MSTORE PUSH1 0x20 PUSH1 0x0 KECCAK256 SWAP1 PUSH1 0x2 MUL ADD PUSH1 0x0 ADD SLOAD SWAP1 POP SWAP1 JUMP JUMPDEST PUSH1 0x0 DUP1 REVERT JUMPDEST PUSH1 0x0 DUP2 SWAP1 POP SWAP2 SWAP1 POP JUMP JUMPDEST PUSH2 0x912 DUP2 PUSH2 0x8FF JUMP JUMPDEST DUP2 EQ PUSH2 0x91D JUMPI PUSH1 0x0 DUP1 REVERT JUMPDEST POP JUMP JUMPDEST PUSH1 0x0 DUP2 CALLDATALOAD SWAP1 POP PUSH2 0x92F DUP2 PUSH2 0x909 JUMP JUMPDEST SWAP3 SWAP2 POP POP JUMP JUMPDEST PUSH1 0x0 PUSH1 0x20 DUP3 DUP5 SUB SLT ISZERO PUSH2 0x94B JUMPI PUSH2 0x94A PUSH2 0x8FA JUMP JUMPDEST JUMPDEST PUSH1 0x0 PUSH2 0x959 DUP5 DUP3 DUP6 ADD PUSH2 0x920 JUMP JUMPDEST SWAP2 POP POP SWAP3 SWAP2 POP POP JUMP JUMPDEST PUSH1 0x0 PUSH20 0xFFFFFFFFFFFFFFFFFFFFFFFFFFFFFFFFFFFFFFFF DUP3 AND SWAP1 POP SWAP2 SWAP1 POP JUMP JUMPDEST PUSH1 0x0 PUSH2 0x98D DUP3 PUSH2 0x962 JUMP JUMPDEST SWAP1 POP SWAP2 SWAP1 POP JUMP JUMPDEST PUSH2 0x99D DUP2 PUSH2 0x982 JUMP JUMPDEST DUP2 EQ PUSH2 0x9A8 JUMPI PUSH1 0x0 DUP1 REVERT JUMPDEST POP JUMP JUMPDEST PUSH1 0x0 DUP2 CALLDATALOAD SWAP1 POP PUSH2 0x9BA DUP2 PUSH2 0x994 JUMP JUMPDEST SWAP3 SWAP2 POP POP JUMP JUMPDEST PUSH1 0x0 PUSH1 0x20 DUP3 DUP5 SUB SLT ISZERO PUSH2 0x9D6 JUMPI PUSH2 0x9D5 PUSH2 0x8FA JUMP JUMPDEST JUMPDEST PUSH1 0x0 PUSH2 0x9E4 DUP5 DUP3 DUP6 ADD PUSH2 0x9AB JUMP JUMPDEST SWAP2 POP POP SWAP3 SWAP2 POP POP JUMP JUMPDEST PUSH2 0x9F6 DUP2 PUSH2 0x8FF JUMP JUMPDEST DUP3 MSTORE POP POP JUMP JUMPDEST PUSH1 0x0 PUSH1 0x20 DUP3 ADD SWAP1 POP PUSH2 0xA11 PUSH1 0x0 DUP4 ADD DUP5 PUSH2 0x9ED JUMP JUMPDEST SWAP3 SWAP2 POP POP JUMP JUMPDEST PUSH1 0x0 DUP2 SWAP1 POP SWAP2 SWAP1 POP JUMP JUMPDEST PUSH2 0xA2A DUP2 PUSH2 0xA17 JUMP JUMPDEST DUP3 MSTORE POP POP JUMP JUMPDEST PUSH1 0x0 PUSH1 0x20 DUP3 ADD SWAP1 POP PUSH2 0xA45 PUSH1 0x0 DUP4 ADD DUP5 PUSH2 0xA21 JUMP JUMPDEST SWAP3 SWAP2 POP POP JUMP JUMPDEST PUSH1 0x0 DUP3 DUP3 MSTORE PUSH1 0x20 DUP3 ADD SWAP1 POP SWAP3 SWAP2 POP POP JUMP JUMPDEST PUSH32 0x486173206E6F20726967687420746F20766F7465000000000000000000000000 PUSH1 0x0 DUP3 ADD MSTORE POP JUMP JUMPDEST PUSH1 0x0 PUSH2 0xA92 PUSH1 0x14 DUP4 PUSH2 0xA4B JUMP JUMPDEST SWAP2 POP PUSH2 0xA9D DUP3 PUSH2 0xA5C JUMP JUMPDEST PUSH1 0x20 DUP3 ADD SWAP1 POP SWAP2 SWAP1 POP JUMP JUMPDEST PUSH1 0x0 PUSH1 0x20 DUP3 ADD SWAP1 POP DUP2 DUP2 SUB PUSH1 0x0 DUP4 ADD MSTORE PUSH2 0xAC1 DUP2 PUSH2 0xA85 JUMP JUMPDEST SWAP1 POP SWAP2 SWAP1 POP JUMP JUMPDEST PUSH32 0x596F7520616C726561647920766F7465642E0000000000000000000000000000 PUSH1 0x0 DUP3 ADD MSTORE POP JUMP JUMPDEST PUSH1 0x0 PUSH2 0xAFE PUSH1 0x12 DUP4 PUSH2 0xA4B JUMP JUMPDEST SWAP2 POP PUSH2 0xB09 DUP3 PUSH2 0xAC8 JUMP JUMPDEST PUSH1 0x20 DUP3 ADD SWAP1 POP SWAP2 SWAP1 POP JUMP JUMPDEST PUSH1 0x0 PUSH1 0x20 DUP3 ADD SWAP1 POP DUP2 DUP2 SUB PUSH1 0x0 DUP4 ADD MSTORE PUSH2 0xB2D DUP2 PUSH2 0xAF1 JUMP JUMPDEST SWAP1 POP SWAP2 SWAP1 POP JUMP JUMPDEST PUSH32 0x4E487B7100000000000000000000000000000000000000000000000000000000 PUSH1 0x0 MSTORE PUSH1 0x32 PUSH1 0x4 MSTORE PUSH1 0x24 PUSH1 0x0 REVERT JUMPDEST PUSH32 0x4E487B7100000000000000000000000000000000000000000000000000000000 PUSH1 0x0 MSTORE PUSH1 0x11 PUSH1 0x4 MSTORE PUSH1 0x24 PUSH1 0x0 REVERT JUMPDEST PUSH1 0x0 PUSH2 0xB9D DUP3 PUSH2 0x8FF JUMP JUMPDEST SWAP2 POP PUSH2 0xBA8 DUP4 PUSH2 0x8FF JUMP JUMPDEST SWAP3 POP DUP3 DUP3 ADD SWAP1 POP DUP1 DUP3 GT ISZERO PUSH2 0xBC0 JUMPI PUSH2 0xBBF PUSH2 0xB63 JUMP JUMPDEST JUMPDEST SWAP3 SWAP2 POP POP JUMP JUMPDEST PUSH32 0x53656C662D64656C6567617465206973206E6F7420646973616C6F7765642E00 PUSH1 0x0 DUP3 ADD MSTORE POP JUMP JUMPDEST PUSH1 0x0 PUSH2 0xBFC PUSH1 0x1F DUP4 PUSH2 0xA4B JUMP JUMPDEST SWAP2 POP PUSH2 0xC07 DUP3 PUSH2 0xBC6 JUMP JUMPDEST PUSH1 0x20 DUP3 ADD SWAP1 POP SWAP2 SWAP1 POP JUMP JUMPDEST PUSH1 0x0 PUSH1 0x20 DUP3 ADD SWAP1 POP DUP2 DUP2 SUB PUSH1 0x0 DUP4 ADD MSTORE PUSH2 0xC2B DUP2 PUSH2 0xBEF JUMP JUMPDEST SWAP1 POP SWAP2 SWAP1 POP JUMP JUMPDEST PUSH32 0x596F75206172652064656C6567617465642066726F6D206F7264657220766F74 PUSH1 0x0 DUP3 ADD MSTORE PUSH32 0x6572000000000000000000000000000000000000000000000000000000000000 PUSH1 0x20 DUP3 ADD MSTORE POP JUMP JUMPDEST PUSH1 0x0 PUSH2 0xC8E PUSH1 0x22 DUP4 PUSH2 0xA4B JUMP JUMPDEST SWAP2 POP PUSH2 0xC99 DUP3 PUSH2 0xC32 JUMP JUMPDEST PUSH1 0x40 DUP3 ADD SWAP1 POP SWAP2 SWAP1 POP JUMP JUMPDEST PUSH1 0x0 PUSH1 0x20 DUP3 ADD SWAP1 POP DUP2 DUP2 SUB PUSH1 0x0 DUP4 ADD MSTORE PUSH2 0xCBD DUP2 PUSH2 0xC81 JUMP JUMPDEST SWAP1 POP SWAP2 SWAP1 POP JUMP JUMPDEST PUSH1 0x0 PUSH2 0xCCF DUP3 PUSH2 0x8FF JUMP JUMPDEST SWAP2 POP PUSH32 0xFFFFFFFFFFFFFFFFFFFFFFFFFFFFFFFFFFFFFFFFFFFFFFFFFFFFFFFFFFFFFFFF DUP3 SUB PUSH2 0xD01 JUMPI PUSH2 0xD00 PUSH2 0xB63 JUMP JUMPDEST JUMPDEST PUSH1 0x1 DUP3 ADD SWAP1 POP SWAP2 SWAP1 POP JUMP JUMPDEST PUSH32 0x4F6E6C79206368616972506572736F6E2063616E206769766520726967687420 PUSH1 0x0 DUP3 ADD MSTORE PUSH32 0x746F20766F74652E000000000000000000000000000000000000000000000000 PUSH1 0x20 DUP3 ADD MSTORE POP JUMP JUMPDEST PUSH1 0x0 PUSH2 0xD68 PUSH1 0x28 DUP4 PUSH2 0xA4B JUMP JUMPDEST SWAP2 POP PUSH2 0xD73 DUP3 PUSH2 0xD0C JUMP JUMPDEST PUSH1 0x40 DUP3 ADD SWAP1 POP SWAP2 SWAP1 POP JUMP JUMPDEST PUSH1 0x0 PUSH1 0x20 DUP3 ADD SWAP1 POP DUP2 DUP2 SUB PUSH1 0x0 DUP4 ADD MSTORE PUSH2 0xD97 DUP2 PUSH2 0xD5B JUMP JUMPDEST SWAP1 POP SWAP2 SWAP1 POP JUMP JUMPDEST PUSH32 0x54686520766F74657220697320616C726561647920766F7465642E0000000000 PUSH1 0x0 DUP3 ADD MSTORE POP JUMP JUMPDEST PUSH1 0x0 PUSH2 0xDD4 PUSH1 0x1B DUP4 PUSH2 0xA4B JUMP JUMPDEST SWAP2 POP PUSH2 0xDDF DUP3 PUSH2 0xD9E JUMP JUMPDEST PUSH1 0x20 DUP3 ADD SWAP1 POP SWAP2 SWAP1 POP JUMP JUMPDEST PUSH1 0x0 PUSH1 0x20 DUP3 ADD SWAP1 POP DUP2 DUP2 SUB PUSH1 0x0 DUP4 ADD MSTORE PUSH2 0xE03 DUP2 PUSH2 0xDC7 JUMP JUMPDEST SWAP1 POP SWAP2 SWAP1 POP JUMP INVALID LOG2 PUSH5 0x6970667358 0x22 SLT KECCAK256 0xB3 BALANCE 0xA9 REVERT INVALID 0x21 SMOD 0xE5 0xF6 DUP11 PUSH23 0xC636CB6FA7BD0B1B008EADABF721B7481E28BE26756473 PUSH16 0x6C634300081100330000000000000000 "
				},
				"gasEstimates": {
					"creation": {
						"codeDepositCost": "729600",
						"executionCost": "infinite",
						"totalCost": "infinite"
					},
					"external": {
						"delegate(address)": "infinite",
						"giveRightToVote(address)": "58835",
						"vote(uint256)": "infinite",
						"winnerName()": "infinite",
						"winningProposal()": "infinite"
					}
				},
				"methodIdentifiers": {
					"delegate(address)": "5c19a95c",
					"giveRightToVote(address)": "9e7b8d61",
					"vote(uint256)": "0121b93f",
					"winnerName()": "e2ba53f0",
					"winningProposal()": "609ff1bd"
				}
			},
			"storageLayout": {
				"storage": [
					{
						"astId": 18,
						"contract": "contracts/Lab3_Ballot_FX17394.sol:Ballot_FX17394",
						"label": "chairPerson",
						"offset": 0,
						"slot": "0",
						"type": "t_address"
					},
					{
						"astId": 23,
						"contract": "contracts/Lab3_Ballot_FX17394.sol:Ballot_FX17394",
						"label": "voters",
						"offset": 0,
						"slot": "1",
						"type": "t_mapping(t_address,t_struct(Voter)11_storage)"
					},
					{
						"astId": 27,
						"contract": "contracts/Lab3_Ballot_FX17394.sol:Ballot_FX17394",
						"label": "proposals",
						"offset": 0,
						"slot": "2",
						"type": "t_array(t_struct(Proposal)16_storage)dyn_storage"
					}
				],
				"types": {
					"t_address": {
						"encoding": "inplace",
						"label": "address",
						"numberOfBytes": "20"
					},
					"t_array(t_struct(Proposal)16_storage)dyn_storage": {
						"base": "t_struct(Proposal)16_storage",
						"encoding": "dynamic_array",
						"label": "struct Ballot_FX17394.Proposal[]",
						"numberOfBytes": "32"
					},
					"t_bool": {
						"encoding": "inplace",
						"label": "bool",
						"numberOfBytes": "1"
					},
					"t_bytes32": {
						"encoding": "inplace",
						"label": "bytes32",
						"numberOfBytes": "32"
					},
					"t_mapping(t_address,t_struct(Voter)11_storage)": {
						"encoding": "mapping",
						"key": "t_address",
						"label": "mapping(address => struct Ballot_FX17394.Voter)",
						"numberOfBytes": "32",
						"value": "t_struct(Voter)11_storage"
					},
					"t_struct(Proposal)16_storage": {
						"encoding": "inplace",
						"label": "struct Ballot_FX17394.Proposal",
						"members": [
							{
								"astId": 13,
								"contract": "contracts/Lab3_Ballot_FX17394.sol:Ballot_FX17394",
								"label": "name",
								"offset": 0,
								"slot": "0",
								"type": "t_bytes32"
							},
							{
								"astId": 15,
								"contract": "contracts/Lab3_Ballot_FX17394.sol:Ballot_FX17394",
								"label": "voteCount",
								"offset": 0,
								"slot": "1",
								"type": "t_uint256"
							}
						],
						"numberOfBytes": "64"
					},
					"t_struct(Voter)11_storage": {
						"encoding": "inplace",
						"label": "struct Ballot_FX17394.Voter",
						"members": [
							{
								"astId": 4,
								"contract": "contracts/Lab3_Ballot_FX17394.sol:Ballot_FX17394",
								"label": "weight",
								"offset": 0,
								"slot": "0",
								"type": "t_uint256"
							},
							{
								"astId": 6,
								"contract": "contracts/Lab3_Ballot_FX17394.sol:Ballot_FX17394",
								"label": "voted",
								"offset": 0,
								"slot": "1",
								"type": "t_bool"
							},
							{
								"astId": 8,
								"contract": "contracts/Lab3_Ballot_FX17394.sol:Ballot_FX17394",
								"label": "delegate",
								"offset": 1,
								"slot": "1",
								"type": "t_address"
							},
							{
								"astId": 10,
								"contract": "contracts/Lab3_Ballot_FX17394.sol:Ballot_FX17394",
								"label": "vote",
								"offset": 0,
								"slot": "2",
								"type": "t_uint256"
							}
						],
						"numberOfBytes": "96"
					},
					"t_uint256": {
						"encoding": "inplace",
						"label": "uint256",
						"numberOfBytes": "32"
					}
				}
			},
			"userdoc": {
				"kind": "user",
				"methods": {},
				"version": 1
			}
		}
	}
}