{
	"contracts/Lab6_Escrow_FX17394.sol": {
		"Escrow_FX17394": {
			"abi": [
				{
					"inputs": [
						{
							"internalType": "address payable",
							"name": "_buyer",
							"type": "address"
						},
						{
							"internalType": "address payable",
							"name": "_seller",
							"type": "address"
						}
					],
					"stateMutability": "nonpayable",
					"type": "constructor"
				},
				{
					"inputs": [],
					"name": "arbiter",
					"outputs": [
						{
							"internalType": "address",
							"name": "",
							"type": "address"
						}
					],
					"stateMutability": "view",
					"type": "function"
				},
				{
					"inputs": [],
					"name": "buyer",
					"outputs": [
						{
							"internalType": "address payable",
							"name": "",
							"type": "address"
						}
					],
					"stateMutability": "view",
					"type": "function"
				},
				{
					"inputs": [],
					"name": "confirmDelivery",
					"outputs": [],
					"stateMutability": "nonpayable",
					"type": "function"
				},
				{
					"inputs": [],
					"name": "confirmPayment",
					"outputs": [],
					"stateMutability": "nonpayable",
					"type": "function"
				},
				{
					"inputs": [],
					"name": "returnPayment",
					"outputs": [],
					"stateMutability": "nonpayable",
					"type": "function"
				},
				{
					"inputs": [],
					"name": "seller",
					"outputs": [
						{
							"internalType": "address payable",
							"name": "",
							"type": "address"
						}
					],
					"stateMutability": "view",
					"type": "function"
				},
				{
					"inputs": [],
					"name": "state",
					"outputs": [
						{
							"internalType": "enum Escrow_FX17394.State",
							"name": "",
							"type": "uint8"
						}
					],
					"stateMutability": "view",
					"type": "function"
				}
			],
			"devdoc": {
				"kind": "dev",
				"methods": {},
				"version": 1
			},
			"evm": {
				"assembly": "    /* \"contracts/Lab6_Escrow_FX17394.sol\":33:1305  contract Escrow_FX17394 {... */\n  mstore(0x40, 0x80)\n    /* \"contracts/Lab6_Escrow_FX17394.sol\":296:487  constructor(address payable _buyer, address payable _seller) public{... */\n  callvalue\n  dup1\n  iszero\n  tag_1\n  jumpi\n  0x00\n  dup1\n  revert\ntag_1:\n  pop\n  mload(0x40)\n  sub(codesize, bytecodeSize)\n  dup1\n  bytecodeSize\n  dup4\n  codecopy\n  dup2\n  dup2\n  add\n  0x40\n  mstore\n  dup2\n  add\n  swap1\n  tag_2\n  swap2\n  swap1\n  tag_3\n  jump\t// in\ntag_2:\n    /* \"contracts/Lab6_Escrow_FX17394.sol\":383:393  msg.sender */\n  caller\n    /* \"contracts/Lab6_Escrow_FX17394.sol\":373:380  arbiter */\n  0x02\n  0x00\n    /* \"contracts/Lab6_Escrow_FX17394.sol\":373:393  arbiter = msg.sender */\n  0x0100\n  exp\n  dup2\n  sload\n  dup2\n  0xffffffffffffffffffffffffffffffffffffffff\n  mul\n  not\n  and\n  swap1\n  dup4\n  0xffffffffffffffffffffffffffffffffffffffff\n  and\n  mul\n  or\n  swap1\n  sstore\n  pop\n    /* \"contracts/Lab6_Escrow_FX17394.sol\":412:419  _seller */\n  dup1\n    /* \"contracts/Lab6_Escrow_FX17394.sol\":403:409  seller */\n  0x01\n  0x00\n    /* \"contracts/Lab6_Escrow_FX17394.sol\":403:419  seller = _seller */\n  0x0100\n  exp\n  dup2\n  sload\n  dup2\n  0xffffffffffffffffffffffffffffffffffffffff\n  mul\n  not\n  and\n  swap1\n  dup4\n  0xffffffffffffffffffffffffffffffffffffffff\n  and\n  mul\n  or\n  swap1\n  sstore\n  pop\n    /* \"contracts/Lab6_Escrow_FX17394.sol\":437:443  _buyer */\n  dup2\n    /* \"contracts/Lab6_Escrow_FX17394.sol\":429:434  buyer */\n  0x00\n  dup1\n    /* \"contracts/Lab6_Escrow_FX17394.sol\":429:443  buyer = _buyer */\n  0x0100\n  exp\n  dup2\n  sload\n  dup2\n  0xffffffffffffffffffffffffffffffffffffffff\n  mul\n  not\n  and\n  swap1\n  dup4\n  0xffffffffffffffffffffffffffffffffffffffff\n  and\n  mul\n  or\n  swap1\n  sstore\n  pop\n    /* \"contracts/Lab6_Escrow_FX17394.sol\":461:480  State.awate_payment */\n  0x00\n    /* \"contracts/Lab6_Escrow_FX17394.sol\":453:458  state */\n  0x04\n  0x00\n    /* \"contracts/Lab6_Escrow_FX17394.sol\":453:480  state = State.awate_payment */\n  0x0100\n  exp\n  dup2\n  sload\n  dup2\n  0xff\n  mul\n  not\n  and\n  swap1\n  dup4\n  0x02\n  dup2\n  gt\n  iszero\n  tag_6\n  jumpi\n  tag_7\n  tag_8\n  jump\t// in\ntag_7:\ntag_6:\n  mul\n  or\n  swap1\n  sstore\n  pop\n    /* \"contracts/Lab6_Escrow_FX17394.sol\":296:487  constructor(address payable _buyer, address payable _seller) public{... */\n  pop\n  pop\n    /* \"contracts/Lab6_Escrow_FX17394.sol\":33:1305  contract Escrow_FX17394 {... */\n  jump(tag_9)\n    /* \"#utility.yul\":88:205   */\ntag_11:\n    /* \"#utility.yul\":197:198   */\n  0x00\n    /* \"#utility.yul\":194:195   */\n  dup1\n    /* \"#utility.yul\":187:199   */\n  revert\n    /* \"#utility.yul\":334:460   */\ntag_13:\n    /* \"#utility.yul\":371:378   */\n  0x00\n    /* \"#utility.yul\":411:453   */\n  0xffffffffffffffffffffffffffffffffffffffff\n    /* \"#utility.yul\":404:409   */\n  dup3\n    /* \"#utility.yul\":400:454   */\n  and\n    /* \"#utility.yul\":389:454   */\n  swap1\n  pop\n    /* \"#utility.yul\":334:460   */\n  swap2\n  swap1\n  pop\n  jump\t// out\n    /* \"#utility.yul\":466:570   */\ntag_14:\n    /* \"#utility.yul\":511:518   */\n  0x00\n    /* \"#utility.yul\":540:564   */\n  tag_23\n    /* \"#utility.yul\":558:563   */\n  dup3\n    /* \"#utility.yul\":540:564   */\n  tag_13\n  jump\t// in\ntag_23:\n    /* \"#utility.yul\":529:564   */\n  swap1\n  pop\n    /* \"#utility.yul\":466:570   */\n  swap2\n  swap1\n  pop\n  jump\t// out\n    /* \"#utility.yul\":576:714   */\ntag_15:\n    /* \"#utility.yul\":657:689   */\n  tag_25\n    /* \"#utility.yul\":683:688   */\n  dup2\n    /* \"#utility.yul\":657:689   */\n  tag_14\n  jump\t// in\ntag_25:\n    /* \"#utility.yul\":650:655   */\n  dup2\n    /* \"#utility.yul\":647:690   */\n  eq\n    /* \"#utility.yul\":637:708   */\n  tag_26\n  jumpi\n    /* \"#utility.yul\":704:705   */\n  0x00\n    /* \"#utility.yul\":701:702   */\n  dup1\n    /* \"#utility.yul\":694:706   */\n  revert\n    /* \"#utility.yul\":637:708   */\ntag_26:\n    /* \"#utility.yul\":576:714   */\n  pop\n  jump\t// out\n    /* \"#utility.yul\":720:879   */\ntag_16:\n    /* \"#utility.yul\":785:790   */\n  0x00\n    /* \"#utility.yul\":816:822   */\n  dup2\n    /* \"#utility.yul\":810:823   */\n  mload\n    /* \"#utility.yul\":801:823   */\n  swap1\n  pop\n    /* \"#utility.yul\":832:873   */\n  tag_28\n    /* \"#utility.yul\":867:872   */\n  dup2\n    /* \"#utility.yul\":832:873   */\n  tag_15\n  jump\t// in\ntag_28:\n    /* \"#utility.yul\":720:879   */\n  swap3\n  swap2\n  pop\n  pop\n  jump\t// out\n    /* \"#utility.yul\":885:1424   */\ntag_3:\n    /* \"#utility.yul\":980:986   */\n  0x00\n    /* \"#utility.yul\":988:994   */\n  dup1\n    /* \"#utility.yul\":1037:1039   */\n  0x40\n    /* \"#utility.yul\":1025:1034   */\n  dup4\n    /* \"#utility.yul\":1016:1023   */\n  dup6\n    /* \"#utility.yul\":1012:1035   */\n  sub\n    /* \"#utility.yul\":1008:1040   */\n  slt\n    /* \"#utility.yul\":1005:1124   */\n  iszero\n  tag_30\n  jumpi\n    /* \"#utility.yul\":1043:1122   */\n  tag_31\n  tag_11\n  jump\t// in\ntag_31:\n    /* \"#utility.yul\":1005:1124   */\ntag_30:\n    /* \"#utility.yul\":1163:1164   */\n  0x00\n    /* \"#utility.yul\":1188:1260   */\n  tag_32\n    /* \"#utility.yul\":1252:1259   */\n  dup6\n    /* \"#utility.yul\":1243:1249   */\n  dup3\n    /* \"#utility.yul\":1232:1241   */\n  dup7\n    /* \"#utility.yul\":1228:1250   */\n  add\n    /* \"#utility.yul\":1188:1260   */\n  tag_16\n  jump\t// in\ntag_32:\n    /* \"#utility.yul\":1178:1260   */\n  swap3\n  pop\n    /* \"#utility.yul\":1134:1270   */\n  pop\n    /* \"#utility.yul\":1309:1311   */\n  0x20\n    /* \"#utility.yul\":1335:1407   */\n  tag_33\n    /* \"#utility.yul\":1399:1406   */\n  dup6\n    /* \"#utility.yul\":1390:1396   */\n  dup3\n    /* \"#utility.yul\":1379:1388   */\n  dup7\n    /* \"#utility.yul\":1375:1397   */\n  add\n    /* \"#utility.yul\":1335:1407   */\n  tag_16\n  jump\t// in\ntag_33:\n    /* \"#utility.yul\":1325:1407   */\n  swap2\n  pop\n    /* \"#utility.yul\":1280:1417   */\n  pop\n    /* \"#utility.yul\":885:1424   */\n  swap3\n  pop\n  swap3\n  swap1\n  pop\n  jump\t// out\n    /* \"#utility.yul\":1430:1610   */\ntag_8:\n    /* \"#utility.yul\":1478:1555   */\n  0x4e487b7100000000000000000000000000000000000000000000000000000000\n    /* \"#utility.yul\":1475:1476   */\n  0x00\n    /* \"#utility.yul\":1468:1556   */\n  mstore\n    /* \"#utility.yul\":1575:1579   */\n  0x21\n    /* \"#utility.yul\":1572:1573   */\n  0x04\n    /* \"#utility.yul\":1565:1580   */\n  mstore\n    /* \"#utility.yul\":1599:1603   */\n  0x24\n    /* \"#utility.yul\":1596:1597   */\n  0x00\n    /* \"#utility.yul\":1589:1604   */\n  revert\n    /* \"contracts/Lab6_Escrow_FX17394.sol\":33:1305  contract Escrow_FX17394 {... */\ntag_9:\n  dataSize(sub_0)\n  dup1\n  dataOffset(sub_0)\n  0x00\n  codecopy\n  0x00\n  return\nstop\n\nsub_0: assembly {\n        /* \"contracts/Lab6_Escrow_FX17394.sol\":33:1305  contract Escrow_FX17394 {... */\n      mstore(0x40, 0x80)\n      callvalue\n      dup1\n      iszero\n      tag_1\n      jumpi\n      0x00\n      dup1\n      revert\n    tag_1:\n      pop\n      jumpi(tag_2, lt(calldatasize, 0x04))\n      shr(0xe0, calldataload(0x00))\n      dup1\n      0x62ef1f81\n      gt\n      tag_10\n      jumpi\n      dup1\n      0x62ef1f81\n      eq\n      tag_6\n      jumpi\n      dup1\n      0x7150d8ae\n      eq\n      tag_7\n      jumpi\n      dup1\n      0xc19d93fb\n      eq\n      tag_8\n      jumpi\n      dup1\n      0xfe25e00a\n      eq\n      tag_9\n      jumpi\n      jump(tag_2)\n    tag_10:\n      dup1\n      0x08551a53\n      eq\n      tag_3\n      jumpi\n      dup1\n      0x3dcfe411\n      eq\n      tag_4\n      jumpi\n      dup1\n      0x5e10177b\n      eq\n      tag_5\n      jumpi\n    tag_2:\n      0x00\n      dup1\n      revert\n        /* \"contracts/Lab6_Escrow_FX17394.sol\":97:126  address payable public seller */\n    tag_3:\n      tag_11\n      tag_12\n      jump\t// in\n    tag_11:\n      mload(0x40)\n      tag_13\n      swap2\n      swap1\n      tag_14\n      jump\t// in\n    tag_13:\n      mload(0x40)\n      dup1\n      swap2\n      sub\n      swap1\n      return\n        /* \"contracts/Lab6_Escrow_FX17394.sol\":1175:1302  function returnPayment () public onlySeller instate(State.awate_delivery){... */\n    tag_4:\n      tag_15\n      tag_16\n      jump\t// in\n    tag_15:\n      stop\n        /* \"contracts/Lab6_Escrow_FX17394.sol\":1009:1169  function confirmDelivery() public onlyBuyer instate(State.awate_delivery){... */\n    tag_5:\n      tag_17\n      tag_18\n      jump\t// in\n    tag_17:\n      stop\n        /* \"contracts/Lab6_Escrow_FX17394.sol\":887:1003  function confirmPayment() public onlyBuyer instate(State.awate_payment){... */\n    tag_6:\n      tag_19\n      tag_20\n      jump\t// in\n    tag_19:\n      stop\n        /* \"contracts/Lab6_Escrow_FX17394.sol\":63:91  address payable public buyer */\n    tag_7:\n      tag_21\n      tag_22\n      jump\t// in\n    tag_21:\n      mload(0x40)\n      tag_23\n      swap2\n      swap1\n      tag_14\n      jump\t// in\n    tag_23:\n      mload(0x40)\n      dup1\n      swap2\n      sub\n      swap1\n      return\n        /* \"contracts/Lab6_Escrow_FX17394.sol\":271:289  State public state */\n    tag_8:\n      tag_24\n      tag_25\n      jump\t// in\n    tag_24:\n      mload(0x40)\n      tag_26\n      swap2\n      swap1\n      tag_27\n      jump\t// in\n    tag_26:\n      mload(0x40)\n      dup1\n      swap2\n      sub\n      swap1\n      return\n        /* \"contracts/Lab6_Escrow_FX17394.sol\":132:154  address public arbiter */\n    tag_9:\n      tag_28\n      tag_29\n      jump\t// in\n    tag_28:\n      mload(0x40)\n      tag_30\n      swap2\n      swap1\n      tag_31\n      jump\t// in\n    tag_30:\n      mload(0x40)\n      dup1\n      swap2\n      sub\n      swap1\n      return\n        /* \"contracts/Lab6_Escrow_FX17394.sol\":97:126  address payable public seller */\n    tag_12:\n      0x01\n      0x00\n      swap1\n      sload\n      swap1\n      0x0100\n      exp\n      swap1\n      div\n      0xffffffffffffffffffffffffffffffffffffffff\n      and\n      dup2\n      jump\t// out\n        /* \"contracts/Lab6_Escrow_FX17394.sol\":1175:1302  function returnPayment () public onlySeller instate(State.awate_delivery){... */\n    tag_16:\n        /* \"contracts/Lab6_Escrow_FX17394.sol\":807:813  seller */\n      0x01\n      0x00\n      swap1\n      sload\n      swap1\n      0x0100\n      exp\n      swap1\n      div\n      0xffffffffffffffffffffffffffffffffffffffff\n      and\n        /* \"contracts/Lab6_Escrow_FX17394.sol\":793:813  msg.sender == seller */\n      0xffffffffffffffffffffffffffffffffffffffff\n      and\n        /* \"contracts/Lab6_Escrow_FX17394.sol\":793:803  msg.sender */\n      caller\n        /* \"contracts/Lab6_Escrow_FX17394.sol\":793:813  msg.sender == seller */\n      0xffffffffffffffffffffffffffffffffffffffff\n      and\n      eq\n        /* \"contracts/Lab6_Escrow_FX17394.sol\":793:838  msg.sender == seller || msg.sender == arbiter */\n      dup1\n      tag_33\n      jumpi\n      pop\n        /* \"contracts/Lab6_Escrow_FX17394.sol\":831:838  arbiter */\n      0x02\n      0x00\n      swap1\n      sload\n      swap1\n      0x0100\n      exp\n      swap1\n      div\n      0xffffffffffffffffffffffffffffffffffffffff\n      and\n        /* \"contracts/Lab6_Escrow_FX17394.sol\":817:838  msg.sender == arbiter */\n      0xffffffffffffffffffffffffffffffffffffffff\n      and\n        /* \"contracts/Lab6_Escrow_FX17394.sol\":817:827  msg.sender */\n      caller\n        /* \"contracts/Lab6_Escrow_FX17394.sol\":817:838  msg.sender == arbiter */\n      0xffffffffffffffffffffffffffffffffffffffff\n      and\n      eq\n        /* \"contracts/Lab6_Escrow_FX17394.sol\":793:838  msg.sender == seller || msg.sender == arbiter */\n    tag_33:\n        /* \"contracts/Lab6_Escrow_FX17394.sol\":785:863  require(msg.sender == seller || msg.sender == arbiter, \"You are not a seller\") */\n      tag_34\n      jumpi\n      mload(0x40)\n      0x08c379a000000000000000000000000000000000000000000000000000000000\n      dup2\n      mstore\n      0x04\n      add\n      tag_35\n      swap1\n      tag_36\n      jump\t// in\n    tag_35:\n      mload(0x40)\n      dup1\n      swap2\n      sub\n      swap1\n      revert\n    tag_34:\n        /* \"contracts/Lab6_Escrow_FX17394.sol\":1227:1247  State.awate_delivery */\n      0x01\n        /* \"contracts/Lab6_Escrow_FX17394.sol\":558:571  expectedState */\n      dup1\n        /* \"contracts/Lab6_Escrow_FX17394.sol\":549:571  state == expectedState */\n      0x02\n      dup2\n      gt\n      iszero\n      tag_38\n      jumpi\n      tag_39\n      tag_40\n      jump\t// in\n    tag_39:\n    tag_38:\n        /* \"contracts/Lab6_Escrow_FX17394.sol\":549:554  state */\n      0x04\n      0x00\n      swap1\n      sload\n      swap1\n      0x0100\n      exp\n      swap1\n      div\n      0xff\n      and\n        /* \"contracts/Lab6_Escrow_FX17394.sol\":549:571  state == expectedState */\n      0x02\n      dup2\n      gt\n      iszero\n      tag_41\n      jumpi\n      tag_42\n      tag_40\n      jump\t// in\n    tag_42:\n    tag_41:\n      eq\n        /* \"contracts/Lab6_Escrow_FX17394.sol\":541:600  require(state == expectedState , \"Expected State note met\") */\n      tag_43\n      jumpi\n      mload(0x40)\n      0x08c379a000000000000000000000000000000000000000000000000000000000\n      dup2\n      mstore\n      0x04\n      add\n      tag_44\n      swap1\n      tag_45\n      jump\t// in\n    tag_44:\n      mload(0x40)\n      dup1\n      swap2\n      sub\n      swap1\n      revert\n    tag_43:\n        /* \"contracts/Lab6_Escrow_FX17394.sol\":1258:1263  buyer */\n      0x00\n      dup1\n      sload\n      swap1\n      0x0100\n      exp\n      swap1\n      div\n      0xffffffffffffffffffffffffffffffffffffffff\n      and\n        /* \"contracts/Lab6_Escrow_FX17394.sol\":1258:1272  buyer.transfer */\n      0xffffffffffffffffffffffffffffffffffffffff\n      and\n        /* \"contracts/Lab6_Escrow_FX17394.sol\":1258:1295  buyer.transfer(address(this).balance) */\n      0x08fc\n        /* \"contracts/Lab6_Escrow_FX17394.sol\":1273:1294  address(this).balance */\n      selfbalance\n        /* \"contracts/Lab6_Escrow_FX17394.sol\":1258:1295  buyer.transfer(address(this).balance) */\n      swap1\n      dup2\n      iszero\n      mul\n      swap1\n      mload(0x40)\n      0x00\n      mload(0x40)\n      dup1\n      dup4\n      sub\n      dup2\n      dup6\n      dup9\n      dup9\n      call\n      swap4\n      pop\n      pop\n      pop\n      pop\n      iszero\n      dup1\n      iszero\n      tag_48\n      jumpi\n      returndatasize\n      0x00\n      dup1\n      returndatacopy\n      revert(0x00, returndatasize)\n    tag_48:\n      pop\n        /* \"contracts/Lab6_Escrow_FX17394.sol\":873:874  _ */\n      pop\n        /* \"contracts/Lab6_Escrow_FX17394.sol\":1175:1302  function returnPayment () public onlySeller instate(State.awate_delivery){... */\n      jump\t// out\n        /* \"contracts/Lab6_Escrow_FX17394.sol\":1009:1169  function confirmDelivery() public onlyBuyer instate(State.awate_delivery){... */\n    tag_18:\n        /* \"contracts/Lab6_Escrow_FX17394.sol\":676:681  buyer */\n      0x00\n      dup1\n      sload\n      swap1\n      0x0100\n      exp\n      swap1\n      div\n      0xffffffffffffffffffffffffffffffffffffffff\n      and\n        /* \"contracts/Lab6_Escrow_FX17394.sol\":662:681  msg.sender == buyer */\n      0xffffffffffffffffffffffffffffffffffffffff\n      and\n        /* \"contracts/Lab6_Escrow_FX17394.sol\":662:672  msg.sender */\n      caller\n        /* \"contracts/Lab6_Escrow_FX17394.sol\":662:681  msg.sender == buyer */\n      0xffffffffffffffffffffffffffffffffffffffff\n      and\n      eq\n        /* \"contracts/Lab6_Escrow_FX17394.sol\":662:706  msg.sender == buyer || msg.sender == arbiter */\n      dup1\n      tag_50\n      jumpi\n      pop\n        /* \"contracts/Lab6_Escrow_FX17394.sol\":699:706  arbiter */\n      0x02\n      0x00\n      swap1\n      sload\n      swap1\n      0x0100\n      exp\n      swap1\n      div\n      0xffffffffffffffffffffffffffffffffffffffff\n      and\n        /* \"contracts/Lab6_Escrow_FX17394.sol\":685:706  msg.sender == arbiter */\n      0xffffffffffffffffffffffffffffffffffffffff\n      and\n        /* \"contracts/Lab6_Escrow_FX17394.sol\":685:695  msg.sender */\n      caller\n        /* \"contracts/Lab6_Escrow_FX17394.sol\":685:706  msg.sender == arbiter */\n      0xffffffffffffffffffffffffffffffffffffffff\n      and\n      eq\n        /* \"contracts/Lab6_Escrow_FX17394.sol\":662:706  msg.sender == buyer || msg.sender == arbiter */\n    tag_50:\n        /* \"contracts/Lab6_Escrow_FX17394.sol\":654:730  require(msg.sender == buyer || msg.sender == arbiter, \"You are not a buyer\") */\n      tag_51\n      jumpi\n      mload(0x40)\n      0x08c379a000000000000000000000000000000000000000000000000000000000\n      dup2\n      mstore\n      0x04\n      add\n      tag_52\n      swap1\n      tag_53\n      jump\t// in\n    tag_52:\n      mload(0x40)\n      dup1\n      swap2\n      sub\n      swap1\n      revert\n    tag_51:\n        /* \"contracts/Lab6_Escrow_FX17394.sol\":1061:1081  State.awate_delivery */\n      0x01\n        /* \"contracts/Lab6_Escrow_FX17394.sol\":558:571  expectedState */\n      dup1\n        /* \"contracts/Lab6_Escrow_FX17394.sol\":549:571  state == expectedState */\n      0x02\n      dup2\n      gt\n      iszero\n      tag_55\n      jumpi\n      tag_56\n      tag_40\n      jump\t// in\n    tag_56:\n    tag_55:\n        /* \"contracts/Lab6_Escrow_FX17394.sol\":549:554  state */\n      0x04\n      0x00\n      swap1\n      sload\n      swap1\n      0x0100\n      exp\n      swap1\n      div\n      0xff\n      and\n        /* \"contracts/Lab6_Escrow_FX17394.sol\":549:571  state == expectedState */\n      0x02\n      dup2\n      gt\n      iszero\n      tag_57\n      jumpi\n      tag_58\n      tag_40\n      jump\t// in\n    tag_58:\n    tag_57:\n      eq\n        /* \"contracts/Lab6_Escrow_FX17394.sol\":541:600  require(state == expectedState , \"Expected State note met\") */\n      tag_59\n      jumpi\n      mload(0x40)\n      0x08c379a000000000000000000000000000000000000000000000000000000000\n      dup2\n      mstore\n      0x04\n      add\n      tag_60\n      swap1\n      tag_45\n      jump\t// in\n    tag_60:\n      mload(0x40)\n      dup1\n      swap2\n      sub\n      swap1\n      revert\n    tag_59:\n        /* \"contracts/Lab6_Escrow_FX17394.sol\":1092:1098  seller */\n      0x01\n      0x00\n      swap1\n      sload\n      swap1\n      0x0100\n      exp\n      swap1\n      div\n      0xffffffffffffffffffffffffffffffffffffffff\n      and\n        /* \"contracts/Lab6_Escrow_FX17394.sol\":1092:1107  seller.transfer */\n      0xffffffffffffffffffffffffffffffffffffffff\n      and\n        /* \"contracts/Lab6_Escrow_FX17394.sol\":1092:1130  seller.transfer(address(this).balance) */\n      0x08fc\n        /* \"contracts/Lab6_Escrow_FX17394.sol\":1108:1129  address(this).balance */\n      selfbalance\n        /* \"contracts/Lab6_Escrow_FX17394.sol\":1092:1130  seller.transfer(address(this).balance) */\n      swap1\n      dup2\n      iszero\n      mul\n      swap1\n      mload(0x40)\n      0x00\n      mload(0x40)\n      dup1\n      dup4\n      sub\n      dup2\n      dup6\n      dup9\n      dup9\n      call\n      swap4\n      pop\n      pop\n      pop\n      pop\n      iszero\n      dup1\n      iszero\n      tag_63\n      jumpi\n      returndatasize\n      0x00\n      dup1\n      returndatacopy\n      revert(0x00, returndatasize)\n    tag_63:\n      pop\n        /* \"contracts/Lab6_Escrow_FX17394.sol\":1148:1162  State.complete */\n      0x02\n        /* \"contracts/Lab6_Escrow_FX17394.sol\":1140:1145  state */\n      0x04\n      0x00\n        /* \"contracts/Lab6_Escrow_FX17394.sol\":1140:1162  state = State.complete */\n      0x0100\n      exp\n      dup2\n      sload\n      dup2\n      0xff\n      mul\n      not\n      and\n      swap1\n      dup4\n      0x02\n      dup2\n      gt\n      iszero\n      tag_64\n      jumpi\n      tag_65\n      tag_40\n      jump\t// in\n    tag_65:\n    tag_64:\n      mul\n      or\n      swap1\n      sstore\n      pop\n        /* \"contracts/Lab6_Escrow_FX17394.sol\":740:741  _ */\n      pop\n        /* \"contracts/Lab6_Escrow_FX17394.sol\":1009:1169  function confirmDelivery() public onlyBuyer instate(State.awate_delivery){... */\n      jump\t// out\n        /* \"contracts/Lab6_Escrow_FX17394.sol\":887:1003  function confirmPayment() public onlyBuyer instate(State.awate_payment){... */\n    tag_20:\n        /* \"contracts/Lab6_Escrow_FX17394.sol\":676:681  buyer */\n      0x00\n      dup1\n      sload\n      swap1\n      0x0100\n      exp\n      swap1\n      div\n      0xffffffffffffffffffffffffffffffffffffffff\n      and\n        /* \"contracts/Lab6_Escrow_FX17394.sol\":662:681  msg.sender == buyer */\n      0xffffffffffffffffffffffffffffffffffffffff\n      and\n        /* \"contracts/Lab6_Escrow_FX17394.sol\":662:672  msg.sender */\n      caller\n        /* \"contracts/Lab6_Escrow_FX17394.sol\":662:681  msg.sender == buyer */\n      0xffffffffffffffffffffffffffffffffffffffff\n      and\n      eq\n        /* \"contracts/Lab6_Escrow_FX17394.sol\":662:706  msg.sender == buyer || msg.sender == arbiter */\n      dup1\n      tag_67\n      jumpi\n      pop\n        /* \"contracts/Lab6_Escrow_FX17394.sol\":699:706  arbiter */\n      0x02\n      0x00\n      swap1\n      sload\n      swap1\n      0x0100\n      exp\n      swap1\n      div\n      0xffffffffffffffffffffffffffffffffffffffff\n      and\n        /* \"contracts/Lab6_Escrow_FX17394.sol\":685:706  msg.sender == arbiter */\n      0xffffffffffffffffffffffffffffffffffffffff\n      and\n        /* \"contracts/Lab6_Escrow_FX17394.sol\":685:695  msg.sender */\n      caller\n        /* \"contracts/Lab6_Escrow_FX17394.sol\":685:706  msg.sender == arbiter */\n      0xffffffffffffffffffffffffffffffffffffffff\n      and\n      eq\n        /* \"contracts/Lab6_Escrow_FX17394.sol\":662:706  msg.sender == buyer || msg.sender == arbiter */\n    tag_67:\n        /* \"contracts/Lab6_Escrow_FX17394.sol\":654:730  require(msg.sender == buyer || msg.sender == arbiter, \"You are not a buyer\") */\n      tag_68\n      jumpi\n      mload(0x40)\n      0x08c379a000000000000000000000000000000000000000000000000000000000\n      dup2\n      mstore\n      0x04\n      add\n      tag_69\n      swap1\n      tag_53\n      jump\t// in\n    tag_69:\n      mload(0x40)\n      dup1\n      swap2\n      sub\n      swap1\n      revert\n    tag_68:\n        /* \"contracts/Lab6_Escrow_FX17394.sol\":938:957  State.awate_payment */\n      0x00\n        /* \"contracts/Lab6_Escrow_FX17394.sol\":558:571  expectedState */\n      dup1\n        /* \"contracts/Lab6_Escrow_FX17394.sol\":549:571  state == expectedState */\n      0x02\n      dup2\n      gt\n      iszero\n      tag_71\n      jumpi\n      tag_72\n      tag_40\n      jump\t// in\n    tag_72:\n    tag_71:\n        /* \"contracts/Lab6_Escrow_FX17394.sol\":549:554  state */\n      0x04\n      0x00\n      swap1\n      sload\n      swap1\n      0x0100\n      exp\n      swap1\n      div\n      0xff\n      and\n        /* \"contracts/Lab6_Escrow_FX17394.sol\":549:571  state == expectedState */\n      0x02\n      dup2\n      gt\n      iszero\n      tag_73\n      jumpi\n      tag_74\n      tag_40\n      jump\t// in\n    tag_74:\n    tag_73:\n      eq\n        /* \"contracts/Lab6_Escrow_FX17394.sol\":541:600  require(state == expectedState , \"Expected State note met\") */\n      tag_75\n      jumpi\n      mload(0x40)\n      0x08c379a000000000000000000000000000000000000000000000000000000000\n      dup2\n      mstore\n      0x04\n      add\n      tag_76\n      swap1\n      tag_45\n      jump\t// in\n    tag_76:\n      mload(0x40)\n      dup1\n      swap2\n      sub\n      swap1\n      revert\n    tag_75:\n        /* \"contracts/Lab6_Escrow_FX17394.sol\":976:996  State.awate_delivery */\n      0x01\n        /* \"contracts/Lab6_Escrow_FX17394.sol\":968:973  state */\n      0x04\n      0x00\n        /* \"contracts/Lab6_Escrow_FX17394.sol\":968:996  state = State.awate_delivery */\n      0x0100\n      exp\n      dup2\n      sload\n      dup2\n      0xff\n      mul\n      not\n      and\n      swap1\n      dup4\n      0x02\n      dup2\n      gt\n      iszero\n      tag_78\n      jumpi\n      tag_79\n      tag_40\n      jump\t// in\n    tag_79:\n    tag_78:\n      mul\n      or\n      swap1\n      sstore\n      pop\n        /* \"contracts/Lab6_Escrow_FX17394.sol\":740:741  _ */\n      pop\n        /* \"contracts/Lab6_Escrow_FX17394.sol\":887:1003  function confirmPayment() public onlyBuyer instate(State.awate_payment){... */\n      jump\t// out\n        /* \"contracts/Lab6_Escrow_FX17394.sol\":63:91  address payable public buyer */\n    tag_22:\n      0x00\n      dup1\n      sload\n      swap1\n      0x0100\n      exp\n      swap1\n      div\n      0xffffffffffffffffffffffffffffffffffffffff\n      and\n      dup2\n      jump\t// out\n        /* \"contracts/Lab6_Escrow_FX17394.sol\":271:289  State public state */\n    tag_25:\n      0x04\n      0x00\n      swap1\n      sload\n      swap1\n      0x0100\n      exp\n      swap1\n      div\n      0xff\n      and\n      dup2\n      jump\t// out\n        /* \"contracts/Lab6_Escrow_FX17394.sol\":132:154  address public arbiter */\n    tag_29:\n      0x02\n      0x00\n      swap1\n      sload\n      swap1\n      0x0100\n      exp\n      swap1\n      div\n      0xffffffffffffffffffffffffffffffffffffffff\n      and\n      dup2\n      jump\t// out\n        /* \"#utility.yul\":7:133   */\n    tag_80:\n        /* \"#utility.yul\":44:51   */\n      0x00\n        /* \"#utility.yul\":84:126   */\n      0xffffffffffffffffffffffffffffffffffffffff\n        /* \"#utility.yul\":77:82   */\n      dup3\n        /* \"#utility.yul\":73:127   */\n      and\n        /* \"#utility.yul\":62:127   */\n      swap1\n      pop\n        /* \"#utility.yul\":7:133   */\n      swap2\n      swap1\n      pop\n      jump\t// out\n        /* \"#utility.yul\":139:243   */\n    tag_81:\n        /* \"#utility.yul\":184:191   */\n      0x00\n        /* \"#utility.yul\":213:237   */\n      tag_99\n        /* \"#utility.yul\":231:236   */\n      dup3\n        /* \"#utility.yul\":213:237   */\n      tag_80\n      jump\t// in\n    tag_99:\n        /* \"#utility.yul\":202:237   */\n      swap1\n      pop\n        /* \"#utility.yul\":139:243   */\n      swap2\n      swap1\n      pop\n      jump\t// out\n        /* \"#utility.yul\":249:391   */\n    tag_82:\n        /* \"#utility.yul\":352:384   */\n      tag_101\n        /* \"#utility.yul\":378:383   */\n      dup2\n        /* \"#utility.yul\":352:384   */\n      tag_81\n      jump\t// in\n    tag_101:\n        /* \"#utility.yul\":347:350   */\n      dup3\n        /* \"#utility.yul\":340:385   */\n      mstore\n        /* \"#utility.yul\":249:391   */\n      pop\n      pop\n      jump\t// out\n        /* \"#utility.yul\":397:651   */\n    tag_14:\n        /* \"#utility.yul\":506:510   */\n      0x00\n        /* \"#utility.yul\":544:546   */\n      0x20\n        /* \"#utility.yul\":533:542   */\n      dup3\n        /* \"#utility.yul\":529:547   */\n      add\n        /* \"#utility.yul\":521:547   */\n      swap1\n      pop\n        /* \"#utility.yul\":557:644   */\n      tag_103\n        /* \"#utility.yul\":641:642   */\n      0x00\n        /* \"#utility.yul\":630:639   */\n      dup4\n        /* \"#utility.yul\":626:643   */\n      add\n        /* \"#utility.yul\":617:623   */\n      dup5\n        /* \"#utility.yul\":557:644   */\n      tag_82\n      jump\t// in\n    tag_103:\n        /* \"#utility.yul\":397:651   */\n      swap3\n      swap2\n      pop\n      pop\n      jump\t// out\n        /* \"#utility.yul\":657:837   */\n    tag_40:\n        /* \"#utility.yul\":705:782   */\n      0x4e487b7100000000000000000000000000000000000000000000000000000000\n        /* \"#utility.yul\":702:703   */\n      0x00\n        /* \"#utility.yul\":695:783   */\n      mstore\n        /* \"#utility.yul\":802:806   */\n      0x21\n        /* \"#utility.yul\":799:800   */\n      0x04\n        /* \"#utility.yul\":792:807   */\n      mstore\n        /* \"#utility.yul\":826:830   */\n      0x24\n        /* \"#utility.yul\":823:824   */\n      0x00\n        /* \"#utility.yul\":816:831   */\n      revert\n        /* \"#utility.yul\":843:956   */\n    tag_83:\n        /* \"#utility.yul\":924:925   */\n      0x03\n        /* \"#utility.yul\":917:922   */\n      dup2\n        /* \"#utility.yul\":914:926   */\n      lt\n        /* \"#utility.yul\":904:950   */\n      tag_106\n      jumpi\n        /* \"#utility.yul\":930:948   */\n      tag_107\n      tag_40\n      jump\t// in\n    tag_107:\n        /* \"#utility.yul\":904:950   */\n    tag_106:\n        /* \"#utility.yul\":843:956   */\n      pop\n      jump\t// out\n        /* \"#utility.yul\":962:1089   */\n    tag_84:\n        /* \"#utility.yul\":1007:1014   */\n      0x00\n        /* \"#utility.yul\":1036:1041   */\n      dup2\n        /* \"#utility.yul\":1025:1041   */\n      swap1\n      pop\n        /* \"#utility.yul\":1042:1083   */\n      tag_109\n        /* \"#utility.yul\":1077:1082   */\n      dup3\n        /* \"#utility.yul\":1042:1083   */\n      tag_83\n      jump\t// in\n    tag_109:\n        /* \"#utility.yul\":962:1089   */\n      swap2\n      swap1\n      pop\n      jump\t// out\n        /* \"#utility.yul\":1095:1222   */\n    tag_85:\n        /* \"#utility.yul\":1151:1160   */\n      0x00\n        /* \"#utility.yul\":1184:1216   */\n      tag_111\n        /* \"#utility.yul\":1210:1215   */\n      dup3\n        /* \"#utility.yul\":1184:1216   */\n      tag_84\n      jump\t// in\n    tag_111:\n        /* \"#utility.yul\":1171:1216   */\n      swap1\n      pop\n        /* \"#utility.yul\":1095:1222   */\n      swap2\n      swap1\n      pop\n      jump\t// out\n        /* \"#utility.yul\":1228:1371   */\n    tag_86:\n        /* \"#utility.yul\":1321:1364   */\n      tag_113\n        /* \"#utility.yul\":1358:1363   */\n      dup2\n        /* \"#utility.yul\":1321:1364   */\n      tag_85\n      jump\t// in\n    tag_113:\n        /* \"#utility.yul\":1316:1319   */\n      dup3\n        /* \"#utility.yul\":1309:1365   */\n      mstore\n        /* \"#utility.yul\":1228:1371   */\n      pop\n      pop\n      jump\t// out\n        /* \"#utility.yul\":1377:1611   */\n    tag_27:\n        /* \"#utility.yul\":1476:1480   */\n      0x00\n        /* \"#utility.yul\":1514:1516   */\n      0x20\n        /* \"#utility.yul\":1503:1512   */\n      dup3\n        /* \"#utility.yul\":1499:1517   */\n      add\n        /* \"#utility.yul\":1491:1517   */\n      swap1\n      pop\n        /* \"#utility.yul\":1527:1604   */\n      tag_115\n        /* \"#utility.yul\":1601:1602   */\n      0x00\n        /* \"#utility.yul\":1590:1599   */\n      dup4\n        /* \"#utility.yul\":1586:1603   */\n      add\n        /* \"#utility.yul\":1577:1583   */\n      dup5\n        /* \"#utility.yul\":1527:1604   */\n      tag_86\n      jump\t// in\n    tag_115:\n        /* \"#utility.yul\":1377:1611   */\n      swap3\n      swap2\n      pop\n      pop\n      jump\t// out\n        /* \"#utility.yul\":1617:1713   */\n    tag_87:\n        /* \"#utility.yul\":1654:1661   */\n      0x00\n        /* \"#utility.yul\":1683:1707   */\n      tag_117\n        /* \"#utility.yul\":1701:1706   */\n      dup3\n        /* \"#utility.yul\":1683:1707   */\n      tag_80\n      jump\t// in\n    tag_117:\n        /* \"#utility.yul\":1672:1707   */\n      swap1\n      pop\n        /* \"#utility.yul\":1617:1713   */\n      swap2\n      swap1\n      pop\n      jump\t// out\n        /* \"#utility.yul\":1719:1837   */\n    tag_88:\n        /* \"#utility.yul\":1806:1830   */\n      tag_119\n        /* \"#utility.yul\":1824:1829   */\n      dup2\n        /* \"#utility.yul\":1806:1830   */\n      tag_87\n      jump\t// in\n    tag_119:\n        /* \"#utility.yul\":1801:1804   */\n      dup3\n        /* \"#utility.yul\":1794:1831   */\n      mstore\n        /* \"#utility.yul\":1719:1837   */\n      pop\n      pop\n      jump\t// out\n        /* \"#utility.yul\":1843:2065   */\n    tag_31:\n        /* \"#utility.yul\":1936:1940   */\n      0x00\n        /* \"#utility.yul\":1974:1976   */\n      0x20\n        /* \"#utility.yul\":1963:1972   */\n      dup3\n        /* \"#utility.yul\":1959:1977   */\n      add\n        /* \"#utility.yul\":1951:1977   */\n      swap1\n      pop\n        /* \"#utility.yul\":1987:2058   */\n      tag_121\n        /* \"#utility.yul\":2055:2056   */\n      0x00\n        /* \"#utility.yul\":2044:2053   */\n      dup4\n        /* \"#utility.yul\":2040:2057   */\n      add\n        /* \"#utility.yul\":2031:2037   */\n      dup5\n        /* \"#utility.yul\":1987:2058   */\n      tag_88\n      jump\t// in\n    tag_121:\n        /* \"#utility.yul\":1843:2065   */\n      swap3\n      swap2\n      pop\n      pop\n      jump\t// out\n        /* \"#utility.yul\":2071:2240   */\n    tag_89:\n        /* \"#utility.yul\":2155:2166   */\n      0x00\n        /* \"#utility.yul\":2189:2195   */\n      dup3\n        /* \"#utility.yul\":2184:2187   */\n      dup3\n        /* \"#utility.yul\":2177:2196   */\n      mstore\n        /* \"#utility.yul\":2229:2233   */\n      0x20\n        /* \"#utility.yul\":2224:2227   */\n      dup3\n        /* \"#utility.yul\":2220:2234   */\n      add\n        /* \"#utility.yul\":2205:2234   */\n      swap1\n      pop\n        /* \"#utility.yul\":2071:2240   */\n      swap3\n      swap2\n      pop\n      pop\n      jump\t// out\n        /* \"#utility.yul\":2246:2416   */\n    tag_90:\n        /* \"#utility.yul\":2386:2408   */\n      0x596f7520617265206e6f7420612073656c6c6572000000000000000000000000\n        /* \"#utility.yul\":2382:2383   */\n      0x00\n        /* \"#utility.yul\":2374:2380   */\n      dup3\n        /* \"#utility.yul\":2370:2384   */\n      add\n        /* \"#utility.yul\":2363:2409   */\n      mstore\n        /* \"#utility.yul\":2246:2416   */\n      pop\n      jump\t// out\n        /* \"#utility.yul\":2422:2788   */\n    tag_91:\n        /* \"#utility.yul\":2564:2567   */\n      0x00\n        /* \"#utility.yul\":2585:2652   */\n      tag_125\n        /* \"#utility.yul\":2649:2651   */\n      0x14\n        /* \"#utility.yul\":2644:2647   */\n      dup4\n        /* \"#utility.yul\":2585:2652   */\n      tag_89\n      jump\t// in\n    tag_125:\n        /* \"#utility.yul\":2578:2652   */\n      swap2\n      pop\n        /* \"#utility.yul\":2661:2754   */\n      tag_126\n        /* \"#utility.yul\":2750:2753   */\n      dup3\n        /* \"#utility.yul\":2661:2754   */\n      tag_90\n      jump\t// in\n    tag_126:\n        /* \"#utility.yul\":2779:2781   */\n      0x20\n        /* \"#utility.yul\":2774:2777   */\n      dup3\n        /* \"#utility.yul\":2770:2782   */\n      add\n        /* \"#utility.yul\":2763:2782   */\n      swap1\n      pop\n        /* \"#utility.yul\":2422:2788   */\n      swap2\n      swap1\n      pop\n      jump\t// out\n        /* \"#utility.yul\":2794:3213   */\n    tag_36:\n        /* \"#utility.yul\":2960:2964   */\n      0x00\n        /* \"#utility.yul\":2998:3000   */\n      0x20\n        /* \"#utility.yul\":2987:2996   */\n      dup3\n        /* \"#utility.yul\":2983:3001   */\n      add\n        /* \"#utility.yul\":2975:3001   */\n      swap1\n      pop\n        /* \"#utility.yul\":3047:3056   */\n      dup2\n        /* \"#utility.yul\":3041:3045   */\n      dup2\n        /* \"#utility.yul\":3037:3057   */\n      sub\n        /* \"#utility.yul\":3033:3034   */\n      0x00\n        /* \"#utility.yul\":3022:3031   */\n      dup4\n        /* \"#utility.yul\":3018:3035   */\n      add\n        /* \"#utility.yul\":3011:3058   */\n      mstore\n        /* \"#utility.yul\":3075:3206   */\n      tag_128\n        /* \"#utility.yul\":3201:3205   */\n      dup2\n        /* \"#utility.yul\":3075:3206   */\n      tag_91\n      jump\t// in\n    tag_128:\n        /* \"#utility.yul\":3067:3206   */\n      swap1\n      pop\n        /* \"#utility.yul\":2794:3213   */\n      swap2\n      swap1\n      pop\n      jump\t// out\n        /* \"#utility.yul\":3219:3392   */\n    tag_92:\n        /* \"#utility.yul\":3359:3384   */\n      0x4578706563746564205374617465206e6f7465206d6574000000000000000000\n        /* \"#utility.yul\":3355:3356   */\n      0x00\n        /* \"#utility.yul\":3347:3353   */\n      dup3\n        /* \"#utility.yul\":3343:3357   */\n      add\n        /* \"#utility.yul\":3336:3385   */\n      mstore\n        /* \"#utility.yul\":3219:3392   */\n      pop\n      jump\t// out\n        /* \"#utility.yul\":3398:3764   */\n    tag_93:\n        /* \"#utility.yul\":3540:3543   */\n      0x00\n        /* \"#utility.yul\":3561:3628   */\n      tag_131\n        /* \"#utility.yul\":3625:3627   */\n      0x17\n        /* \"#utility.yul\":3620:3623   */\n      dup4\n        /* \"#utility.yul\":3561:3628   */\n      tag_89\n      jump\t// in\n    tag_131:\n        /* \"#utility.yul\":3554:3628   */\n      swap2\n      pop\n        /* \"#utility.yul\":3637:3730   */\n      tag_132\n        /* \"#utility.yul\":3726:3729   */\n      dup3\n        /* \"#utility.yul\":3637:3730   */\n      tag_92\n      jump\t// in\n    tag_132:\n        /* \"#utility.yul\":3755:3757   */\n      0x20\n        /* \"#utility.yul\":3750:3753   */\n      dup3\n        /* \"#utility.yul\":3746:3758   */\n      add\n        /* \"#utility.yul\":3739:3758   */\n      swap1\n      pop\n        /* \"#utility.yul\":3398:3764   */\n      swap2\n      swap1\n      pop\n      jump\t// out\n        /* \"#utility.yul\":3770:4189   */\n    tag_45:\n        /* \"#utility.yul\":3936:3940   */\n      0x00\n        /* \"#utility.yul\":3974:3976   */\n      0x20\n        /* \"#utility.yul\":3963:3972   */\n      dup3\n        /* \"#utility.yul\":3959:3977   */\n      add\n        /* \"#utility.yul\":3951:3977   */\n      swap1\n      pop\n        /* \"#utility.yul\":4023:4032   */\n      dup2\n        /* \"#utility.yul\":4017:4021   */\n      dup2\n        /* \"#utility.yul\":4013:4033   */\n      sub\n        /* \"#utility.yul\":4009:4010   */\n      0x00\n        /* \"#utility.yul\":3998:4007   */\n      dup4\n        /* \"#utility.yul\":3994:4011   */\n      add\n        /* \"#utility.yul\":3987:4034   */\n      mstore\n        /* \"#utility.yul\":4051:4182   */\n      tag_134\n        /* \"#utility.yul\":4177:4181   */\n      dup2\n        /* \"#utility.yul\":4051:4182   */\n      tag_93\n      jump\t// in\n    tag_134:\n        /* \"#utility.yul\":4043:4182   */\n      swap1\n      pop\n        /* \"#utility.yul\":3770:4189   */\n      swap2\n      swap1\n      pop\n      jump\t// out\n        /* \"#utility.yul\":4195:4364   */\n    tag_94:\n        /* \"#utility.yul\":4335:4356   */\n      0x596f7520617265206e6f74206120627579657200000000000000000000000000\n        /* \"#utility.yul\":4331:4332   */\n      0x00\n        /* \"#utility.yul\":4323:4329   */\n      dup3\n        /* \"#utility.yul\":4319:4333   */\n      add\n        /* \"#utility.yul\":4312:4357   */\n      mstore\n        /* \"#utility.yul\":4195:4364   */\n      pop\n      jump\t// out\n        /* \"#utility.yul\":4370:4736   */\n    tag_95:\n        /* \"#utility.yul\":4512:4515   */\n      0x00\n        /* \"#utility.yul\":4533:4600   */\n      tag_137\n        /* \"#utility.yul\":4597:4599   */\n      0x13\n        /* \"#utility.yul\":4592:4595   */\n      dup4\n        /* \"#utility.yul\":4533:4600   */\n      tag_89\n      jump\t// in\n    tag_137:\n        /* \"#utility.yul\":4526:4600   */\n      swap2\n      pop\n        /* \"#utility.yul\":4609:4702   */\n      tag_138\n        /* \"#utility.yul\":4698:4701   */\n      dup3\n        /* \"#utility.yul\":4609:4702   */\n      tag_94\n      jump\t// in\n    tag_138:\n        /* \"#utility.yul\":4727:4729   */\n      0x20\n        /* \"#utility.yul\":4722:4725   */\n      dup3\n        /* \"#utility.yul\":4718:4730   */\n      add\n        /* \"#utility.yul\":4711:4730   */\n      swap1\n      pop\n        /* \"#utility.yul\":4370:4736   */\n      swap2\n      swap1\n      pop\n      jump\t// out\n        /* \"#utility.yul\":4742:5161   */\n    tag_53:\n        /* \"#utility.yul\":4908:4912   */\n      0x00\n        /* \"#utility.yul\":4946:4948   */\n      0x20\n        /* \"#utility.yul\":4935:4944   */\n      dup3\n        /* \"#utility.yul\":4931:4949   */\n      add\n        /* \"#utility.yul\":4923:4949   */\n      swap1\n      pop\n        /* \"#utility.yul\":4995:5004   */\n      dup2\n        /* \"#utility.yul\":4989:4993   */\n      dup2\n        /* \"#utility.yul\":4985:5005   */\n      sub\n        /* \"#utility.yul\":4981:4982   */\n      0x00\n        /* \"#utility.yul\":4970:4979   */\n      dup4\n        /* \"#utility.yul\":4966:4983   */\n      add\n        /* \"#utility.yul\":4959:5006   */\n      mstore\n        /* \"#utility.yul\":5023:5154   */\n      tag_140\n        /* \"#utility.yul\":5149:5153   */\n      dup2\n        /* \"#utility.yul\":5023:5154   */\n      tag_95\n      jump\t// in\n    tag_140:\n        /* \"#utility.yul\":5015:5154   */\n      swap1\n      pop\n        /* \"#utility.yul\":4742:5161   */\n      swap2\n      swap1\n      pop\n      jump\t// out\n\n    auxdata: 0xa2646970667358221220aedc138551b7da89894a7cf2b6df00a5c39d226dd8ce3424fe2e0787c3f1eeee64736f6c63430008110033\n}\n",
				"bytecode": {
					"linkReferences": {},
					"object": "608060405234801561001057600080fd5b50604051610b9f380380610b9f83398181016040528101906100329190610189565b33600260006101000a81548173ffffffffffffffffffffffffffffffffffffffff021916908373ffffffffffffffffffffffffffffffffffffffff16021790555080600160006101000a81548173ffffffffffffffffffffffffffffffffffffffff021916908373ffffffffffffffffffffffffffffffffffffffff160217905550816000806101000a81548173ffffffffffffffffffffffffffffffffffffffff021916908373ffffffffffffffffffffffffffffffffffffffff1602179055506000600460006101000a81548160ff0219169083600281111561011a576101196101c9565b5b021790555050506101f8565b600080fd5b600073ffffffffffffffffffffffffffffffffffffffff82169050919050565b60006101568261012b565b9050919050565b6101668161014b565b811461017157600080fd5b50565b6000815190506101838161015d565b92915050565b600080604083850312156101a05761019f610126565b5b60006101ae85828601610174565b92505060206101bf85828601610174565b9150509250929050565b7f4e487b7100000000000000000000000000000000000000000000000000000000600052602160045260246000fd5b610998806102076000396000f3fe608060405234801561001057600080fd5b506004361061007d5760003560e01c806362ef1f811161005b57806362ef1f81146100b45780637150d8ae146100be578063c19d93fb146100dc578063fe25e00a146100fa5761007d565b806308551a53146100825780633dcfe411146100a05780635e10177b146100aa575b600080fd5b61008a610118565b6040516100979190610724565b60405180910390f35b6100a861013e565b005b6100b2610307565b005b6100bc6104fb565b005b6100c6610686565b6040516100d39190610724565b60405180910390f35b6100e46106aa565b6040516100f191906107b6565b60405180910390f35b6101026106bd565b60405161010f91906107f2565b60405180910390f35b600160009054906101000a900473ffffffffffffffffffffffffffffffffffffffff1681565b600160009054906101000a900473ffffffffffffffffffffffffffffffffffffffff1673ffffffffffffffffffffffffffffffffffffffff163373ffffffffffffffffffffffffffffffffffffffff1614806101e75750600260009054906101000a900473ffffffffffffffffffffffffffffffffffffffff1673ffffffffffffffffffffffffffffffffffffffff163373ffffffffffffffffffffffffffffffffffffffff16145b610226576040517f08c379a000000000000000000000000000000000000000000000000000000000815260040161021d9061086a565b60405180910390fd5b600180600281111561023b5761023a61073f565b5b600460009054906101000a900460ff16600281111561025d5761025c61073f565b5b1461029d576040517f08c379a0000000000000000000000000000000000000000000000000000000008152600401610294906108d6565b60405180910390fd5b60008054906101000a900473ffffffffffffffffffffffffffffffffffffffff1673ffffffffffffffffffffffffffffffffffffffff166108fc479081150290604051600060405180830381858888f19350505050158015610303573d6000803e3d6000fd5b5050565b60008054906101000a900473ffffffffffffffffffffffffffffffffffffffff1673ffffffffffffffffffffffffffffffffffffffff163373ffffffffffffffffffffffffffffffffffffffff1614806103ae5750600260009054906101000a900473ffffffffffffffffffffffffffffffffffffffff1673ffffffffffffffffffffffffffffffffffffffff163373ffffffffffffffffffffffffffffffffffffffff16145b6103ed576040517f08c379a00000000000000000000000000000000000000000000000000000000081526004016103e490610942565b60405180910390fd5b60018060028111156104025761040161073f565b5b600460009054906101000a900460ff1660028111156104245761042361073f565b5b14610464576040517f08c379a000000000000000000000000000000000000000000000000000000000815260040161045b906108d6565b60405180910390fd5b600160009054906101000a900473ffffffffffffffffffffffffffffffffffffffff1673ffffffffffffffffffffffffffffffffffffffff166108fc479081150290604051600060405180830381858888f193505050501580156104cc573d6000803e3d6000fd5b506002600460006101000a81548160ff021916908360028111156104f3576104f261073f565b5b021790555050565b60008054906101000a900473ffffffffffffffffffffffffffffffffffffffff1673ffffffffffffffffffffffffffffffffffffffff163373ffffffffffffffffffffffffffffffffffffffff1614806105a25750600260009054906101000a900473ffffffffffffffffffffffffffffffffffffffff1673ffffffffffffffffffffffffffffffffffffffff163373ffffffffffffffffffffffffffffffffffffffff16145b6105e1576040517f08c379a00000000000000000000000000000000000000000000000000000000081526004016105d890610942565b60405180910390fd5b60008060028111156105f6576105f561073f565b5b600460009054906101000a900460ff1660028111156106185761061761073f565b5b14610658576040517f08c379a000000000000000000000000000000000000000000000000000000000815260040161064f906108d6565b60405180910390fd5b6001600460006101000a81548160ff0219169083600281111561067e5761067d61073f565b5b021790555050565b60008054906101000a900473ffffffffffffffffffffffffffffffffffffffff1681565b600460009054906101000a900460ff1681565b600260009054906101000a900473ffffffffffffffffffffffffffffffffffffffff1681565b600073ffffffffffffffffffffffffffffffffffffffff82169050919050565b600061070e826106e3565b9050919050565b61071e81610703565b82525050565b60006020820190506107396000830184610715565b92915050565b7f4e487b7100000000000000000000000000000000000000000000000000000000600052602160045260246000fd5b6003811061077f5761077e61073f565b5b50565b60008190506107908261076e565b919050565b60006107a082610782565b9050919050565b6107b081610795565b82525050565b60006020820190506107cb60008301846107a7565b92915050565b60006107dc826106e3565b9050919050565b6107ec816107d1565b82525050565b600060208201905061080760008301846107e3565b92915050565b600082825260208201905092915050565b7f596f7520617265206e6f7420612073656c6c6572000000000000000000000000600082015250565b600061085460148361080d565b915061085f8261081e565b602082019050919050565b6000602082019050818103600083015261088381610847565b9050919050565b7f4578706563746564205374617465206e6f7465206d6574000000000000000000600082015250565b60006108c060178361080d565b91506108cb8261088a565b602082019050919050565b600060208201905081810360008301526108ef816108b3565b9050919050565b7f596f7520617265206e6f74206120627579657200000000000000000000000000600082015250565b600061092c60138361080d565b9150610937826108f6565b602082019050919050565b6000602082019050818103600083015261095b8161091f565b905091905056fea2646970667358221220aedc138551b7da89894a7cf2b6df00a5c39d226dd8ce3424fe2e0787c3f1eeee64736f6c63430008110033",
					"opcodes": "PUSH1 0x80 PUSH1 0x40 MSTORE CALLVALUE DUP1 ISZERO PUSH2 0x10 JUMPI PUSH1 0x0 DUP1 REVERT JUMPDEST POP PUSH1 0x40 MLOAD PUSH2 0xB9F CODESIZE SUB DUP1 PUSH2 0xB9F DUP4 CODECOPY DUP2 DUP2 ADD PUSH1 0x40 MSTORE DUP2 ADD SWAP1 PUSH2 0x32 SWAP2 SWAP1 PUSH2 0x189 JUMP JUMPDEST CALLER PUSH1 0x2 PUSH1 0x0 PUSH2 0x100 EXP DUP2 SLOAD DUP2 PUSH20 0xFFFFFFFFFFFFFFFFFFFFFFFFFFFFFFFFFFFFFFFF MUL NOT AND SWAP1 DUP4 PUSH20 0xFFFFFFFFFFFFFFFFFFFFFFFFFFFFFFFFFFFFFFFF AND MUL OR SWAP1 SSTORE POP DUP1 PUSH1 0x1 PUSH1 0x0 PUSH2 0x100 EXP DUP2 SLOAD DUP2 PUSH20 0xFFFFFFFFFFFFFFFFFFFFFFFFFFFFFFFFFFFFFFFF MUL NOT AND SWAP1 DUP4 PUSH20 0xFFFFFFFFFFFFFFFFFFFFFFFFFFFFFFFFFFFFFFFF AND MUL OR SWAP1 SSTORE POP DUP2 PUSH1 0x0 DUP1 PUSH2 0x100 EXP DUP2 SLOAD DUP2 PUSH20 0xFFFFFFFFFFFFFFFFFFFFFFFFFFFFFFFFFFFFFFFF MUL NOT AND SWAP1 DUP4 PUSH20 0xFFFFFFFFFFFFFFFFFFFFFFFFFFFFFFFFFFFFFFFF AND MUL OR SWAP1 SSTORE POP PUSH1 0x0 PUSH1 0x4 PUSH1 0x0 PUSH2 0x100 EXP DUP2 SLOAD DUP2 PUSH1 0xFF MUL NOT AND SWAP1 DUP4 PUSH1 0x2 DUP2 GT ISZERO PUSH2 0x11A JUMPI PUSH2 0x119 PUSH2 0x1C9 JUMP JUMPDEST JUMPDEST MUL OR SWAP1 SSTORE POP POP POP PUSH2 0x1F8 JUMP JUMPDEST PUSH1 0x0 DUP1 REVERT JUMPDEST PUSH1 0x0 PUSH20 0xFFFFFFFFFFFFFFFFFFFFFFFFFFFFFFFFFFFFFFFF DUP3 AND SWAP1 POP SWAP2 SWAP1 POP JUMP JUMPDEST PUSH1 0x0 PUSH2 0x156 DUP3 PUSH2 0x12B JUMP JUMPDEST SWAP1 POP SWAP2 SWAP1 POP JUMP JUMPDEST PUSH2 0x166 DUP2 PUSH2 0x14B JUMP JUMPDEST DUP2 EQ PUSH2 0x171 JUMPI PUSH1 0x0 DUP1 REVERT JUMPDEST POP JUMP JUMPDEST PUSH1 0x0 DUP2 MLOAD SWAP1 POP PUSH2 0x183 DUP2 PUSH2 0x15D JUMP JUMPDEST SWAP3 SWAP2 POP POP JUMP JUMPDEST PUSH1 0x0 DUP1 PUSH1 0x40 DUP4 DUP6 SUB SLT ISZERO PUSH2 0x1A0 JUMPI PUSH2 0x19F PUSH2 0x126 JUMP JUMPDEST JUMPDEST PUSH1 0x0 PUSH2 0x1AE DUP6 DUP3 DUP7 ADD PUSH2 0x174 JUMP JUMPDEST SWAP3 POP POP PUSH1 0x20 PUSH2 0x1BF DUP6 DUP3 DUP7 ADD PUSH2 0x174 JUMP JUMPDEST SWAP2 POP POP SWAP3 POP SWAP3 SWAP1 POP JUMP JUMPDEST PUSH32 0x4E487B7100000000000000000000000000000000000000000000000000000000 PUSH1 0x0 MSTORE PUSH1 0x21 PUSH1 0x4 MSTORE PUSH1 0x24 PUSH1 0x0 REVERT JUMPDEST PUSH2 0x998 DUP1 PUSH2 0x207 PUSH1 0x0 CODECOPY PUSH1 0x0 RETURN INVALID PUSH1 0x80 PUSH1 0x40 MSTORE CALLVALUE DUP1 ISZERO PUSH2 0x10 JUMPI PUSH1 0x0 DUP1 REVERT JUMPDEST POP PUSH1 0x4 CALLDATASIZE LT PUSH2 0x7D JUMPI PUSH1 0x0 CALLDATALOAD PUSH1 0xE0 SHR DUP1 PUSH4 0x62EF1F81 GT PUSH2 0x5B JUMPI DUP1 PUSH4 0x62EF1F81 EQ PUSH2 0xB4 JUMPI DUP1 PUSH4 0x7150D8AE EQ PUSH2 0xBE JUMPI DUP1 PUSH4 0xC19D93FB EQ PUSH2 0xDC JUMPI DUP1 PUSH4 0xFE25E00A EQ PUSH2 0xFA JUMPI PUSH2 0x7D JUMP JUMPDEST DUP1 PUSH4 0x8551A53 EQ PUSH2 0x82 JUMPI DUP1 PUSH4 0x3DCFE411 EQ PUSH2 0xA0 JUMPI DUP1 PUSH4 0x5E10177B EQ PUSH2 0xAA JUMPI JUMPDEST PUSH1 0x0 DUP1 REVERT JUMPDEST PUSH2 0x8A PUSH2 0x118 JUMP JUMPDEST PUSH1 0x40 MLOAD PUSH2 0x97 SWAP2 SWAP1 PUSH2 0x724 JUMP JUMPDEST PUSH1 0x40 MLOAD DUP1 SWAP2 SUB SWAP1 RETURN JUMPDEST PUSH2 0xA8 PUSH2 0x13E JUMP JUMPDEST STOP JUMPDEST PUSH2 0xB2 PUSH2 0x307 JUMP JUMPDEST STOP JUMPDEST PUSH2 0xBC PUSH2 0x4FB JUMP JUMPDEST STOP JUMPDEST PUSH2 0xC6 PUSH2 0x686 JUMP JUMPDEST PUSH1 0x40 MLOAD PUSH2 0xD3 SWAP2 SWAP1 PUSH2 0x724 JUMP JUMPDEST PUSH1 0x40 MLOAD DUP1 SWAP2 SUB SWAP1 RETURN JUMPDEST PUSH2 0xE4 PUSH2 0x6AA JUMP JUMPDEST PUSH1 0x40 MLOAD PUSH2 0xF1 SWAP2 SWAP1 PUSH2 0x7B6 JUMP JUMPDEST PUSH1 0x40 MLOAD DUP1 SWAP2 SUB SWAP1 RETURN JUMPDEST PUSH2 0x102 PUSH2 0x6BD JUMP JUMPDEST PUSH1 0x40 MLOAD PUSH2 0x10F SWAP2 SWAP1 PUSH2 0x7F2 JUMP JUMPDEST PUSH1 0x40 MLOAD DUP1 SWAP2 SUB SWAP1 RETURN JUMPDEST PUSH1 0x1 PUSH1 0x0 SWAP1 SLOAD SWAP1 PUSH2 0x100 EXP SWAP1 DIV PUSH20 0xFFFFFFFFFFFFFFFFFFFFFFFFFFFFFFFFFFFFFFFF AND DUP2 JUMP JUMPDEST PUSH1 0x1 PUSH1 0x0 SWAP1 SLOAD SWAP1 PUSH2 0x100 EXP SWAP1 DIV PUSH20 0xFFFFFFFFFFFFFFFFFFFFFFFFFFFFFFFFFFFFFFFF AND PUSH20 0xFFFFFFFFFFFFFFFFFFFFFFFFFFFFFFFFFFFFFFFF AND CALLER PUSH20 0xFFFFFFFFFFFFFFFFFFFFFFFFFFFFFFFFFFFFFFFF AND EQ DUP1 PUSH2 0x1E7 JUMPI POP PUSH1 0x2 PUSH1 0x0 SWAP1 SLOAD SWAP1 PUSH2 0x100 EXP SWAP1 DIV PUSH20 0xFFFFFFFFFFFFFFFFFFFFFFFFFFFFFFFFFFFFFFFF AND PUSH20 0xFFFFFFFFFFFFFFFFFFFFFFFFFFFFFFFFFFFFFFFF AND CALLER PUSH20 0xFFFFFFFFFFFFFFFFFFFFFFFFFFFFFFFFFFFFFFFF AND EQ JUMPDEST PUSH2 0x226 JUMPI PUSH1 0x40 MLOAD PUSH32 0x8C379A000000000000000000000000000000000000000000000000000000000 DUP2 MSTORE PUSH1 0x4 ADD PUSH2 0x21D SWAP1 PUSH2 0x86A JUMP JUMPDEST PUSH1 0x40 MLOAD DUP1 SWAP2 SUB SWAP1 REVERT JUMPDEST PUSH1 0x1 DUP1 PUSH1 0x2 DUP2 GT ISZERO PUSH2 0x23B JUMPI PUSH2 0x23A PUSH2 0x73F JUMP JUMPDEST JUMPDEST PUSH1 0x4 PUSH1 0x0 SWAP1 SLOAD SWAP1 PUSH2 0x100 EXP SWAP1 DIV PUSH1 0xFF AND PUSH1 0x2 DUP2 GT ISZERO PUSH2 0x25D JUMPI PUSH2 0x25C PUSH2 0x73F JUMP JUMPDEST JUMPDEST EQ PUSH2 0x29D JUMPI PUSH1 0x40 MLOAD PUSH32 0x8C379A000000000000000000000000000000000000000000000000000000000 DUP2 MSTORE PUSH1 0x4 ADD PUSH2 0x294 SWAP1 PUSH2 0x8D6 JUMP JUMPDEST PUSH1 0x40 MLOAD DUP1 SWAP2 SUB SWAP1 REVERT JUMPDEST PUSH1 0x0 DUP1 SLOAD SWAP1 PUSH2 0x100 EXP SWAP1 DIV PUSH20 0xFFFFFFFFFFFFFFFFFFFFFFFFFFFFFFFFFFFFFFFF AND PUSH20 0xFFFFFFFFFFFFFFFFFFFFFFFFFFFFFFFFFFFFFFFF AND PUSH2 0x8FC SELFBALANCE SWAP1 DUP2 ISZERO MUL SWAP1 PUSH1 0x40 MLOAD PUSH1 0x0 PUSH1 0x40 MLOAD DUP1 DUP4 SUB DUP2 DUP6 DUP9 DUP9 CALL SWAP4 POP POP POP POP ISZERO DUP1 ISZERO PUSH2 0x303 JUMPI RETURNDATASIZE PUSH1 0x0 DUP1 RETURNDATACOPY RETURNDATASIZE PUSH1 0x0 REVERT JUMPDEST POP POP JUMP JUMPDEST PUSH1 0x0 DUP1 SLOAD SWAP1 PUSH2 0x100 EXP SWAP1 DIV PUSH20 0xFFFFFFFFFFFFFFFFFFFFFFFFFFFFFFFFFFFFFFFF AND PUSH20 0xFFFFFFFFFFFFFFFFFFFFFFFFFFFFFFFFFFFFFFFF AND CALLER PUSH20 0xFFFFFFFFFFFFFFFFFFFFFFFFFFFFFFFFFFFFFFFF AND EQ DUP1 PUSH2 0x3AE JUMPI POP PUSH1 0x2 PUSH1 0x0 SWAP1 SLOAD SWAP1 PUSH2 0x100 EXP SWAP1 DIV PUSH20 0xFFFFFFFFFFFFFFFFFFFFFFFFFFFFFFFFFFFFFFFF AND PUSH20 0xFFFFFFFFFFFFFFFFFFFFFFFFFFFFFFFFFFFFFFFF AND CALLER PUSH20 0xFFFFFFFFFFFFFFFFFFFFFFFFFFFFFFFFFFFFFFFF AND EQ JUMPDEST PUSH2 0x3ED JUMPI PUSH1 0x40 MLOAD PUSH32 0x8C379A000000000000000000000000000000000000000000000000000000000 DUP2 MSTORE PUSH1 0x4 ADD PUSH2 0x3E4 SWAP1 PUSH2 0x942 JUMP JUMPDEST PUSH1 0x40 MLOAD DUP1 SWAP2 SUB SWAP1 REVERT JUMPDEST PUSH1 0x1 DUP1 PUSH1 0x2 DUP2 GT ISZERO PUSH2 0x402 JUMPI PUSH2 0x401 PUSH2 0x73F JUMP JUMPDEST JUMPDEST PUSH1 0x4 PUSH1 0x0 SWAP1 SLOAD SWAP1 PUSH2 0x100 EXP SWAP1 DIV PUSH1 0xFF AND PUSH1 0x2 DUP2 GT ISZERO PUSH2 0x424 JUMPI PUSH2 0x423 PUSH2 0x73F JUMP JUMPDEST JUMPDEST EQ PUSH2 0x464 JUMPI PUSH1 0x40 MLOAD PUSH32 0x8C379A000000000000000000000000000000000000000000000000000000000 DUP2 MSTORE PUSH1 0x4 ADD PUSH2 0x45B SWAP1 PUSH2 0x8D6 JUMP JUMPDEST PUSH1 0x40 MLOAD DUP1 SWAP2 SUB SWAP1 REVERT JUMPDEST PUSH1 0x1 PUSH1 0x0 SWAP1 SLOAD SWAP1 PUSH2 0x100 EXP SWAP1 DIV PUSH20 0xFFFFFFFFFFFFFFFFFFFFFFFFFFFFFFFFFFFFFFFF AND PUSH20 0xFFFFFFFFFFFFFFFFFFFFFFFFFFFFFFFFFFFFFFFF AND PUSH2 0x8FC SELFBALANCE SWAP1 DUP2 ISZERO MUL SWAP1 PUSH1 0x40 MLOAD PUSH1 0x0 PUSH1 0x40 MLOAD DUP1 DUP4 SUB DUP2 DUP6 DUP9 DUP9 CALL SWAP4 POP POP POP POP ISZERO DUP1 ISZERO PUSH2 0x4CC JUMPI RETURNDATASIZE PUSH1 0x0 DUP1 RETURNDATACOPY RETURNDATASIZE PUSH1 0x0 REVERT JUMPDEST POP PUSH1 0x2 PUSH1 0x4 PUSH1 0x0 PUSH2 0x100 EXP DUP2 SLOAD DUP2 PUSH1 0xFF MUL NOT AND SWAP1 DUP4 PUSH1 0x2 DUP2 GT ISZERO PUSH2 0x4F3 JUMPI PUSH2 0x4F2 PUSH2 0x73F JUMP JUMPDEST JUMPDEST MUL OR SWAP1 SSTORE POP POP JUMP JUMPDEST PUSH1 0x0 DUP1 SLOAD SWAP1 PUSH2 0x100 EXP SWAP1 DIV PUSH20 0xFFFFFFFFFFFFFFFFFFFFFFFFFFFFFFFFFFFFFFFF AND PUSH20 0xFFFFFFFFFFFFFFFFFFFFFFFFFFFFFFFFFFFFFFFF AND CALLER PUSH20 0xFFFFFFFFFFFFFFFFFFFFFFFFFFFFFFFFFFFFFFFF AND EQ DUP1 PUSH2 0x5A2 JUMPI POP PUSH1 0x2 PUSH1 0x0 SWAP1 SLOAD SWAP1 PUSH2 0x100 EXP SWAP1 DIV PUSH20 0xFFFFFFFFFFFFFFFFFFFFFFFFFFFFFFFFFFFFFFFF AND PUSH20 0xFFFFFFFFFFFFFFFFFFFFFFFFFFFFFFFFFFFFFFFF AND CALLER PUSH20 0xFFFFFFFFFFFFFFFFFFFFFFFFFFFFFFFFFFFFFFFF AND EQ JUMPDEST PUSH2 0x5E1 JUMPI PUSH1 0x40 MLOAD PUSH32 0x8C379A000000000000000000000000000000000000000000000000000000000 DUP2 MSTORE PUSH1 0x4 ADD PUSH2 0x5D8 SWAP1 PUSH2 0x942 JUMP JUMPDEST PUSH1 0x40 MLOAD DUP1 SWAP2 SUB SWAP1 REVERT JUMPDEST PUSH1 0x0 DUP1 PUSH1 0x2 DUP2 GT ISZERO PUSH2 0x5F6 JUMPI PUSH2 0x5F5 PUSH2 0x73F JUMP JUMPDEST JUMPDEST PUSH1 0x4 PUSH1 0x0 SWAP1 SLOAD SWAP1 PUSH2 0x100 EXP SWAP1 DIV PUSH1 0xFF AND PUSH1 0x2 DUP2 GT ISZERO PUSH2 0x618 JUMPI PUSH2 0x617 PUSH2 0x73F JUMP JUMPDEST JUMPDEST EQ PUSH2 0x658 JUMPI PUSH1 0x40 MLOAD PUSH32 0x8C379A000000000000000000000000000000000000000000000000000000000 DUP2 MSTORE PUSH1 0x4 ADD PUSH2 0x64F SWAP1 PUSH2 0x8D6 JUMP JUMPDEST PUSH1 0x40 MLOAD DUP1 SWAP2 SUB SWAP1 REVERT JUMPDEST PUSH1 0x1 PUSH1 0x4 PUSH1 0x0 PUSH2 0x100 EXP DUP2 SLOAD DUP2 PUSH1 0xFF MUL NOT AND SWAP1 DUP4 PUSH1 0x2 DUP2 GT ISZERO PUSH2 0x67E JUMPI PUSH2 0x67D PUSH2 0x73F JUMP JUMPDEST JUMPDEST MUL OR SWAP1 SSTORE POP POP JUMP JUMPDEST PUSH1 0x0 DUP1 SLOAD SWAP1 PUSH2 0x100 EXP SWAP1 DIV PUSH20 0xFFFFFFFFFFFFFFFFFFFFFFFFFFFFFFFFFFFFFFFF AND DUP2 JUMP JUMPDEST PUSH1 0x4 PUSH1 0x0 SWAP1 SLOAD SWAP1 PUSH2 0x100 EXP SWAP1 DIV PUSH1 0xFF AND DUP2 JUMP JUMPDEST PUSH1 0x2 PUSH1 0x0 SWAP1 SLOAD SWAP1 PUSH2 0x100 EXP SWAP1 DIV PUSH20 0xFFFFFFFFFFFFFFFFFFFFFFFFFFFFFFFFFFFFFFFF AND DUP2 JUMP JUMPDEST PUSH1 0x0 PUSH20 0xFFFFFFFFFFFFFFFFFFFFFFFFFFFFFFFFFFFFFFFF DUP3 AND SWAP1 POP SWAP2 SWAP1 POP JUMP JUMPDEST PUSH1 0x0 PUSH2 0x70E DUP3 PUSH2 0x6E3 JUMP JUMPDEST SWAP1 POP SWAP2 SWAP1 POP JUMP JUMPDEST PUSH2 0x71E DUP2 PUSH2 0x703 JUMP JUMPDEST DUP3 MSTORE POP POP JUMP JUMPDEST PUSH1 0x0 PUSH1 0x20 DUP3 ADD SWAP1 POP PUSH2 0x739 PUSH1 0x0 DUP4 ADD DUP5 PUSH2 0x715 JUMP JUMPDEST SWAP3 SWAP2 POP POP JUMP JUMPDEST PUSH32 0x4E487B7100000000000000000000000000000000000000000000000000000000 PUSH1 0x0 MSTORE PUSH1 0x21 PUSH1 0x4 MSTORE PUSH1 0x24 PUSH1 0x0 REVERT JUMPDEST PUSH1 0x3 DUP2 LT PUSH2 0x77F JUMPI PUSH2 0x77E PUSH2 0x73F JUMP JUMPDEST JUMPDEST POP JUMP JUMPDEST PUSH1 0x0 DUP2 SWAP1 POP PUSH2 0x790 DUP3 PUSH2 0x76E JUMP JUMPDEST SWAP2 SWAP1 POP JUMP JUMPDEST PUSH1 0x0 PUSH2 0x7A0 DUP3 PUSH2 0x782 JUMP JUMPDEST SWAP1 POP SWAP2 SWAP1 POP JUMP JUMPDEST PUSH2 0x7B0 DUP2 PUSH2 0x795 JUMP JUMPDEST DUP3 MSTORE POP POP JUMP JUMPDEST PUSH1 0x0 PUSH1 0x20 DUP3 ADD SWAP1 POP PUSH2 0x7CB PUSH1 0x0 DUP4 ADD DUP5 PUSH2 0x7A7 JUMP JUMPDEST SWAP3 SWAP2 POP POP JUMP JUMPDEST PUSH1 0x0 PUSH2 0x7DC DUP3 PUSH2 0x6E3 JUMP JUMPDEST SWAP1 POP SWAP2 SWAP1 POP JUMP JUMPDEST PUSH2 0x7EC DUP2 PUSH2 0x7D1 JUMP JUMPDEST DUP3 MSTORE POP POP JUMP JUMPDEST PUSH1 0x0 PUSH1 0x20 DUP3 ADD SWAP1 POP PUSH2 0x807 PUSH1 0x0 DUP4 ADD DUP5 PUSH2 0x7E3 JUMP JUMPDEST SWAP3 SWAP2 POP POP JUMP JUMPDEST PUSH1 0x0 DUP3 DUP3 MSTORE PUSH1 0x20 DUP3 ADD SWAP1 POP SWAP3 SWAP2 POP POP JUMP JUMPDEST PUSH32 0x596F7520617265206E6F7420612073656C6C6572000000000000000000000000 PUSH1 0x0 DUP3 ADD MSTORE POP JUMP JUMPDEST PUSH1 0x0 PUSH2 0x854 PUSH1 0x14 DUP4 PUSH2 0x80D JUMP JUMPDEST SWAP2 POP PUSH2 0x85F DUP3 PUSH2 0x81E JUMP JUMPDEST PUSH1 0x20 DUP3 ADD SWAP1 POP SWAP2 SWAP1 POP JUMP JUMPDEST PUSH1 0x0 PUSH1 0x20 DUP3 ADD SWAP1 POP DUP2 DUP2 SUB PUSH1 0x0 DUP4 ADD MSTORE PUSH2 0x883 DUP2 PUSH2 0x847 JUMP JUMPDEST SWAP1 POP SWAP2 SWAP1 POP JUMP JUMPDEST PUSH32 0x4578706563746564205374617465206E6F7465206D6574000000000000000000 PUSH1 0x0 DUP3 ADD MSTORE POP JUMP JUMPDEST PUSH1 0x0 PUSH2 0x8C0 PUSH1 0x17 DUP4 PUSH2 0x80D JUMP JUMPDEST SWAP2 POP PUSH2 0x8CB DUP3 PUSH2 0x88A JUMP JUMPDEST PUSH1 0x20 DUP3 ADD SWAP1 POP SWAP2 SWAP1 POP JUMP JUMPDEST PUSH1 0x0 PUSH1 0x20 DUP3 ADD SWAP1 POP DUP2 DUP2 SUB PUSH1 0x0 DUP4 ADD MSTORE PUSH2 0x8EF DUP2 PUSH2 0x8B3 JUMP JUMPDEST SWAP1 POP SWAP2 SWAP1 POP JUMP JUMPDEST PUSH32 0x596F7520617265206E6F74206120627579657200000000000000000000000000 PUSH1 0x0 DUP3 ADD MSTORE POP JUMP JUMPDEST PUSH1 0x0 PUSH2 0x92C PUSH1 0x13 DUP4 PUSH2 0x80D JUMP JUMPDEST SWAP2 POP PUSH2 0x937 DUP3 PUSH2 0x8F6 JUMP JUMPDEST PUSH1 0x20 DUP3 ADD SWAP1 POP SWAP2 SWAP1 POP JUMP JUMPDEST PUSH1 0x0 PUSH1 0x20 DUP3 ADD SWAP1 POP DUP2 DUP2 SUB PUSH1 0x0 DUP4 ADD MSTORE PUSH2 0x95B DUP2 PUSH2 0x91F JUMP JUMPDEST SWAP1 POP SWAP2 SWAP1 POP JUMP INVALID LOG2 PUSH5 0x6970667358 0x22 SLT KECCAK256 0xAE 0xDC SGT DUP6 MLOAD 0xB7 0xDA DUP10 DUP10 0x4A PUSH29 0xF2B6DF00A5C39D226DD8CE3424FE2E0787C3F1EEEE64736F6C63430008 GT STOP CALLER "
				},
				"gasEstimates": {
					"creation": {
						"codeDepositCost": "491200",
						"executionCost": "infinite",
						"totalCost": "infinite"
					},
					"external": {
						"arbiter()": "2580",
						"buyer()": "2533",
						"confirmDelivery()": "infinite",
						"confirmPayment()": "30989",
						"returnPayment()": "infinite",
						"seller()": "2515",
						"state()": "2604"
					}
				},
				"methodIdentifiers": {
					"arbiter()": "fe25e00a",
					"buyer()": "7150d8ae",
					"confirmDelivery()": "5e10177b",
					"confirmPayment()": "62ef1f81",
					"returnPayment()": "3dcfe411",
					"seller()": "08551a53",
					"state()": "c19d93fb"
				}
			},
			"storageLayout": {
				"storage": [
					{
						"astId": 3,
						"contract": "contracts/Lab6_Escrow_FX17394.sol:Escrow_FX17394",
						"label": "buyer",
						"offset": 0,
						"slot": "0",
						"type": "t_address_payable"
					},
					{
						"astId": 5,
						"contract": "contracts/Lab6_Escrow_FX17394.sol:Escrow_FX17394",
						"label": "seller",
						"offset": 0,
						"slot": "1",
						"type": "t_address_payable"
					},
					{
						"astId": 7,
						"contract": "contracts/Lab6_Escrow_FX17394.sol:Escrow_FX17394",
						"label": "arbiter",
						"offset": 0,
						"slot": "2",
						"type": "t_address"
					},
					{
						"astId": 11,
						"contract": "contracts/Lab6_Escrow_FX17394.sol:Escrow_FX17394",
						"label": "TotalAmount",
						"offset": 0,
						"slot": "3",
						"type": "t_mapping(t_address,t_uint256)"
					},
					{
						"astId": 18,
						"contract": "contracts/Lab6_Escrow_FX17394.sol:Escrow_FX17394",
						"label": "state",
						"offset": 0,
						"slot": "4",
						"type": "t_enum(State)15"
					}
				],
				"types": {
					"t_address": {
						"encoding": "inplace",
						"label": "address",
						"numberOfBytes": "20"
					},
					"t_address_payable": {
						"encoding": "inplace",
						"label": "address payable",
						"numberOfBytes": "20"
					},
					"t_enum(State)15": {
						"encoding": "inplace",
						"label": "enum Escrow_FX17394.State",
						"numberOfBytes": "1"
					},
					"t_mapping(t_address,t_uint256)": {
						"encoding": "mapping",
						"key": "t_address",
						"label": "mapping(address => uint256)",
						"numberOfBytes": "32",
						"value": "t_uint256"
					},
					"t_uint256": {
						"encoding": "inplace",
						"label": "uint256",
						"numberOfBytes": "32"
					}
				}
			},
			"userdoc": {
				"kind": "user",
				"methods": {},
				"version": 1
			}
		}
	}
}